:020000041000EA
:1000000000B5324B212058609868022188439860DF
:10001000D860186158612E4B002199600421596104
:100020000121F02299502B49196001219960352056
:1000300000F044F80222904214D00621196600F024
:1000400034F8196E01211966002018661A6600F04E
:100050002CF8196E196E196E052000F02FF8012189
:100060000842F9D1002199601B49196000215960AB
:100070001A491B48016001219960EB211966A021F2
:10008000196600F012F800219960164914480160C1
:100090000121996001BC002800D000471248134993
:1000A000086003C880F30888084703B5996A0420EC
:1000B0000142FBD001200142F8D103BD02B5186610
:1000C0001866FFF7F2FF186E186E02BD00000240BE
:1000D000000000180000070000035F00212200005C
:1000E000F4000018222000A00001001008ED00E03C
:1000F000000000000000000000000000070B8FD58A
:1001000048180020E13700109B700010CD37001018
:1001100000000000000000000000000000000000DF
:10012000000000000000000000000000BD380010CA
:1001300000000000000000004D3800108D4C001041
:100140000D3A00100D3A00100D3A00100D3A001053
:100150000D3A00100D3A00100D3A00100D3A001043
:100160000D3A00100D3A00100D3A00100D3A001033
:100170000D3A00100D3A00100D3A00100D3A001023
:100180000D3A00100D3A00100D3A00100D3A001013
:100190000D3A00100D3A00100D3A00100D3A001003
:0801A0000D3A00100D3A0010A9
:1001A80002B4714649084900095649008E4402BC08
:1001B8007047C04602B4714649084900095C4900C5
:1001C8008E4402BC7047C046002934D00123002267
:1001D80010B488422CD301242407A14204D28142BE
:1001E80002D209011B01F8E7E400A14204D28142CE
:1001F80002D249005B00F8E7884201D3401A1A434B
:100208004C08A04202D3001B5C0822438C08A04281
:1002180002D3001B9C082243CC08A04202D3001B37
:10022800DC082243002803D01B0901D00909E3E7B1
:10023800100010BC704701B5002000F00BF802BD9B
:100248000029F8D003B5FFF7C1FF0EBC4243891A55
:100258001847C0467047C046D0400B00D1409C4666
:10026800203AD3401843524263469340184370479C
:100278001C2101231B04984201D3000C10391B0ACE
:10028800984201D3000A08391B09984201D3000992
:10029800043902A2105C40187047C04604030202E9
:1002A8000101010100000000000000004142084077
:1002B8001C2101231B04984201D3000C10391B0A8E
:1002C800984201D3000A08391B09984201D3000952
:1002D800043902A2105C401A7047C0461B1C1D1D41
:1002E8001E1E1E1E1F1F1F1F1F1F1F1F002B15D185
:1002F800002A13D1002906DB01DC002806D00020E3
:10030800C043410802E080210906002007B40248E2
:1003180001A14018029003BD3DFFFFFF03B46846EA
:1003280001B5029801F024FB019B9E4602B00CBC6B
:100338007047C046002B11D1002A0FD1002900D1E7
:10034800002802D00021C943080007B4024802A1CE
:100358004018029003BDC046FDFEFFFF03B4684687
:1003680001B5029801F095FA019B9E4602B00CBCBB
:100378007047C0460122F8B50D000400134B5242E5
:10038800802112196B41C9038B4204D210498B4258
:1003980009D1023207D9630505D08021E30ADB02BF
:1003A800090119430C00280001F01AF90022094B31
:1003B80000F0ECFE06000F00200001F03BF93200CF
:1003C8003B0000F0F3FB01F097F9F8BDFFFF1F00B9
:1003D800FFFF3F000000F0414A02F8B54302440025
:1003E800C50F500A84464800240E000E5F0AC90F44
:1003F8009B099209261A8D4200D09EE0002E42DD0C
:100408008021C90400281ED1002A0AD0661E012CAA
:1004180005D19B1801340B4246D1013C01E0FF2C69
:1004280014D15A0704D00F221A40042A00D00433EA
:100438005A0100D42EE101340026FF2C19D09D4E1C
:10044800DB081E4015E0FF2CEBD00A431B2E01DD14
:100458000133E6E72020801B11008240F140501E46
:1004680082410A439B185A01DBD501340026FF2C30
:100478001AD1FF23E005DB057602760A18403043DF
:10048800ED072843F8BD002E2ED08026011BF60468
:10049800002C14D1002B00D1F3E04C1E01290AD105
:1004A8009B1802243342B8D0012283491A405B08C2
:1004B8000B401343B5E7FF2906D11300AEE0FF2830
:1004C80000D1E0E00C0033431B2C02DD531C040078
:1004D800A7E719002026E140341BA3405C1EA34176
:1004E8000B4304009B18BEE7FE20611C01421ED18D
:1004F800002C0DD1002B00D1C7E0002A00D190E7D5
:100508009B185A0100D48CE76C4A13400C0088E70A
:10051800002BD2D0FF24002A00D182E78023DB03FE
:100528009F4202D39C4500D26746FB0076E00C0050
:10053800FF299ED09B185B0873E7002E25DD002855
:100548001CD1002A00D16CE7661E012C06D19B1A2B
:100558005A0100D465E79B019E0975E0FF2C00D184
:100568005FE701211B2E07DC2020801B1100824041
:10057800F140501E824111435B1AE9E7FF2C00D17C
:100588004FE78021C9040A43EBE7002E25D0051B5D
:10059800002C0DD1002B08D06E1E012D03D10D00AB
:1005A800D31A0134D4E7FF2D08D113002C0021E021
:1005B800FF286CD080242E00E404234301241B2E42
:1005C80007DC2025AD1B1C00AB40F4405D1EAB4191
:1005D8001C43131B0D000400BAE7FE26601C3042C2
:1005E8002DD1002C14D1002B06D125002600131E76
:1005F80000D13EE70D0014E7002A00D111E79E1A4A
:10060800D31A7001F6D4331E00D00AE7350030E75C
:10061800002B05D1002A49D013000D00FF2400E764
:10062800FF24002A00D1FCE68023DB039F4200D28E
:100638007BE79C4500D378E767460D0075E79E1A6F
:10064800700115D50D00D61A3000FFF711FE3300E2
:1006580005388340844210DC2022001B0130121A26
:1006680019009340C1405A1E934100240B43D8E619
:10067800002EE9D135003400FBE6104A241A134055
:10068800CFE6130042E7130021E71300C9E6130081
:100698000400AFE7DE08FF2C00D0EAE6002E00D108
:1006A800E7E68023DB03FF241E43E2E680261500ED
:1006B800F603F6E7FFFF7F1FFFFFFF7DFFFFFFFB4E
:1006C800F0B5C30F85B0440245000F1C640A2D0E17
:1006D800039302930AD0FF2D3BD08023E400DB0470
:1006E8001C4300237F3D019500930EE001230194F4
:1006F8000093002C09D02000FFF7BAFD431F9C404F
:1007080076235B421B1A019300957D027E006D0AD9
:10071800360EFF0F002E23D0FF2E2ED08023ED00A3
:10072800DB041D4333007F3B002201980399C31A61
:10073800009879408000104301380E2823D8FFF72D
:1007480039FD4D9973999299734D4D927361616119
:100758005300022301950093002CD6D00133C3E740
:100768002B000122002DE0D02800FFF781FD431F58
:100778009D4076235B421B1AD6E733000222002DE8
:10078800D3D00132D1E764016D01AC4228D31A20DD
:100798000122641B0126270052006400002F01DBA0
:1007A800A54201D8641B324301380028F3D1601EEA
:1007B8008441144318007F30002838DD620704D0D4
:1007C8000F222240042A00D00434220103D58033AA
:1007D80018002B4A1440E508FE281DDD00250FE00F
:1007E8001B200022013BD5E78023DB031C4203D0FA
:1007F8001D4201D12C00029780250299ED03254363
:10080800FF2009E00399009A022AE7D0032A2FD093
:1008180000252800012ACDD16D026D0AC0052843A4
:10082800C907084305B0F0BD2C003900ECE70122E8
:100838000025121A28001B2AEEDC9E3325009C4056
:10084800D540631E9C4125436B0704D00F232B40E2
:10085800042B00D0043580232800DB0418401D42F7
:100868000BD1ED08D8E780240023E4030293C3E703
:100878000291C1E700252800CEE700250120CBE73B
:10088800FFFFFFF7F0B5C30F85B0470244000291A0
:100898007F0A240E03930AD0FF2C71D080227F3C5C
:1008A80026000023FF00D204174301930CE0012324
:1008B8003E1E019308D03800FFF7DAFC7626431F66
:1008C8009F407642361A0194029B5C025D00DB0F62
:1008D800640A2D0E02935AD0FF2D64D0802328007D
:1008E800E400DB041C437F3800230299039A4A4042
:1008F800811901988C46850001311D430A2D00DDC0
:1009080078E0022D55DC013D012D63D9250CA4B2F8
:1009180026003B0CB8B246435C4368436B4300195E
:100928001F00330C1B189C4202D9802040023F183C
:100938001804B6B28619B401601E84411B0CB60EA9
:10094800DB1934439B011C431B0168D50123600854
:100958001C40044308007F30002862DD630704D090
:100968000F232340042B00D00434230103D5803106
:1009780008003E4B1C40E508FE2833DD00254CE00E
:10098800022326000193002F9ED001338DE720001B
:100998000123002CA9D0FFF76BFC431F9C40762352
:1009A8005B42181AA0E728000223002C9DD00133CF
:1009B8009BE70120A840A6250600ED002E4028420E
:1009C8001DD19025AD00284247D1B93DFF3D2842B1
:1009D8009CD0029A022BD1D0032B42D000252800AC
:1009E800012BB7D16D026D0AC0052843D207104309
:1009F80005B0F0BD039A0F2D04D00B2DE9D03C00B3
:100A0800019BE7E78023DB031F4203D01C4201D18F
:100A18002700029A8025ED033D43FF20E2E7614667
:100A280098E7012300251B1A28001B2BDADC9E31CE
:100A380025008C40DD40631E9C4125436B0704D094
:100A48000F232B40042B00D0043580232800DB041F
:100A580018401D4207D1ED08C4E780273200FF0384
:100A6800D8E72700D6E700250120BBE7FFFFFFF7FF
:100A780041024300C20F490A00201B0E7E2B03DDF2
:100A88009D2B02DD084BD0187047802000040843D6
:100A9800952B05DD963B9840002AF5D04042F3E7B8
:100AA8009621CB1AD840F7E7FFFFFF7F70B5030008
:100AB8000400051E0ED0C21785185540C40F280023
:100AC800FFF7D6FB9E231B1A962B0ADC08282CD08E
:100AD800083885406A02D805520A1043E4072043C3
:100AE80070BD992B1CDD05222900121AD140020085
:100AF8001B3295402A00551EAA4111430D002A00B9
:100B08000B4E3240690704D00F212940042900D038
:100B18000432510102D59F2332401B1AD508D9E768
:100B2800421F0528EBD09540E9E79623D2E7C04657
:100B3800FFFFFFFB002370B50400984209D0FFF7C0
:100B480097FB9E231B1A962B08DC082829D0083807
:100B580084406402D805640A204370BD992B1BDDCC
:100B6800020021001B3291400A00511E8A410521D2
:100B7800091ACC40144322000B4D2A40610704D0C7
:100B88000F212140042900D00432510102D59F23AE
:100B98002A401B1AD408DCE7421F0528EBD09440F2
:100BA800E9E79623D5E7C046FFFFFFFBF0B587B01E
:100BB80004920593CB0F0193059B0D034C006D0A1E
:100BC800410F5F0029431D037B0D0293059B6D0AAE
:100BD800DB0F0393049B049A5B0F2B43019E029D3A
:100BE800039F640DC000D200651BBE4200D02CE1FB
:100BF800BB4EB446002D00DC70E0029E002E1ED1D4
:100C08001E00164300D19BE26E1E012D13D18218DF
:100C180082428041C91840420918012410000B0281
:100C280000D472E00224AF4B42080B40012101407E
:100C38000A43D80706E165451CD1A94C65E064451F
:100C480063D0382D47DC8026360433432E001F2E10
:100C58002FDC20251F00AD1BAF4002953D0017007B
:100C6800F7402F43029DF340AA40551EAA411D009C
:100C7800174303E00127029D382EE8DD3F1887421D
:100C8800804169184042091838000B023DD50025FB
:100C980001342F006445C6D1934B24051C403B0307
:100CA8001B0B1C43019B2800DB071C43210007B0DA
:100CB800F0BD35001F00203DEF403D000027202EED
:100CC80003D04037BF1BBB401F0017437B1E9F410B
:100CD8002F430025D2E700250127CFE7002D6FD04D
:100CE800029D2E1B002C30D10D00054300D121E2BE
:100CF800751E012E24D1801890429241C918524283
:100D0800891801340B0200D58CE7430709D00F235B
:100D18000340042B05D0031D83428041404209183B
:100D280018006F4B0A0200D410E2002501342F008E
:100D38009C42B1D06B4BC0080B405D070543F2E104
:100D480066451DD11900100077E7029C6445F9D06B
:100D5800382E32DC80243500240421431F2D1ADC70
:100D680020240E00671BBE4034000600B840EE4049
:100D780034430600E940701E864126430C0002E019
:100D88000126382DEADDB01890429241E41852420B
:100D9800A118029C79E72C000E00203CE6403400A4
:100DA8000026202D03D04036761BB1400E000643A6
:100DB800711E8E4126430024E5E700240126E2E760
:100DC8004A4F661C3E4230D10D000543002C12D11B
:100DD800002D00D1B1E11D00154396D08218824242
:100DE8008041C9184042091810000B028DD53D4BAF
:100DF8001940340089E7002DA4D01D00644615432E
:100E080083D080254C07C008C9082D0320432942F8
:100E180006D0DC082C4203D12100D0085B07184318
:100E2800CB00410F1943C00007E734002F00664587
:100E380000D131E7821882428041CB1840421B180A
:100E4800D8075208104359085FE7002D65DD029E58
:100E5800002E25D11E00164300D171E16E1E012D12
:100E68000ED1821A90428041C91A4042091A0124BF
:100E780010000B0200D448E7490206004D0A07E1BA
:100E8800174FBD4200D1D8E60125029F382E11DD4B
:100E9800451BA8428041C91B4042091A2800E8E7BF
:100EA8000F4EB44200D130E7382D33DC80263604AB
:100EB80033432E001F2E1BDC2027BD1B02951D006F
:100EC800029FF340BD40AC4615006746F5403D43E0
:100ED800029FBA40571EBA411F001543D8E7C046C3
:100EE800FF070000FFFF7FFF0000F07FFE07000004
:100EF80035001F00203DEF403D000027202E03D085
:100F08004037BE1BB3401F0017437B1E9F413D4324
:100F18000027BDE700270125BAE7002D59D0029D1B
:100F28002E1B002C16D10D0005430FD0751E012E67
:100F380009D1101A82429241591A039B5242891AC6
:100F48000193013495E78E4FBE4221D1190010005C
:100F5800340050E08A4C029DA54200D1F2E0382EC0
:100F680034DC80243500240421431F2D1DDC202679
:100F78000C00761BB440A4460400B040EC40674621
:100F8800461EB041E9403C43044326000C0002E001
:100F98000126382DE9DD901B824292411C1B039BE0
:100FA8005242A11A0193029C63E72C000E00203CD8
:100FB800E6400024202D03D04034641BA1400C00DF
:100FC8000443611E8C4126430024E4E700240126E3
:100FD800E1E76C4E651C35424AD10D001F00054300
:100FE8001743002C23D1002D08D13D1E019700D1B5
:100FF80052E619001000039B019386E6002F00D1EA
:1010080083E6861AB042BF41CD1A7F42ED1B2F02FC
:1010180006D5101A82429241591A5242891AEAE7B1
:1010280037002F4300D1A5E0290030006DE6002DE0
:1010380007D1002F00D194E01900039B1000019301
:10104800FBE5002F00D1F8E580254C07C008C9084A
:101058002D032043294200D1E2E6DC082C4200D0CF
:10106800DEE65B07D0081843039B21000193D7E60F
:10107800861AB042BF41CD1A7F42ED1B2F0228D5F8
:10108800161AB24292415B1A52429D1A039B01936F
:10109800002D25D02800FFF7EBF80300083B20229D
:1010A8003100D21A9D40D140294335009D409C42D1
:1010B8003BDC1A1B0132202308009B1A2C009D40A0
:1010C8009840D4406B1E9D41D140204328430024C2
:1010D8001BE637002F43DBD13D003C000197DBE5E1
:1010E8003000FFF7C5F8030018331F2BD7DD310098
:1010F800083881409C4212DC1B1B5A1C1F2ADADD6F
:101108000C001F3BDC402800202A03D040239B1AF8
:1011180099400800431E984100212043D7E7E41A6C
:10112800194B0B405D07DF08B6E5E41A164B28009B
:101138001940EAE5190010005BE619001000E4E523
:101148002C00E2E519001000029C54E74A07C70882
:1011580017433D00C9089C420FD10D4304D12F000D
:101168009AE58021019709033D0080273F03044C3D
:101178000F4391E53D0001978EE50F008CE5C046D1
:10118800FF070000FE070000FFFF7FFFF0B58BB0F0
:10119800009201930D034B00CA0F06002D0B5B0D47
:1011A800059200D114E1CF4A934200D138E1ED0015
:1011B800420F2A4380252D041543CB4AC4009B18AF
:1011C800039300230293019B00981E035A00DB0F30
:1011D800360B520D049300D131E1C24B9A4200D133
:1011E80053E1430FF60033438026BF4936041E43BC
:1011F800C300501800220599049F79400091039973
:1012080041180691013103910299880010430A2878
:1012180000DD73E1022800DD46E10138012800D82D
:1012280055E1190C9BB202911900220CA4B251434A
:1012380020008C46029F0299584351436743059109
:101248006744010CC91904908C4505D980204002D7
:101258008446059F67440597080C84466846008ABB
:10126800090409180991310CB6B204913000210023
:10127800049F50437C4371437A4324180F0C3C1954
:10128800A04202D9802040021218200C821824049F
:1012980089B2079262180892089962468C46290C0E
:1012A800ADB22800029F58436F434B4362449446B3
:1012B800029CFF18020CD2194C43934202D9802396
:1012C8005B02E418130C1B1902932B0080B2120462
:1012D80012180498734345434E434143A8191D0C03
:1012E8002D18AE4202D9802040020918059C60469C
:1012F800A446089C6044A042BF4180189042924195
:101308002E049BB2F618079B7F42F61853420493AB
:10131800029BF4199C46A4446346049ABC42A44127
:101328009B18079A64429642B641029A7642344321
:101338002D0C64199445AD41049A6D429342924133
:10134800524215436419099A6418410211434A1E0E
:101358009141C00DDE0D640201435B0226430B433D
:10136800E40100D4DFE001215A080B401A43F307D7
:10137800CE401343039A5D495218002A00DCD5E099
:10138800590709D00F211940042905D0191D994280
:101398009B415B42F6180B00F10106D58021C9007C
:1013A8008C46534A1640039A624452498A4200DDE9
:1013B80009E17407DB081C43F60813053603009A95
:1013C800360B3343D2071343200019000BB0F0BD8E
:1013D8002C0004432BD0002D16D02800FEF748FF20
:1013E800040002000B3C1D2330001B1B1100D840D9
:1013F80008398D4003002B4335008D403E492C00B1
:101408008A1A1D000392DCE6FEF732FF0400020090
:10141800153420321C2CE6DD330008388340EDE714
:1014280004002C4307D0039304000323CAE62500D5
:1014380001230394C6E6039325000223C2E6009B1A
:10144800334329D0002E14D03000FEF711FF0100DD
:1014580003000B391D221800521A009908388640DB
:10146800D1403143009E86402348C01A33000E0005
:10147800C0E6FEF7FDFE01000300153120331C29EC
:10148800E8DD009908388140EEE7009B334307D038
:10149800030010000322AEE61E0018000122AAE68F
:1014A80010001E000222A6E601218140A6200F009E
:1014B800C0000740014227D190208000014277D127
:1014C800B938FF38014200D1ABE604990091022AED
:1014D80079D0032A75D0012A00D04BE700263400C2
:1014E80032006AE7FF07000001FCFFFFFF0300006E
:1014F800FFFFFFFEFE0700000DFCFFFF05990091AE
:101508000F2805D00B28E0D02E002300029ADEE732
:101518008022120315424FD016424DD13500049A4D
:1015280000921C0048E0069A039223E70120801AE3
:101538003828D3DC1F2827DC2649039A8C461C0050
:101548006244310093409140C4401A002143531E25
:101558009A410B00C64013435A0709D00F221A407C
:10156800042A05D01A1D9A429B415B42F6181300C3
:1015780080213000090408400E4227D17407DB0897
:1015880002001C43F60818E71F2149428A1A310055
:10159800D1400022202805D00F48039A844662448F
:1015A8009640320013435A1E934100260B43D3E75B
:1015B80080253C002D030097802636032E43074ADA
:1015C800FBE63500ADE700263400F8E700260122E7
:1015D8003400F2E61E0400003E040000FF0700008D
:1015E80070B5030002000600051E11D0C217851849
:1015F8005540C40F2800FEF73BFE0D4A121A0A2870
:101608000FDC0B232E001B1A1530DE40854023000B
:101618003603360B12053243DB071A432800110044
:1016280070BD0B38854023002E000025F0E7C0462A
:101638001E04000010B503000400021E0CD0FEF7C3
:1016480017FE0B4A121A0A280DDC0B2321001B1A5D
:10165800D94015300B0084401B031B0B12051A439D
:101668002000110010BD23000B3883400024F3E74D
:101678001E040000FE2270B54400240E4302611CC3
:101688005D0AC60F11420DD0E0229200A4181B0B70
:101698006D071B031B0B2405F6071C433443280066
:1016A800210070BD002C18D12300002DF1D0280096
:1016B800FEF7DEFD0A280ADC0B232A001B1ADA4093
:1016C8001300020015329540094C241AE1E7030083
:1016D8000B3B9D402B002500F6E7002D06D01A0B8A
:1016E80080231B036D071343024CD2E72B00FBE753
:1016F80089030000FF070000F7B50B034A005B0AE7
:10170800460F520D1E43531C9C460400C7003C481C
:10171800C90F034001936346034249D0394BD0189F
:10172800FE2868DC002837DC0300173365DB8024DB
:101738001E25240434432D1A1F2D10DC324BD218D9
:101748003B0097409440781E8741EB4027433B433A
:1017580007241A00224023423BD1DB0832E002234F
:101768005B421B1A2000D84003000020202D03D024
:1017780026481218200090403843421E90410343E7
:1017880007241A0022402342E7D00F221A40042AD5
:1017980024D00020043308E0A401621E9441F6001E
:1017A8007B0F344323435A071BD10200DB0809E0AF
:1017B800019B002A06D03B00FF22334302D080233E
:1017C800DB0333435B02D0055B0A1843C9070843B0
:1017D800FEBD0F2200201A40042A06D10022DB0891
:1017E800F0E70F221A40042ADFD004335A01DCD56F
:1017F800421C0023E6E7FF22FBE700221300E1E793
:10180800FE07000080FCFFFF82FCFFFFA2FCFFFF39
:101818009140030090409C46203A9340194352421D
:101828006346D3401943704710B5002903D1FEF72A
:101838001FFD203002E00800FEF71AFD10BDC0466B
:101848000023C25C0133002AFBD1581E7047F7B54C
:10185800040C0D0091B20F0061438C460600019301
:1018680083B2100C5F43444358433B0C60441B183D
:10187800994202D98021490264180199554371435C
:10188800180C04191B04BFB24919D819091903B057
:10189800F0BDF0B506000F0015001C0085B08B42A6
:1018A80063D801D1824260D821002800FFF7BCFF2D
:1018B800390000903000FFF7B7FF009B21001B1A8A
:1018C8001A0028000393FFF7A3FF00900191B94283
:1018D80045D801D1B04242D8009B019C012000218B
:1018E800039AF61AA741FFF793FF04000D00039B24
:1018F800002B2BD0019B009ADB0750081843019B53
:101908005908039B9C46B9422CD801D1B04229D82A
:1019180032003B00121A8B41012692185B410027C6
:10192800B6185F4101235B429C446346002BEAD111
:1019380030003900039AFEF78FFC039AA4197D4101
:1019480006000F00FFF764FF241A8D410A9B002B45
:1019580001D01E605F602000290005B0F0BD0024A2
:101968000025C4E7B6197F41DCE700240025EDE730
:10197800F7B517001E0004000D0000F011F8020072
:101988000B000090019138003100FFF760FF241A26
:101998008D41089B009801991C605D6003B0F0BD03
:1019A800F0B504000D001000190085B0002D11DB02
:1019B800002B00DA82E026002F0014001D00BD4233
:1019C80004D800D080E0B44200D87DE00020002197
:1019D80005B0F0BD00236242AB41002968DB160068
:1019E8001F0004000D00BD4278D801D1B44275D85B
:1019F80001235B42290020000393FFF715FF3900FC
:101A080002903000FFF710FF029B29001B1A1A00F2
:101A180020000293FFF7FCFE04000D00B94255D8E0
:101A280001D1B04252D801200021029AFFF7F0FEFE
:101A3800361BAF4100900191029B002B2CD0EB0785
:101A480060081843029B69089C4601240025B94296
:101A580041D801D1B0423ED832003B00121A8B4126
:101A680092185B4112196B4116001F0001235B425B
:101A78009C446346002BEAD1009C019D029A3000E9
:101A88003900FEF7E9FB029AFFF7C2FEA4197D416F
:101A9800241A8D410094019500980199039B002B0D
:101AA80000D195E703000C0000215842A1418FE7BF
:101AB80016001F00002544428D4180E726002F00B4
:101AC800002544428D418EE7002393E7002200233E
:101AD80000920193B0E7B6197F41C7E700200021C3
:101AE800E0E700000F22022330B587B06A4405AD55
:101AF80010700C00009376212B00054804F0B7FD08
:101B0800002802D12B885BBA238007B030BDC046BD
:101B18001C7C0010F0B5ABB002AF9E4C200005F065
:101B28001DFE002808D19C4A01219C4805F0EDF9CA
:101B38000020BD4629B0F0BD88209949FFF7D2FFA3
:101B4800002800D024E197498A3004F0AAFD002833
:101B580000D01DE194498C3004F0A3FD002800D08A
:101B680016E192498E30FFF7BDFF002800D00FE143
:101B78008F49903004F095FD002800D008E18D4988
:101B8800923004F08EFD002800D001E18A4994309B
:101B980004F087FD002800D0FAE08849963004F068
:101BA80080FD002800D0F3E08549983004F079FDE5
:101BB800002800D0ECE083499A3004F072FD002838
:101BC80000D0E5E080499C3004F06BFD002800D08F
:101BD800DEE07E499E3004F064FD002800D0D7E0A6
:101BE8009422A123BA1813700C2688220125143BCD
:101BF800B218762120000095FB18D21904F037FDA1
:101C0800002800D0C4E08D22BA18714B12787149AF
:101C1800E1301A7004F045FD002800D0B8E09422A5
:101C2800E323BA1813708822553BB2187621200096
:101C38000095FB18D21904F01AFD002800D0A7E07F
:101C48008E22BA181278644B88211A709022E423E5
:101C5800BA1813708822D83B9B18803A5218D119A9
:101C6800093E0A00200076210096DB1904F0FFFCEB
:101C7800002800D08CE094229523BA1810780F22FF
:101C8800FB181B78554900011A4002430A80962127
:101C980079180978524A09011B090B4313809022CD
:101CA800E723BA18137088210822583B52182000DD
:101CB8000095FB18D219123904F0D9FC002867D115
:101CC8008F22BA18474B12781A70474A31003348A6
:101CD80005F01BF9F92390225B00BA1813808822BB
:101CE800EB3BFF3B9B18DA190433FB181A60982367
:101CF8000224FB181C609C23FB181C708022254EB4
:101D0800BA18B368882013609C239C22FB181B78A0
:101D1800BA182343137080230C21FB181B68091879
:101D28009A68C81915000100762301223000A847D7
:101D380090222E4BBA181380882208239B180C3245
:101D4800DB19BA1813609823FB181C609C23FB1836
:101D58001C709C23FB181B7888201C439C23FB18B1
:101D68001C7080230C21FB181B6809189C68012231
:101D780076233000C919A04700283FD01C4A01210A
:101D8800064805F0C2F800211A4803F063FEA1E7EF
:101D9800194AC9E61C7C00103C800010BC7D00106C
:101DA8003C08002038080020360800203A080020A7
:101DB8003408002032080020300800202E080020B7
:101DC8002C0800202A0800202808002026080020C7
:101DD80040080020240800203F0800202208002096
:101DE800200800203E08002055800010F42500003F
:101DF8009E800010204E00007E800010FA200021F6
:101E0800800003F027FE9022F723BA181370882267
:101E18008821EF3B009304339B18803A5218DB1952
:101E28003000D219123904F022FC031EF86300D0E6
:101E38009BE09433FB181B7898227B619523FB1851
:101E48001B78BA183B619623FB181B78FB60972315
:101E5800FB181B7812781B03120113439922BA1836
:101E680011789A22BA181288090952BA92B2BA603D
:101E7800BE4A194312881B099B1AC9105200891AB5
:101E8800BB4A5B430020125E1B134A43B949D21276
:101E98000020095E05204B439B13D2185043803025
:101EA8000012FEF703FE88217863C905FEF7EAFCF5
:101EB800FEF7DEFDC317FB620123AF4AB8625B423F
:101EC8000600B86AF96A801859418023FB18020095
:101ED800186059600B00FFF7BAFCA84BB8610024E2
:101EE8001C5FA74B0D0000229B5EBB63A54B002225
:101EF8009B5E7B60A44B0020185E8023FB181A6849
:101F08005B68C117FFF7A3FC030D0A031A43030319
:101F1800BB679E4BFA670020185E2B00BA69C11791
:101F2800FFF795FC0B06020A1A430B12BA66FB660A
:101F3800B86FF96FBA6EFB6E12184B418021002002
:101F48000902801A9941924B1A88FB6BFFF77FFCB4
:101F58004B103B63CB17FB61FA693B6B134306D10C
:101F680080220023BA18136099E08A4A07E72B00F9
:101F7800BA692000E117FFF76AFCBB6B0D00D9179F
:101F88008023FB181A685B680400B86BFFF75FFCD6
:101F9800C30B4A041A4343047A663B663A6E7B6E67
:101FA800A4185D413B69FA681B01120913437A6959
:101FB8001203134380225203D31A5A08D917DB0796
:101FC800BB657B68C907DB007B62FB6B11433B6227
:101FD8003A6A7B6AA4185D41F9650023B86DF96D0A
:101FE8006D4A001BA941FFF732FC3A6BFB69FEF70B
:101FF8007DF98023FB1818608423FB181960440BB3
:10200800CB041C43654B4D130020185E22002B00A7
:10201800C117FFF71CFC22002B00FFF718FCCB01AF
:10202800420E1A434B167B6580233A65FB181A68E3
:102038005B683C6D7D6DA4185D41594B0020185EAE
:102048008023FB181A685B68C117FFF700FC4B0375
:10205800C20C1A43CB14BA64FB64BA6CFB6CA418A8
:102068005D412B06220A1A432B123A677B674D4BB8
:1020780000229B5ED9171A0F090111431B013B640B
:1020880079643B6F7C6F386C796CC0186141FEF7DE
:1020980071F94549FEF714FB8023FB181860434982
:1020A800BA680020095E92030905521A4049414B5B
:1020B8000020095EF3185943521A80218020C90173
:1020C80052183D4900020978D2135943C912091818
:1020D8003A486E4600788CB040B243439B124B435B
:1020E80080219B1289035B18354902AD00240C5FDF
:1020F8005C4380239B01E418A4135443E3135B431C
:10210800304ADB11127853431B11E41AE343DB17FF
:102118001C402D4B2D496B61786BFEF7D1FAFFF708
:10212800A9FA8023FB18A861E9611868FFF7A2FAE9
:10213800C823286269625B059C4200DD1C002013ED
:10214800FEF7B4FCEA218905FEF79CFBFFF792FA3B
:102158000823A862E9622B612A0000231C481D4954
:10216800103200F009FFB5460DE6C0463C080020D5
:102178003808002036080020000CFEFF2C0800203C
:102188002E080020300800203408002032080020E3
:102198003A080020BA800010350C000026080020FC
:1021A800280800202A0800200000C846220800202D
:1021B8002008002000D4FEFF3F0800203E08002031
:1021C8002408002040080020D28000100000C842E7
:1021D800BC7D0010C0400000F0B597B00593042303
:1021E8000B921A400B9B0A92DA0807231A40013215
:1021F80007001C9D03910D92820700D0C5E1041DC4
:10220800002804D0072909D81C20404254E1039A29
:102218001A401300A4180822D31A0393059B042616
:10222800013B0693002309930C9304930293013B0B
:1022380007930196002F01D0059B23600D9B002B6F
:1022480000DDF1E09D4B059A9A4203D39C4B9A42DC
:1022580000D2E9E00B99E21B9308890700D50DE14C
:10226800049A0F2A00D9BBE0002F00D10EE104998F
:102278000EAA53540A00079912AB99540C9B0133C8
:102288000C93F4E008260196069B01330693069BFF
:102298009878002800D105E1029B002B08D1252859
:1022A800F2D1079B01330793012302930426EAE73F
:1022B8007A284AD84B280ED8472846D829282CD817
:1022C80025283FD041D82028DED023384342584122
:1022D800C3B20293D8E74C382E2836D8FDF760FFF2
:1022E800D4353535353535353535353537353535F5
:1022F800353535353561353737616161D437D23594
:10230800D435183718353579E63735353735E60099
:10231800002308930426029327E0012213002A3899
:10232800C0B2834067490B42AED1E221180089054B
:1023380008400B4235D11900114002911342A3D035
:10234800089013E0079B013B07930023C1E7002295
:10235800069B08925B7802926C2B07D10426069B99
:1023680001961B786C2B01D1B6190196013CA01976
:102378003100FDF729FF70430400002F3BD0019B7B
:10238800039ADB1B1B18934200D93DE7089B002BDF
:1023980041D1019B042B20D108CD036004230434D0
:1023A80015E0072107358D4364188C430CCD002FA9
:1023B80008D00131C91B03980919814200D923E7C4
:1023C80022606360002308260293330008340193D7
:1023D8005AE7029B089300239CE7019B082B01D036
:1023E800162012E7072307359D430CCD0260436092
:1023F80008230834EBE7089B002B0CD1019B042B26
:1024080001D10435CAE7019B082BE9D10735013B07
:102418009D430835ECE7069B023306930D9B013B71
:102428000D9308CD059305E70B9B9B0722D501214A
:10243800E21B9308802080008242D1D2049A0F2A9E
:10244800CED8002F1CD00498DBB20EAA13549C4699
:10245800079B12AA1354002900D10FE78022634674
:10246800524213430EAA1354099B01330993049B48
:1024780001330493069B0434013B07E70021D9E7A5
:10248800002903D0039B01330393F0E7039B023336
:1024980003930A9B002BEAD10598FFF7D1F9039B18
:1024A8001B18F1E78022E31BD200934298D2002F39
:1024B8000AD103980838C01817B0F0BD647B001023
:1024C80070860010DAFF00009B08302238603B70ED
:1024D8006B469B180A9A1B78002A0BD0FB70099B45
:1024E800BB70002B1BD100250EAE049BAB421BD149
:1024F800E01BE1E77B70F2E70EADED560EA9595CE3
:10250800002D07DA039E15190140B54200D97BE674
:1025180021700134013304999942EDD1E3E7012296
:1025280000237F20D21BF6E7099B002B02D03378CB
:102538007F2B1BD80A9B002B1BD012ABEB5C2370A4
:102548000023013401930123019ADB1B1B199B18FB
:10255800039A934200D957E63378019A23700134DD
:102568002000059905F045FA019B1C190135013633
:10257800BBE733789B00FB181A6805920A9A0598FE
:102588001A60FFF75DF9431CDCE70E203DE6C04604
:10259800F0B59BB000AF3B628023FB181B680600B8
:1025A8001B07DB0F7B618378F9623A63BB63002901
:1025B8000AD10478BB6BA400E41845780419FB6AB7
:1025C8009D421BD8A31BFB62F378BB61BB6B002B3E
:1025D80004D08023FB181B68DB0719D4BB69002BC8
:1025E80047D13B6B002B03D030003A6AF96A984711
:1025F800FB6AFB63BD46F86B1BB0F0BD01342000DD
:10260800FFF71EF9FB6A013001332418FB62D6E795
:102618003378FB619B007B627368BB627B6AF51849
:102628003B6B002B00D029E1FB6AFB63BB6BEC180A
:102638000023BB63A54232D02B789B009859FFF743
:10264800FFF884217B181B680130002B0CD08822EE
:10265800BA18BB6B1268934206D27A1812685B00EC
:102668009852BB6B0133BB63FB6B01351B18FB63D3
:10267800E0E78023FB181B689B07B2D53378FB6122
:102688009B007B627368BB627B6AF5183B6B002B0F
:1026980077D1FB6AFB63BB6BEC183B6BBB63802297
:1026A8000523BA181268250013405A4253410133D2
:1026B800FB62BB695B00E3183B633B6BAB4299D0A1
:1026C8002B787B636B789B009C59B84B9C4202D358
:1026D800B74B9C4223D37B69002B33D0796BB86A04
:1026E80004F00CF900282DD06C468AB06A46B14B2C
:1026F8005361BB6A93617B6BD36180239B00138416
:10270800AD4B136192210023AC481032890100F0CF
:1027180033FCA546FB6B023BFB630235CDE77B69C7
:10272800002B05D0796BB86A04F0E8F80028DBD1F3
:1027380080230122FB181B68134209D1FB6BFA6A3C
:102748009B1AE9E780230222FB181B681342E4D096
:102758002000FFF775F884217B181B68002B0DD02B
:102768008822BA18BB6B1268934207D27918096895
:102778005B00421C5A52BB6B0133BB63FB6B1B18DB
:10278800CAE7BB6B1C1E7B6315D0802104237A1813
:1027980012681A4014007A637A1812681A420AD02A
:1027A8000023BC6B7B63183340229B182900BA6B4B
:1027B800D81905F01EF9BB6BEB18FB60FB63BB690E
:1027C8005B003B613A69FB68944663447B60FB6B42
:1027D8007A68934257D17B6B757800215A19802308
:1027E800FB181B68D2B29B0700D4610880203818F8
:1027F80000680023C00705D48033FB181B685B07FB
:10280800DB1723407270B370F17030003A6A796A4E
:102818003B6B9847F863002800DAEBE6FB69402039
:102828003370BB6B2100B370BB693A6AF37018232D
:102838001B18D81975703B6B9847041E00DAB1E075
:10284800FB6ABA6BF868991A7B6A3A6AC91A3B69D3
:102858009C46C91A60443B6B9847002800DAA3E0FD
:102868000025FB6B1C192318FB637B6B9D4261D30E
:1028780000213A6A08003B6B9847BBE6BB6B002413
:102888007B63082390E7FB6B484A1B78BB60FB6BB4
:102898005D78AB009B59934202D3454A93420CD3CF
:1028A8007B69002B30D0B968B86A04F027F8002893
:1028B8002AD0FB6B0233FB6389E77B69002B05D0C9
:1028C800B968B86A04F01AF80028F2D18023012206
:1028D800FB181B6813420AD07B6B9B1807324021F8
:1028E8005218796BD219DBB255547B63E1E7802328
:1028F800FB181B685B07DCD5182240215218631CA3
:10290800D2191555DCB2D4E780230222FB181B68C4
:10291800134203D07B6B06320133E0E740211822D3
:102928005218B968631CD2191155DBB20234E4B2EB
:10293800D554BEE7402208239B18DB19EB5C07320D
:10294800BA18137084229B009B59BB63BB181C6880
:10295800002C09D08823FB181B6800249D4203D251
:10296800BA1812686B00D45A47230121F8183A6A3A
:102978003B6B9847002817DBFB6B1B18FB63002C8D
:1029880004D1B86BFEF75CFF013084B221003A6ACB
:10299800B86B3B6B9847002806DBFB6B01351B18AF
:1029A800FB6362E7F86325E6F86323E6647B0010BF
:1029B800708600100981001004000001C47D001019
:1029C800014B18607047C04600000020F7B50400AE
:1029D8000D001E00019203F07DF8030005F0B4F825
:1029E800054F32003B5001992800A04705F0ACF88C
:1029F800385800F00BFFC04608000000F7B5050086
:102A08000600002D01D13000FEBD2800FDF74EFC68
:102A180001238340DA430E4F04019D433B19019380
:102A28001B7B0092002BECD0E3591B69002B09D1CA
:102A3800009B3C191E40636804221968019804F041
:102A480027FADEE7381998470028DAD1F0E7C046B8
:102A58000C7E0010F0B5002289B00F490F4804F031
:102A680068FF0024002600270E20C0220C4D03908A
:102A78000696079728000B4B0B490494029401947F
:102A88000094920002F0D2FD0849280004F091FE5B
:102A9800200009B0F0BDC046B92A00104805002042
:102AA800D0000020BD2D001048080020CC81001067
:102AB80010B5024802F0F4FC10BDC046C00000206A
:102AC800F7B500901F48019104F0C1F9061E35D0F2
:102AD80000252800FEBD237B002B11D02368DB686E
:102AE800002B01D02000984763689F7123681B69F9
:102AF800002B1BD1636804222000196804F0C8F970
:102B080001361034104B9C42E5D3009B002BE0D0DB
:102B1800002DDDD02800FFF771FF019B0500002B79
:102B2800F6D00021642002F095FFF1E720009847D5
:102B38000028DFD03B00B3401D43E1E70500012733
:102B4800024CDFE7100700201C7E00100C7E0010EE
:102B5800014B8000C0587047547E0010030010B528
:102B68000800002B05D0044A136000F0ABFC0020DD
:102B780010BD16204042FBE70400002010B5054CAC
:102B88002378002B02D1044802F08AFC0123237029
:102B980010BDC04641080020C000002010B5040048
:102BA800074804F054F9002C03D00121054804F02B
:102BB80005FF054804F0C9FE044802F071FC10BD89
:102BC800080700200C07002048050020C00000204E
:102BD80010B50021014804F000FF10BD08070020CF
:102BE80070B5FFF7F5FF0500084C094B9C4200D370
:102BF80070BD63685B79002B06D023685B68002B87
:102C080002D02900200098471034EEE70C7E00100F
:102C18001C7E001010B5044C0449200003F09FFFEF
:102C2800034B1C6010BDC04684000020407E00108D
:102C3800000700200023FA210C4A10B513700C4A33
:102C4800890013600B4A0C481360FFF787FFFFF7F2
:102C5800E1FF0A4B0A4918008B4200D310BD1A1A2B
:102C68005C681211013222711033F5E74208002026
:102C7800080700200C070020616E00100C7E001071
:102C88001C7E001010B5044C010000220023200017
:102C980003F086FF10BDC0468400002010B502482E
:102CA80004F018F810BDC0468400002010B5034B8E
:102CB8000100186804F067F810BDC046000700203E
:102CC80010B5024804F098F810BDC04684000020F2
:102CD80070B5204B1878002826D0FFF7DFFF1E4C70
:102CE800051E2CD11D4B1E4C1B68002B11DD04F05A
:102CF8001CFE0A220023FDF71DFB22686368801A68
:102D08009941002903D1FA239B00984201D9FFF782
:102D180067FF22686368FA200021800012184B417F
:102D280022606360FFF7CCFF70BD63685B79002B9E
:102D380004D02368290020001B6898471034094BE9
:102D48009C42F2D32800FFF7B1FF0121064804F0A6
:102D580035FEC7E7410800200C7E00100807002058
:102D6800400500201C7E00100C07002070B50E4D99
:102D7800297800290CD10120FFF7A2FE0B4C0C4B3F
:102D88009C4206D3FFF7A4FF0028FBD101232B7038
:102D980070BD63685B79002B03D0236820009B68B3
:102DA80098471034EBE7C046420800200C7E00101C
:102DB8001C7E0010F7B500210800FFF781FE041EF5
:102DC8002DD0FA2700267F0004F0BEFE1C4B1D4ABA
:102DD8001B581360002B06D01B4B1B68092B02DD08
:102DE8001A4802F05DFB00230093002C07D0200056
:102DF800FFF704FE041E02D101277F423E00FFF7C1
:102E080067FF0190002808D1009B114D002B13D1BA
:102E18000E483A00330002F075FB019BE4E70127F6
:102E28007F423E00D0E72B689B69002B03D000222D
:102E38002800110098471035064B9D42F3D3E7E769
:102E480008000000040700200C070020C000002034
:102E58000C7E00101C7E001013B5154803F0F7FF18
:102E6800144B1B78002B0AD0EFF3108472B6FFF7CF
:102E78002FFF002C02D162B6BFF36F8F13BD0E4B2C
:102E88001B68002BFAD0002809D1002200230B4828
:102E98000092019300230A4A03F01AF9EEE7092881
:102EA800ECD1064804F051FD064802F0F9FAE5E7CE
:102EB8000C070020420800200407002048050020D5
:102EC80010270000C000002010B5064B04001B6846
:102ED80098472100A060044803F0E0FEFFF7BCFF1C
:102EE80010BDC0460400002084000020044B054AA1
:102EF80000209B1ADB08994201D2C9008858704704
:102F08000C7E0010BC7D0010F0B55E1C85B0B500CD
:102F180000902800072317309843033080080F00DB
:102F28000192FFF7AFFE02AB04000322581D0021F7
:102F380004F068FD03AB1E70002C0BD0039B21002E
:102F48002361002314312A1F0198C058C850043344
:102F58009A42F9D1E023BA015B001A406D02054B91
:102F68002A431A4020000023009903F0B5FF05B05A
:102F7800F0BDC046C0FF0F00F0B591B004AF3B6094
:102F88000B035B0D0D0078607A613B610C0D002B23
:102F980000D173E0BB60002604237E62BE62FE623D
:102FA80002931833FB1801930A2318220093023363
:102FB8009B18DB193200B9687869FFF7E9FA8023B2
:102FC800F8601B01984224D37B696C461A795B79B7
:102FD8008AB01B0213437A69927912041A437B69F7
:102FE800DB791B06134304AA9361294B2949D36152
:102FF80080239B001384284B516113619221330075
:10300800264810328901FFF7B7FFA546BD460DB027
:10301800F0BDFB6817345B055A0D3A61204A1B0B5B
:1030280015401D43FB68E0180723984303308008C8
:10303800FFF728FE041E15D0030010337B62FB68DF
:10304800FE62BB62042302931833FB1801930A2320
:103058001821009302335B18124AB9687869DB19A2
:10306800FFF796FA3B690E4A5B0215401D432A009A
:1030780020003B68796803F02FFFC7E7200007238B
:103088001730984303308008FFF7FCFD0400E9E798
:10309800FF070000E181001004000001DC7D001042
:1030A800FF01F0FFAF6E0010F0B587B00E9F04006F
:1030B800150002910393002F15D00F9B1021059343
:1030C800009300203B000D9AFFF786F88023060046
:1030D8001B01984208D30221174A1848184B03F0DD
:1030E8001BFF07B0F0BD3E00072322000C9C1D40CB
:1030F8001A40D2001734AD011543A01972021543C6
:1031080098430C9A0330120580081543FFF7BAFD5F
:10311800041E09D0002F07D00F9B310000930D9A91
:103128003B001030FFF758F82A002000039B029953
:1031380003F0D2FED5E7C04620820010DC7D0010E7
:10314800FF0700004068002804D0044BC01AC008DC
:1031580000B2704701204042FBE7C046BC7D00102A
:103168000EB417B5054C05AB04CB01002000019344
:1031780000F058FC1EBC08BC03B01847676F00106D
:1031880010B5CB0604D4890603D50349FFF7E8FF39
:1031980010BD0249FAE7C046598200105882001053
:1031A800F0B591B0079317AB1B7804000D00069299
:1031B8000593002B00D1B4E002261B9B1B9A1E40EE
:1031C80001231A400C921B9A07331A4008921B9A43
:1031D800F8331A400992002703F058FE0200B8425B
:1031E80004D020008D49FFF7BBFF0700002E09D04F
:1031F80044231B9A1A4235D12A0020008849FFF738
:10320800AFFF3F180C9B002B0AD0059A854B920004
:10321800D258002A00D1844A20008449FFF7A0FF31
:10322800099B002B5AD0089B002B77D11D00069BC9
:10323800002B05D01A0020007D49FFF791FF0500FB
:10324800189B7C48ED19002B00D0BEE01A9B002B80
:1032580074D11B9BDB0700D5DAE020001B99FFF730
:103268008FFFBEE00020744B1E688642C9D0734BA6
:1032780028001968FCF7A8FFFA253100FCF7E0FFE1
:10328800AD0069430A9008003100FCF7D9FF0E91A0
:10329800E1210D9009010A98FCF7D2FF0B910B98D8
:1032A8003C21FCF791FFE1210F9009010A98FCF7F6
:1032B8008BFF0A900E9831006843FCF785FF0D9B41
:1032C80002903C210B980193FCF7BAFF2000009173
:1032D8000F9B0A9A5A49FFF743FF92E7089B099DFB
:1032E800002B08D0059A574B920020005649D25817
:1032F800FFF736FF0500069B002B05D01A002000BB
:103308004B49FFF72DFF2D18079B002B98D01A006B
:1033180020004E49FFF724FF2D1891E7002307935B
:10332800E0E7079B4A48012B00D14248189B059DBE
:10333800002B4AD11A9B002B53D000251A9F102F1F
:1033480000D9102720001B99FFF71AFF0026B54265
:103358004CDC199B20001A783E49FFF701FF012633
:1033680007231E4203D120003B49FFF7F9FEB7426D
:1033780042D9199B20009A5D3649FFF7F1FE0136C4
:10338800102EEDD1002620003449FFF7E9FE330066
:10339800199AD25C1300203B5E2B00D92E22200004
:1033A8002F49FFF7DDFE0136102E2AD007231E42D3
:1033B80003D120002849FFF7D3FE3300B742E7D8EE
:1033C80020002549FFF7CCFEEDE7189B2200254990
:1033D80003F060FA1A9B002BB0D1059B002B00D09C
:1033E80037E7200003F0AFFD11B0F0BD20001A4907
:1033F800FFF7B6FE0136AAE720001B49FFF7B0FE2B
:10340800BDE7199BDB1919931A9BDB1B1A93E2E79B
:103418002000054A0549FFF7A3FE1EE76082001059
:1034280064820010647E00105B820010C684001065
:1034380089820010676F0010180700201407002009
:103448006D820010787E00108D820010938200102B
:103458008D6F001098820010A0820010A2820010C8
:10346800A48200102D3A00109E82001073B5114AF4
:1034780004000B000568914200D913000521684635
:103488000D4A02F061FE0600636828000B220B4912
:103498005B6803F049FD63683200280069465B6891
:1034A80003F042FD636828001B2205495B6803F0AE
:1034B8003BFD73BD0F270000B4830010C3820010CA
:1034C800A7820010012310B500211C00074A904272
:1034D80007D8074A002900D101231360054B18605B
:1034E80010BD210040085B00F1E7C04640420F00D4
:1034F800140700201807002070B50D0004004618B6
:10350800B44201D1280070BD217803480134836892
:103518005B689847F4E7C046E47B001010B5034A9F
:1035280003480021121A03F0A6FD10BD4808002028
:10353800D00000200648074A10B5121A064903F0C1
:103548009EFD064A06480749121A03F098FD10BD69
:1035580000000020D000002070860010000000202D
:103568000000002070860010F0B585B000AF0C1E7A
:10357800B86036D06E468AB06D4609686268A3683E
:103588002B6205232048A9616861EA612B61A121AA
:103598002A001E481032002389017A60F860FFF77C
:1035A800EBFCB546E168AD46226963692B620523E9
:1035B8001748A9616861EA612B61A12100237A6833
:1035C800F8688901FFF7D8FCB546E3690121114A7B
:1035D800F86803F0A1FCA36901210F4AF86803F019
:1035E8009BFCBB68012B07D1EFF305830B4A074807
:1035F800B968103B03F090FC2100B86801F0DCFDCD
:10360800BD4605B0F0BDC04609830010F47D00102A
:10361800388300106783001076830010A48300109D
:1036280030BFFDE7F7B50A4B0A4D0600EF18CC1B73
:103638002A0020000849019304F0DBF960190021F1
:10364800019A04F0DFF93800083C74660830FEBDC2
:1036580004000000000000001C7E0010054B5A69A1
:103668009B689A4205D08023034A5B0551680B4347
:1036780053607047F407002000ED00E0F0B53E4BC2
:103688008BB05B6800AF7B60DB05DB0D04003B6043
:1036980062B6BFF36F8F394E130EFF2B08D1F33B81
:1036A8001340082B3DD101213000354A03F02DFC91
:1036B80000252C003B68032B39D1324A0121300008
:1036C80003F023FCA369304A934202D32F4A934262
:1036D80005D32F4A934249D32E4A934246D2023BFE
:1036E8001A882D4B9A4241D12368012130002B4A78
:1036F80003F012FC266808232022F818210004F0A1
:1037080078F97B6A002D33D0DA0502D1244A1343B5
:103718007B6208233000F918FFF726FFBD460BB07F
:10372800F0BD01251207C5D50C000025C2E7F82217
:10373800796852001B4B114200D01B4B6A468AB075
:103748007A606A4693613B681849103BD3618023CD
:103758009B001384164B51611361912100233000A3
:1037680010328901FFF708FC7B689D460026C2E7F6
:103778005B0A5B02CCE7C04600ED00E0F47D001078
:10378800E583001010840010A80100105C7B001075
:10379800000000200000002002DF00002784001045
:1037A800FF010000B7830010CC8300104384001091
:1037B800040000010821024A53698B435361704792
:1037C80000ED00E0EFF30880EFF3098101B57246E0
:1037D800FFF754FF01BDC046094880F3088872B658
:1037E80008480949401880F30988EFF3148002213A
:1037F800084380F31488BFF36F8F03F056FC000072
:1038080048180020480B00200008000010B50A4B9B
:103818009B6883420DD1EFF30583002B09D08022EA
:10382800064B520559680A435A605A6A04490A40C5
:103838005A6202F055F910BDF407002000ED00E0CF
:10384800FF7FFFFF15498A6815481044EFF3098C7C
:10385800F0C043464C4655465E466746F8C072B6C9
:10386800104F114E4A698A603E60104C1419206846
:103878000F4C2060906E00239366002800D162B63A
:10388800074C10191030F8C89846A146AA46B34606
:10389800BC462438F0C88CF309887047F407002028
:1038A8003000000004ED00E00000000864000000A3
:1038B8004007002004207146014202D0EFF309803E
:1038C80001D1EFF308808169023909780229FFD014
:1038D80001B5724603F0D7FB01BDC04643B20006EE
:1038E80005D41F221A4001239340014A13607047F0
:1038F80000E100E030B5FF2503220B00290040B2AB
:103908000240D20091409B012B40C94393400028BC
:103918000ADBC0240A4A800880008018A4000259E3
:103928000A401343035130BD0F2210400838054A9E
:10393800800880008018C26911401943C161F2E70C
:1039480000E100E000ED00E0FF22044B9343044A4D
:103958009360BFF34F8FBFF36F8F70470001001064
:1039680000ED00E010B5203A1360029B012453607B
:10397800039B06499360049BA143D36080235B04A7
:10398800D361002391610265836610BDD5290010BB
:1039980070B50B4B15009860426E0A4B0E001A600A
:1039A8002C1C86F309880020034B9847201C002113
:1039B80000220023014C2047CF700010D5290010A9
:1039C800F4070020400700201022014B1A617047BD
:1039D80000ED00E0F0B5C02400220326FF25A40076
:1039E80010002F003040C0008740054993089B0015
:1039F8005B1819590132B94319511A2AF0D1F0BD8F
:103A080000E100E010B5EFF30583054A103BDB0049
:103A1800D118496898588847FFF720FE10BDC0465E
:103A2800387C0010F0B587B007000E0014000021A4
:103A3800102268461D0003F0E5FF6A4602239370D2
:103A4800054B2A002100684601930497059602F069
:103A5800A5FB07B0F0BDC046EF70001010B5024BD3
:103A68001B689847002010BD44070020034B044AF8
:103A78001860022391780B43937070474407002025
:103A88001000002010B5044802F05FFF62B6BFF3D3
:103A98006F8F0423181C02DF56840010072310B50B
:103AA8000449054A99430548521A02F09DFE002030
:103AB80010BDC0464F1800200020042048070020F1
:103AC80049B24368102916DC0A290BD00B2910D0FB
:103AD8000C224A431B689B18802292019B18802263
:103AE800120103E09B68054A9B182D2200201A60EA
:103AF8007047DB68F7E716204042F9E7043000001A
:103B080049B24368102916DC0A290BD00B2910D0BA
:103B18000C224A431B689B18C02292019B188022E2
:103B2800120103E09B68054A9B182D2200201A60A9
:103B38007047DB68F7E716204042F9E704200000E9
:103B4800802310B5084A5B041360084A94691C4234
:103B580002D01620404210BD016092691000184042
:103B68001A42F8D0F5E7C046183006400000064073
:103B7800030010B508000B2907D8FCF71BFB09093F
:103B880009091220282C2C2C33330120404210BD67
:103B98001A680C234B439B58134ADB051B0FD0565E
:103BA800F5E7124A0E201368116803220C0014402E
:103BB8001142ECD00E4A0238022CEED1E7E70D4A4A
:103BC8000420136812689207E1D00B4AE5E70B4B13
:103BD8000B4A1B68E1E70C234B430A4A9B181B68F6
:103BE800094ADAE70C20D2E77584001030800040DB
:103BF800728400103C8000406C84001048800040B3
:103C080065840010008000405F840010F8B506004D
:103C18000C00756821002800376903F06FFA002846
:103C280000D16DE00E2C00D96AE02000FCF7C2FA42
:103C38000808080808082A08080830306A62660078
:103C4800210028002F68FFF793FF01003000FFF7DD
:103C5800DDFF0C236343FB185E68051C5868C0B27F
:103C6800FCF768FF2849FCF72BFD041C300AFCF719
:103C780061FF011C201CFCF7AFFB011C281CFCF792
:103C88001FFDF8BD06212800FFF772FF0400C0E7FA
:103C98000A2C2DD1AF6821002800FFF769FF010029
:103CA8003000FFF7B3FF061CB868FCF743FF311C70
:103CB800FCF7E8FD061C3F203D68FC682840FCF73F
:103CC80039FF011C301CFCF7FBFC0725061C200CE7
:103CD8002840FCF72FFF011C301CFCF7F1FCFF68A3
:103CE800041C380B2840FCF725FF011C201CC6E7E4
:103CF800EF68D0E73868FCF71DFFC2E77868FAE795
:103D08000020BEE70148BCE700007F43001B374B9B
:103D1800F0B544688FB0A36822220393E3685F4933
:103D280005A804932568276903F063FE5C4B5D4A88
:103D38001A605D4B5D4A13601E005D4A1268964327
:103D4800FAD10C21300001F049F9AE6701F032F9DF
:103D58000321584BDA6B8A43DA635A6C012AFCD187
:103D680003211A6B8A431A639A6B012AFCD1E26910
:103D7800514B03985A43636A0093236AA16901F07F
:103D8800B3F8E26A4C4B04985A43636B0093A16AF8
:103D9800236B01F0A9F8112105A803F0F9F97300C4
:103DA80005AA9956C8B2092867D90136112EF6D145
:103DB800C0239B01EA1880231B0113603F4A380087
:103DC800AA1813603E4A1430AA1813603D4AAD1869
:103DD8002B602300AA25D83319682D012943FFF742
:103DE800AFFE002855DB2300DC331B68364938005A
:103DF8001943FFF7A5FE00284BDB2300E0331B68BF
:103E0800002B48D029001F2B00D859193800103032
:103E1800FFF796FE00283CDB2600E43631682B4D80
:103E280089B22943381DFFF78BFE002831DB3800A3
:103E380031680830090C2943FFF782FE002828DB87
:103E4800234B1A4A13601A4B1B68DB43DB01DD095D
:103E5800002BF8D12900606902AA03F0C8FA0028EB
:103E680007DB029B2A001979186803F0D3FA0028A7
:103E780001DA831C0DD100200BE0090161180B6CDD
:103E880000934B6CCA6B896B03F016FC00288CD12D
:103E980016380FB0F0BD0F49B8E7C0461C7E0010B9
:103EA80000E00040BFCDFBFEFE7F3C0000F000407C
:103EB80008C0004000800040001BB7000C30000024
:103EC800183000002430000000B0FA000000969678
:103ED800FFFFFF01A10A000010B5084803F03EFCEF
:103EE800002808D0064C2000FFF7C0FD2000FEF790
:103EF80067FD002010BD13204042FBE7E47B001063
:103F08000D3F001070B50400074D0A2804D1AB68B6
:103F18000D2128005B689847AB6828005B68E1B210
:103F28009847200070BDC046E47B0010D0231B06D4
:103F38001B685A4253412F225B429343064A9B18FF
:103F48001A001068002804D10432D11A0C29F8D9B3
:103F580070470120FCE7C04650410140F7B50369AE
:103F680007000193D0231B061C68002563425C41AF
:103F78002F2364429C43184BE418EB081A000832BC
:103F88009200115907222A409200D1400F20014285
:103F980003D101351E2DF0D1F7BD0F2191403C33DF
:103FA8000E4A9B009950019B59680029F1D00123C2
:103FB800AB400E6800930029EBD08B68009A0098FC
:103FC8001A40034202D038004B689847331E00D08D
:103FD800336831001E00EEE73041014000400140E7
:103FE800F8B50D00141E066910D11100280001F063
:103FF8002DF8284BAD00EB181A6880235340C022D7
:104008001340254AAD182B600020F8BD012752093E
:10401800210928003A40394001F018F80521280004
:1040280000F0FCFF802321005B0219401C421AD0DB
:10403800D023AF401B069F62A303E5D501200300F0
:10404800F268AB40A10719D51A43F260D022316952
:10405800120665070BD519433161A40C936104421C
:104068000AD05362D0E7280001F088F8E4E79943C2
:104078003161E40C5361F2E79362C5E79A43F26059
:10408800D0221206210301D55361EAE76403E8D57B
:104098009361E6E704C0014004D0014070B543686D
:1040A80002690807400F01381C68116203284DD8BF
:1040B800FCF780F8022131411025585F254D401941
:1040C8002500A0352E680736864201D328680830B7
:1040D800508612201B5EF533FF332868053098425E
:1040E80001D32B68063300209BB21386236C102360
:1040F8000B43136270BD1025585F25006D30A03545
:104108002E680736864201D3286808305086122068
:104118001B5E5D33E1E71025585F2500A0352E684A
:104128001F300736864201D328680830508612208F
:104138001B5E1F33D1E710003D300078002805D002
:104148001025585F25006D30A435D9E71620404268
:10415800CCE7C04671020000F7B54768060005695C
:10416800B869002808D10021786901AA03F03FF94D
:10417800041E0ADA2000FEBDF9698368DB68002B9B
:104188005AD09847041EEED0F4E7019B0022197913
:10419800186803F03FF9041EECD1012201005242D5
:1041A800280003F0F3FA012228001100103003F070
:1041B800EDFA012173681B68DA6E8A43DA66DA6EF3
:1041C80003318A43DA661A00FC3211681B4A9142AD
:1041D80002D005246442CDE706221B683000134054
:1041E800063B5A4253412A003D3213707B68984778
:1041F800BA68134906238A4209D013D81149043BE7
:104208008A4204D0104BD3185A4253419B001021C4
:10421800194330002962FFF741FF041ED9D1343514
:104228002870A7E7094908238A42F0D008490233D1
:104238008A42ECD02300EAE75824CBE740015744F0
:1042480040420F00A086010080E5F9FF40E13300FD
:10425800404B4C00F0B5036987B000AFBB604368C2
:10426800BC681B680600FB60FA68DB6A803212686B
:104278003B617A6134345B0679D501231A423ED01A
:1042880022781F331343237003F04FFB0A220023C5
:10429800FCF750F86B4B050018007B6003F09BFBA4
:1042A800694B01002A1A694838609A4200D8C0E070
:1042B8002A00786803F062FB002800D1B9E00021E9
:1042C800386803F08AFB031E05D0614D01212800E0
:1042D800604A02F021FE6D4688B033686A469361F1
:1042E80080239B005C4993835C4B51611361E221FD
:1042F8000023574810324901FEF73EFEAD46BB7D0C
:104308009B0717D5802223786D461343237088B006
:1043180033686A46936180239B00514993834F4BCE
:1043280051611361E2210023494810324901FEF727
:1043380023FEAD46BB7DDB0717D5102322786D46DB
:104348001343237088B033686A46936180239B00C7
:1043580044499383414B51611361E22100233C4856
:1043680010324901FEF708FEAD46FB685B6D40233D
:104378007A7C1A4216D02278134323706C4688B090
:1043880033686A46936180239B0037499383334B94
:1043980051611361E22100232D4810324901FEF7D3
:1043A800EBFDA5461B220024BB6834331B789343DE
:1043B800A3423AD003F0B9FA0A220023FBF7BAFF66
:1043C8002A4B05001800FB6003F005FB1E4B01009B
:1043D8002A1A2748B8609A422FD92A00F86803F0A9
:1043E800CDFAA04229D02100B86803F0F6FA184C9B
:1043F800031E04D001212000164A02F08DFD6D46EF
:1044080088B033686A46936180239B001949938377
:10441800124B51611361E22100232000103249013F
:10442800FEF7AAFDAD46052464422000BD4607B04C
:10443800F0BD386802F0C8FF61E7B86802F0C4FF51
:10444800F1E7C046740700208713000070070020BA
:10445800D47D0010AA840010BE840010030000015F
:10446800C9840010DD840010EE8400106C07002061
:104478006807002002850010F0B5436885B01B6806
:1044880006000193DB6A04690393019B1B68DB0741
:104498001ED5814A0399042311421BD0343423705A
:1044A800FFF7D8FE0022736830691B681A631B6C1B
:1044B80073681B7B5BB2934208DB1F3213401E3AC2
:1044C8009A401300C022754952008B5000F0E8FF53
:1044D80005B0F0BD6A46157B039A08271A420DD12C
:1044E80010210D422CD1039B9B05F1D5019B1B6E1E
:1044F800D8E73000FFF7AEFE0028F1D1019B1B6F13
:104508003B4213D0A36A002B10D0019B626A1B693F
:10451800DBB21370636A01336362A36A013BA3626F
:10452800E36A013BE362A36A002BE2D1A36A002B92
:10453800D6D122000221343213788B431370CFE78F
:10454800220073683C321F68012310789C46356945
:1045580018424AD1AB6A002B13D13B6B34358B43DD
:1045680061463B632B788B432B70A36A002BBAD12F
:1045780013789B07B7D495E73000FFF76BFE002848
:1045880031D102223B6F134205D1A36A002BAAD175
:104598003C342378EDE7AB6A002BF6D029000420E1
:1045A8006B6A3C311B780A78DBB2024205D0802066
:1045B800C0000343042082430A70AA6A012A08D172
:1045C8002A0002213C3212780A4202D0802292004C
:1045D80013433B61AB6A013BAB626B6A01336B62AD
:1045E800FB6A5B06C8D5A36A5CE7AB6B0293002B3A
:1045F80003D13B6B8B433B63B7E73A00F432126855
:10460800BB6F11049446EA6A090E01319A188A1A96
:1046180007D5A36A002B00D065E7800700D562E7BD
:1046280040E7029B786F8B4200D90B006146090274
:10463800090E0131091A914200DD110002919942D7
:1046480000DD0293029B002B9FDD2A0004213C32EF
:1046580013780B421CD08B431370A023DB0002217C
:1046680012780A4205D0AA6B012A02D18022920050
:10467800134330003B61FFF7EDFD002885D1EB6A5D
:104688000133EB62AB6B013BAB63029B013BD8E7A9
:1046980080235B00E3E7C0464B40000000E100E0F8
:1046A800F0B5002585B00600009101920393AA4257
:1046B80000D106E1436804691F68230010330293A0
:1046C80001225242D317029800F01CFF051E00D0A9
:1046D800F7E025002F2234352B78934306D0306934
:1046E80002F050FE002800D0EEE02870300002F002
:1046F80070FE1025002812D12200082334321178C8
:104708000B4313700122736831691B68DD6E954392
:10471800DD6618630D6A186CE80602D416256D422A
:10472800C7E09026612036013043154201D0182297
:10473800104307226D082A406E0778D406263542B2
:1047480000D083E0012AE9D14D8E9D610D8E5D6117
:1047580006255200A8431043002218609A63DA63C2
:104768005A681868C00777D50398920A8005800DA3
:1047780092020243096AC80604D5C9076FD5802189
:1047880049010A435A600122FB6E1343FB66009AF3
:10479800009B52681B68002A04D1002B02D001211B
:1047A800009A5160220000203C3211786362009B1D
:1047B8005B68A362009B1B7A13705940E06201306A
:1047C800014202D004210B43137026000321343622
:1047D80033788B43337001231278023913400A422D
:1047E80040D132780A4332700122A3633B681342F6
:1047F8003ED0364B3B63FA2200232000920000F0A3
:1048080081FE051E37D03B68DB0708D50223FA6E08
:104818001343FB660A220023200000F073FE0023E6
:104828003B633B6C200000F093FE742577E7042A75
:1048380000D073E70A003D321278002A00D16DE7F4
:104848004A8E9A620A8E5A62032281E74A8E1A6257
:104858000A8EDA6102227BE7039898608AE71C498E
:104868000A408FE70223327813433370A36ABBE709
:1048780098239B00BEE70422337813420DD1A36A24
:10488800002B0AD133781732934308D033783F2B63
:104898001AD8242332781A420BD005253FE7009B0B
:1048A8000C330093019B013BDBB20193002B00D03A
:1048B8006DE72F223434237893432370029800F055
:1048C800EFFD280005B0F0BD3E2528E75F02000097
:1048D800FFEFFFFF01208840034B1B680340591E70
:1048E8008B4100201370704700C0004001238B40AB
:1048F800014A00201360704700E0004001238B400C
:10490800034A0449136018000A689043FBD17047B2
:1049180000F0004008C0004001238B40044A0549CC
:104928001360054A136018000A689043FBD170476A
:1049380000E0004008C0004000F0004010B54368A7
:1049480000691B68007A1A6B002803D107480240E7
:10495800824208D19C69102220001040144202D1E2
:104968001B680B7010BD01204042FBE701020000EC
:10497800436803491A68936B0B4093637047C046BA
:104988007FF8FFFFF0B5436889B00693036901918A
:104998000593069B07921B6805000493059B1B7AE9
:1049A800002B00D090E0002A0BD001221021049B9C
:1049B8001B6B9343049A136343681A68D36A8B4347
:1049C800D362049BDC6AEE239C43019B1B79012B79
:1049D80006D0022B16D0002B04D0862040425CE083
:1049E80002231C43019B5B79012B03D0032BF4D1D9
:1049F80005331C43019B98790328EED8FBF7DAFBB3
:104A0800060413150623ECE720231C43019BDB79DE
:104A1800002B0CD0012BE0D16B681A68C023116BF6
:104A28001B020B4308E04023EFE76023EDE76B68C8
:104A380027491A68136B0B401363059B402676427F
:104A4800F717D868019B810E1A68800100231201AC
:104A5800FBF770FC03910290029A039BB6185F4122
:104A680069680968002F2DD11A4886422AD8039B05
:104A7800029A9806029B9B0903434B623F231A4004
:104A88008A62BFF35F8FCB6A0822CB62049B0199CD
:104A98000598DC6202F0ADFF3800079B002B0FD0B1
:104AA800069B1B7F002B05D16B681A681023D16AFF
:104AB8000B43D3626B681A680123116B0B431363B2
:104AC80009B0F0BD162089E786204042F8E7C046C5
:104AD800FF3FFFFF80FF3F00F0B54568040007690E
:104AE800A8682E6885B0002857D1286900285ED1AB
:104AF8003B7A0193002B31D11900686803AA02F0B0
:104B080076FC002851DB039B019A1979186802F09A
:104B180081FC002849D16B6A002B01D020009847FE
:104B2800012163681A68136B8B43136363680F3141
:104B38001A68D36A8B43D3622B6A002B48D10022B0
:104B480039002000FFF71EFF102373632A7F002A15
:104B580004D162681268D16A0B43D3620023B3633D
:104B6800234B73643B7A002B0DD1B364BFF36F8F73
:104B78000222336B93433363C023326B9B0013438E
:104B88003363BFF36F8FAB692000984701233A7AEC
:104B98003B74002A22D0002007E0E9688368DB68BC
:104BA800002B21D0984700289FD005B0F0BD83681E
:104BB80069691B68002B00D098473A002869696921
:104BC80083680C32DB68002B00D191E798478FE7A8
:104BD8002000F96898470028B1D0E6E762681268B3
:104BE800116B0B431363D6E758204042DDE7C046FC
:104BF800FF07000070B580251049114B8C681B68B1
:104C08000E6810488A686D02002C08D1002A11D15C
:104C18001A002E4209D100681818801A70BD002A9F
:104C28000AD02E4201D1A242F5D90468E4180460E2
:104C38000968F0E71C00F4E71A00F2E710E000E06A
:104C4800C8070020C40700200020084A136A1B0276
:104C58001B0A1362064B074A1A60074B074A18607B
:104C6800074B5A60072298601A60704700ED00E011
:104C7800C8070020D4300000C4070020D33000004B
:104C880010E000E0F8B50024FFF7B4FF0F4E230052
:104C980031680F4D0A0028686968801859412860F2
:104CA80069600C4D34600C492E686F68801BFBF7F7
:104CB8008BFA0949230041430A0092197B412A6073
:104CC8006B6001F001F9FEF7C9FCF8BDC4070020CC
:104CD8008805002080050020D4300000F0B53B4B4B
:104CE8003B4D87B000295FD0421C08D101212A68BA
:104CF8008A432A60FF2212061A6007B0F0BD1B68BB
:104D0800039300230293012853DCEFF310830593E8
:104D180072B6FFF76FFF00221100AB6804932D4BAA
:104D28001E685F6836184F413000390018605960B6
:104D3800294B009601971A60284B1C68009B1B1B87
:104D480093423DDB264F0298264A78438018C018C4
:104D58003900FBF739FA009B7843E41A80232018BE
:104D6800DB00984200D218001F4B984200D9180067
:104D7800164B184918600138AB6868600020A860B5
:104D8800049AD41A9A421ED2039D621903000C6831
:104D98004D6812196B410A604B60059B002BACD122
:104DA80062B6BFF36F8FA8E71B680393431CA8D1B3
:104DB8000E480F4B984200DD1800431E0293A4E7EB
:104DC8008020C000D4E72200E0E7C046C8070020E2
:104DD80010E000E088050020C407002080050020BE
:104DE800D4300000D330000084C6FF003D05000029
:104DF8003E05000070B5EFF3108572B6084A094BFE
:104E080014681B68E41AFFF7F5FE0019002D02D19B
:104E180062B6BFF36F8F0449FBF7D6F970BDC04681
:104E28008805002080050020D4300000F7B50C2448
:104E3800444301932A4B0092E4186368089A0500DA
:104E48000E00934200D26260C0232F1F9B01FFB265
:104E5800E318012F1BD8012E19D103221A60A36869
:104E68003342FCD0009B22685B015340E022134090
:104E780080225201A21813600321236873400B405B
:104E880013600123B340A2681342FCD01BE08022C8
:104E980012011A60134BAA00D158002907D058698B
:104EA800FBF792F9431C032058430338FDD2009BBB
:104EB80022685B015340E022134080225201A2186D
:104EC8001360012FD8D9802380229B01E318120197
:104ED8001A60089B019A6360024BAD00EA50F7BD67
:104EE80000800040CC070020F8B5170004002948CE
:104EF8000D001E00FBF768F9274B0100FA18274B35
:104F08009A4201D902F0ECF83800FBF75DF902008B
:104F18009823103A5B009A42F4D8731E062BF1D8F6
:104F2800069B013B062BEDD8069B32041E03236823
:104F38001643002B0FDA3F2223681340AB420AD1F5
:104F4800A3681B051B0D834205D1EE22E368D2023C
:104F58001340B3421CD0124B1249E21853425A4133
:104F680001230C329340104A1360104A13601F004B
:104F78000A6897433A1EFAD10D4B2132E31825608F
:104F8800A0601A602268002AFCDA0822E6601A602B
:104F9800F8BDC046001BB70080E84BD380F8A932A3
:104FA8000040FDBF08C0004000E0004000F00040A5
:104FB80004300000AA22064B12011A608D2252000A
:104FC800DA600449044A11605A68002AFCDA70471A
:104FD8000040024000B0FA00006002408023024A0C
:104FE8009B000B43D36270470080054030B507250E
:104FF800C4082840800081402000074D3C308000D4
:10500800A40041511B19002A04D0802292019B1848
:10501800196030BDC022F9E70040014010B5084BC7
:105028008200D3181C6840236340C0242340054CE9
:10503800C00012191360044BC018416010BDC0466F
:1050480004C0014004D0014000400140064B8000EC
:10505800C3181B68C90092000A435A400C231A401F
:10506800024BC0180260704704C0014004D00140E0
:10507800064BC000C3181B6809075940C0239B058D
:105088001940034BC01801607047C04604400140F6
:1050980004500140064BC000C3181B68090459405E
:1050A800C0239B021940034BC01801607047C046DB
:1050B8000440014004500140064BC000C3181B685F
:1050C80009025940C0239B001940034BC0180160D6
:1050D8007047C0460440014004500140064BC000E0
:1050E800C3181B6809035940C0239B011940034B8F
:1050F800C01801607047C046044001400450014098
:1051080002238000002903D0024A801803607047F8
:10511800014AFAE704E0014004F00140054B800031
:10512800C3181B68594001231940034BC01801607C
:105138007047C04604C0014004D00140054B8000C0
:10514800C3181B680901594030231940024BC01885
:105158000160704704C0014004D00140D02310B55D
:105168001B061B685C4263412F245B42A343024C2D
:105178001B19FFF73BFF10BD304101404023800061
:10518800002903D0024A801803607047014AFAE7F1
:1051980004E0014004F0014010B50400FDF7E6FD0D
:1051A80003480121034A01F0B0FE200002F0E3FAAF
:1051B800F47D00104C850010F0B585B005000C009A
:1051C80000AFEFF310837B6072B62D4A9368FB60E3
:1051D8002C4B042802D82C4B8100CB586E468AB041
:1051E800117C6A46D361294B29489384294B506125
:1051F800956111621361B121274B1032BB60B86809
:1052080000238901FDF7B8FEB546002C07D0E369F5
:10521800DB0504D00121214AB86801F076FEFB685D
:10522800002B07D0180002F0C7FA002802D0037834
:10523800002B00D11A486E468AB06A46194BD061D5
:105248005361FB689361114B1384174B13619121D0
:105258000023114810328901FDF78EFE2100B54662
:105268002800FFF799FF7B68002B02D162B6BFF3D5
:105278006F8FF868FEF7CAFABD4605B0F0BDC046A4
:10528800F40700205B850010108000100103000067
:105298007185001005000001F47D0010998500104B
:1052A80069850010BA85001004000001F8B50127CF
:1052B8000A4E83009D59013084003359AB4200D80F
:1052C800F8BD6868002806D0037E3B4201D102F091
:1052D8002CFA0835F1E72B689847FAE72480001084
:1052E800012270B5234B032086B01A70FFF7DEFF4A
:1052F80000F022FF0420FFF7D9FF1F4C26001F4DA6
:10530800AC420ED300F0E0FAAE4220D300F0ECFA43
:10531800FCF700FC01211A4A137B8B43137306B078
:1053280070BD636A0593236A0493E3690393A369D1
:1053380002936369019323690093E368A268616833
:10534800206800F039F923685C653034D7E7B26A21
:10535800F36A511C01D1591C05D01100306819435A
:1053680003D100F097FB3036CEE70649183000F03D
:105378001BFDF8E744080020087D0010087D001098
:1053880000060020A978001070B5702601250400D9
:1053980046430102114880220918002086B004956E
:1053A8000E350395053565430D4B05900290019028
:1053B8000C48F6182D180C4B30000095520000F0E0
:1053C800FBF80422737B2C74934373730134074BEB
:1053D800E402E418EE606C6006B070BD481300206B
:1053E80090050020F407002087770010480B002064
:1053F800F0B5002087B0FFF759FF204B83F30888EA
:105408001F49204B0A6A00251A40C0231B04134376
:105418000B62FEF7CFF9FEF7D7FAFDF70BFC1A4837
:1054280000F030F90120FFF741FF0220FFF73EFFAF
:1054380000F08AFA154C164B80225C61154B164E0B
:105448000593012315490493D200330020000395E6
:1054580002950195009500F0AFF804220700637BE0
:1054680020009343637302F0E5F92800FFF78CFFEF
:10547800320039002000FEF78BFAC046481300209E
:1054880000ED00E0FFFF00FF70060020000600208E
:10549800F40700201C860010E95200104814002070
:1054A80070B5EFF3108572B60468A0421AD0002CCC
:1054B80018D062682368002613605A600222200010
:1054C800637B2660934363736660A660183002F0BE
:1054D80002FA2000E66602F0ADF92900084800F05B
:1054E800C7F970BD8268C3689B1A591E8B419B1807
:1054F8008360002DF5D162B6BFF36F8FF1E7C04628
:105508004508002013B50400EFF3108172B68068D7
:10551800002808D00138A060002902D162B6BFF384
:105528006F8F002016BD1000184307D1002902D143
:1055380062B6BFF36F8F10204042F3E700920193E9
:105548002200024800F078F9ECE7C0464508002040
:10555800F8B50500EFF3108672B6002302272C6811
:10556800A54218D0002C16D062682368200013606A
:105578005A600023627B2360BA4363606273A3604E
:10558800183002F0A8F90B235B42E366200002F012
:1055980051F90123E3E70022AA60934204D03100C5
:1055A800044800F065F9F8BD002EFCD162B6BFF3DF
:1055B8006F8FF8E745080020F0B587B00593030022
:1055C80058338365C365109B07270373042300259D
:1055D8000732BA434373D2190F9BBA4383738B18AC
:1055E8000E0085601900C5738561C56104000493C8
:1055F800FEF718F8049BC019B8431F1A0E9B3A000F
:1056080002930D9B310001930C9B20000093059B96
:10561800FEF7A8F9044B65659B68AB4200D01B6E8A
:105628003800236607B0F0BDF407002070B5040009
:10563800002086B005900E98119D04900D98109E3C
:1056480003900C9802900B9801900A980090200003
:10565800FFF7B2FF2B00721C01D1013305D02B00DC
:10566800334305D1200000F015FA200006B070BDC4
:10567800200032002B000249183000F095FBF4E7B7
:10568800A97800100223FF33838100230366014BAE
:1056980098607047F40700200B21084A4942936834
:1056A800D9669866802306495B05486803434B60C2
:1056B80062B6BFF36F8F9368D86E7047F407002007
:1056C80000ED00E00D2370B5C356427B002B38DB9C
:1056D800D30636D180235B4213431B4C4373A36923
:1056E8001A49E2698B4207D1016042601060E061AB
:1056F80011E09A42F8D01B68002BF5D00E250E2633
:1057080045579E57B542F4D0AE42F2DD5A68036061
:10571800426010605860A5698D4201D0002D00D10B
:10572800E568A3685A7BD20605D1DA897F2A02D9AF
:10573800AA69002A06D0AB4202D0280000F09AFAE3
:10574800656170BD6361FCE7F40700200C08002068
:105758000D2270B582560500437B002A04DA7F22A9
:105768001340437302F02AF80D4E0E4AB469B36829
:10577800944201D0002C00D1F468AB4208D05A7B87
:10578800D20605D1DA897F2A02D9A269002A05D072
:10579800A34202D0200000F06DFA2300736170BDAF
:1057A800F40700200C08002010B5511C01D1591C29
:1057B80003D00249183000F0F7FA10BDA97800109C
:1057C80070B51B4CA168E3690A68CB1A581E83415F
:1057D80049685B420A6051601340E169A268002B86
:1057E80005D1144B516013600A60E2610CE00E2091
:1057F8000E2510565D57A84215D0854213DD59680D
:10580800136051600A605A60A5690A4B9D4201D035
:10581800002D00D1E568A3689D4202D0280000F061
:1058280029FA656170BD9942DBD01B68D7E7C0468D
:10583800F40700200C08002070B50C0011000A4A7B
:105848000A4B90681860EFF3108372B695682800C9
:1058580001F0C7FF049A059B2800FFF7A5FF200069
:10586800FFF71AFF70BDC046F40700201408002097
:1058780010B500290AD1EFF30580002807D1064B9F
:105888009A685B699A4202D0FFF706FF10BD62B6BC
:10589800BFF36F8FFAE7C046F407002010B5002861
:1058A8000AD1EFF30580002807D1064B5A699B6897
:1058B8009A4202D0FFF7F0FE10BD62B6BFF36F8FB9
:1058C800FAE7C046F4070020EFF3108172B6054BE3
:1058D8009A68D37B013BD373002902D162B6BFF328
:1058E8006F8F7047F407002070B5EFF3108672B61B
:1058F800134DAB68DA7B0132DA73AC69114A944212
:1059080001D0002C00D1EC685A7BD20605D1DA8987
:105918007F2A02D9A269002A05D0A34202D020001A
:1059280000F0A8F923006B61002E02D162B6BFF324
:105938006F8FEFF3108072B6FFF7B0FF70BDC046EF
:10594800F40700200C080020024B034A9A61DA6130
:105958007047C046F40700200C08002070B5EFF32C
:10596800108572B61C4CA168E3690A68CB1A581EE8
:10597800834149685B420A6051601340E169A2684B
:10598800002B05D1154B516013600A60E2610CE0F1
:105998000E200E2610569E57B04218D0864216DDAD
:1059A8005968136051600A605A60A6690B4B9E42A1
:1059B80001D0002E00D1E668A3689E4202D03000D4
:1059C80000F058F928006661FFF766FE70BD8B424B
:1059D800D8D01B68D4E7C046F40700200C08002084
:1059E800F8B5030007000C000B4303D1FFF7B6FF1F
:1059F8000020F8BDEFF3108672B6134D134BA8685C
:105A08001860FFF7A5FEA86823003A00104918306F
:105A180000F0CAF90423AA680400517B30000B4344
:105A28005373FFF739FEAB689A6A002AE0D18022E7
:105A3800DB6A12069342DBD101F073FF201AC343DD
:105A4800DB171840D5E7C046F407002014080020EB
:105A5800A978001070B504000D00FFF7C1FF010020
:105A68002000631C01D1013510D00A00CB17092092
:105A78000021801859410A220023FAF75BFC00290B
:105A880003D180231B06984200D3014870BDC0464D
:105A9800FFFFFF7F70B50400EFF3108572B6042690
:105AA800437B33420DD0183001F015FF637B200093
:105AB800B3436373FFF706FE29000548FFF7D8FED6
:105AC80070BD002DFCD162B6BFF36F8FF8E7C046FA
