:020000041000EA
:1000000000B5324B212058609868022188439860DF
:10001000D860186158612E4B002199600421596104
:100020000121F02299502B49196001219960352056
:1000300000F044F80222904214D00621196600F024
:1000400034F8196E01211966002018661A6600F04E
:100050002CF8196E196E196E052000F02FF8012189
:100060000842F9D1002199601B49196000215960AB
:100070001A491B48016001219960EB211966A021F2
:10008000196600F012F800219960164914480160C1
:100090000121996001BC002800D000471248134993
:1000A000086003C880F30888084703B5996A0420EC
:1000B0000142FBD001200142F8D103BD02B5186610
:1000C0001866FFF7F2FF186E186E02BD00000240BE
:1000D000000000180000070000035F00212200005C
:1000E000F4000018222000A00001001008ED00E03C
:1000F000000000000000000000000000070B8FD58A
:10010000C80F002049190010B9410010351900101E
:1001100000000000000000000000000000000000DF
:10012000000000000000000000000000251A001080
:100130000000000000000000B5190010BD250010EF
:10014000751B0010751B0010751B0010751B00102F
:10015000751B0010751B0010751B0010751B00101F
:10016000751B0010751B0010751B0010751B00100F
:10017000751B0010751B0010751B0010751B0010FF
:10018000751B0010751B0010751B0010751B0010EF
:10019000751B0010751B0010751B0010751B0010DF
:0801A000751B0010751B001017
:1001A80002B4714649084900095649008E4402BC08
:1001B8007047C04602B4714649084900095C4900C5
:1001C8008E4402BC7047C046002934D00123002267
:1001D80010B488422CD301242407A14204D28142BE
:1001E80002D209011B01F8E7E400A14204D28142CE
:1001F80002D249005B00F8E7884201D3401A1A434B
:100208004C08A04202D3001B5C0822438C08A04281
:1002180002D3001B9C082243CC08A04202D3001B37
:10022800DC082243002803D01B0901D00909E3E7B1
:10023800100010BC704701B5002000F00BF802BD9B
:100248000029F8D003B5FFF7C1FF0EBC4243891A55
:100258001847C0467047C046D0400B00D1409C4666
:10026800203AD3401843524263469340184370479C
:100278001C2101231B04984201D3000C10391B0ACE
:10028800984201D3000A08391B09984201D3000992
:10029800043902A2105C40187047C04604030202E9
:1002A8000101010100000000000000004142084077
:1002B8001C2101231B04984201D3000C10391B0A8E
:1002C800984201D3000A08391B09984201D3000952
:1002D800043902A2105C401A7047C0461B1C1D1D41
:1002E8001E1E1E1E1F1F1F1F1F1F1F1F002B11D189
:1002F800002A0FD1002900D1002802D00021C943CB
:10030800080007B4024802A14018029003BDC04685
:1003180045FFFFFF03B4684601B5029800F0CBFB28
:10032800019B9E4602B00CBC7047C0464A02F8B515
:1003380043024400C50F500A84464800240E000EAC
:100348005F0AC90F9B099209261A8D4200D09EE0C8
:10035800002E42DD8021C90400281ED1002A0AD0BF
:10036800661E012C05D19B1801340B4246D1013C75
:1003780001E0FF2C14D15A0704D00F221A40042A96
:1003880000D004335A0100D42EE101340026FF2C9A
:1003980019D09D4EDB081E4015E0FF2CEBD00A4318
:1003A8001B2E01DD0133E6E72020801B110082406F
:1003B800F140501E82410A439B185A01DBD5013493
:1003C8000026FF2C1AD1FF23E005DB057602760A0A
:1003D80018403043ED072843F8BD002E2ED0802664
:1003E800011BF604002C14D1002B00D1F3E04C1EA5
:1003F80001290AD19B1802243342B8D0012283492B
:100408001A405B080B401343B5E7FF2906D11300D8
:10041800AEE0FF2800D1E0E00C0033431B2C02DDE6
:10042800531C0400A7E719002026E140341BA34011
:100438005C1EA3410B4304009B18BEE7FE20611C11
:1004480001421ED1002C0DD1002B00D1C7E0002A9B
:1004580000D190E79B185A0100D48CE76C4A1340EE
:100468000C0088E7002BD2D0FF24002A00D182E7B5
:100478008023DB039F4202D39C4500D26746FB00E2
:1004880076E00C00FF299ED09B185B0873E7002ECE
:1004980025DD00281CD1002A00D16CE7661E012C3E
:1004A80006D19B1A5A0100D465E79B019E0975E0A5
:1004B800FF2C00D15FE701211B2E07DC2020801BC9
:1004C80011008240F140501E824111435B1AE9E756
:1004D800FF2C00D14FE78021C9040A43EBE7002E27
:1004E80025D0051B002C0DD1002B08D06E1E012D28
:1004F80003D10D00D31A0134D4E7FF2D08D113001E
:100508002C0021E0FF286CD080242E00E404234333
:1005180001241B2E07DC2025AD1B1C00AB40F4403A
:100528005D1EAB411C43131B0D000400BAE7FE26F9
:10053800601C30422DD1002C14D1002B06D125008F
:100548002600131E00D13EE70D0014E7002A00D153
:1005580011E79E1AD31A7001F6D4331E00D00AE7A9
:10056800350030E7002B05D1002A49D013000D00D3
:10057800FF2400E7FF24002A00D1FCE68023DB03E8
:100588009F4200D27BE79C4500D378E767460D0081
:1005980075E79E1A700115D50D00D61A3000FFF7C1
:1005A80067FE330005388340844210DC2022001B9C
:1005B8000130121A19009340C1405A1E9341002479
:1005C8000B43D8E6002EE9D135003400FBE6104A8B
:1005D800241A1340CFE6130042E7130021E7130063
:1005E800C9E613000400AFE7DE08FF2C00D0EAE6F6
:1005F800002E00D1E7E68023DB03FF241E43E2E65A
:1006080080261500F603F6E7FFFF7F1FFFFFFF7D3B
:10061800FFFFFFFBF0B5C30F85B0440245000F1C78
:10062800640A2D0E039302930AD0FF2D3BD080233A
:10063800E400DB041C4300237F3D019500930EE09A
:10064800012301940093002C09D02000FFF710FE2D
:10065800431F9C4076235B421B1A019300957D0241
:100668007E006D0A360EFF0F002E23D0FF2E2ED0EF
:100678008023ED00DB041D4333007F3B00220198FB
:100688000399C31A009879408000104301380E2856
:1006980023D8FFF78FFD4D9973999299734D4D9219
:1006A800736161615300022301950093002CD6D039
:1006B8000133C3E72B000122002DE0D02800FFF70B
:1006C800D7FD431F9D4076235B421B1AD6E73300B4
:1006D8000222002DD3D00132D1E764016D01AC4272
:1006E80028D31A200122641B012627005200640027
:1006F800002F01DBA54201D8641B324301380028D2
:10070800F3D1601E8441144318007F30002838DD7F
:10071800620704D00F222240042A00D004342201A8
:1007280003D5803318002B4A1440E508FE281DDD48
:1007380000250FE01B200022013BD5E78023DB03C7
:100748001C4203D01D4201D12C000297802502993A
:10075800ED032543FF2009E00399009A022AE7D018
:10076800032A2FD000252800012ACDD16D026D0A59
:10077800C0052843C907084305B0F0BD2C0039005F
:10078800ECE701220025121A28001B2AEEDC9E3312
:1007980025009C40D540631E9C4125436B0704D02F
:1007A8000F232B40042B00D0043580232800DB04C2
:1007B80018401D420BD1ED08D8E780240023E4033C
:1007C8000293C3E70291C1E700252800CEE7002580
:1007D8000120CBE7FFFFFFF7F0B5C30F85B0470255
:1007E800440002917F0A240E03930AD0FF2C71D093
:1007F80080227F3C26000023FF00D2041743019388
:100808000CE001233E1E019308D03800FFF730FDAD
:100818007626431F9F407642361A0194029B5C025B
:100828005D00DB0F640A2D0E02935AD0FF2D64D0B1
:1008380080232800E400DB041C437F38002302994E
:10084800039A4A40811901988C46850001311D435D
:100858000A2D00DD78E0022D55DC013D012D63D91C
:10086800250CA4B226003B0CB8B246435C4368434F
:100878006B4300191F00330C1B189C4202D98020BF
:1008880040023F181804B6B28619B401601E8441AC
:100898001B0CB60EDB1934439B011C431B0168D5A6
:1008A800012360081C40044308007F30002862DDF3
:1008B800630704D00F232340042B00D00434230102
:1008C80003D5803108003E4B1C40E508FE2833DD87
:1008D80000254CE0022326000193002F9ED001330F
:1008E8008DE720000123002CA9D0FFF7C1FC431F8E
:1008F8009C4076235B42181AA0E728000223002CAC
:100908009DD001339BE70120A840A6250600ED00F5
:100918002E4028421DD19025AD00284247D1B93D2F
:10092800FF3D28429CD0029A022BD1D0032B42D003
:1009380000252800012BB7D16D026D0AC005284398
:10094800D207104305B0F0BD039A0F2D04D00B2D2C
:10095800E9D03C00019BE7E78023DB031F4203D07B
:100968001C4201D12700029A8025ED033D43FF2058
:10097800E2E7614698E7012300251B1A28001B2B94
:10098800DADC9E3125008C40DD40631E9C41254306
:100998006B0704D00F232B40042B00D00435802391
:1009A8002800DB0418401D4207D1ED08C4E7802762
:1009B8003200FF03D8E72700D6E700250120BBE770
:1009C800FFFFFFF741024300C20F490A00201B0E38
:1009D8007E2B03DD9D2B02DD084BD018704780204D
:1009E80000040843952B05DD963B9840002AF5D076
:1009F8004042F3E79621CB1AD840F7E7FFFFFF7F85
:100A0800002370B50400984209D0FFF731FC9E23FB
:100A18001B1A962B08DC082829D008388440640261
:100A2800D805640A204370BD992B1BDD0200210004
:100A38001B3291400A00511E8A410521091ACC40F7
:100A4800144322000B4D2A40610704D00F21214096
:100A5800042900D00432510102D59F232A401B1AD1
:100A6800D408DCE7421F0528EBD09440E9E7962339
:100A7800D5E7C046FFFFFFFB9140030090409C462E
:100A8800203A9340194352426346D3401943704772
:100A980010B5002903D1FFF7EBFB203002E0080076
:100AA800FFF7E6FB10BDC0460023C25C0133002AF5
:100AB800FBD1581E7047F0B506000F0015001C004A
:100AC80085B08B4263D801D1824260D821002800CA
:100AD800FFF7DEFF390000903000FFF7D9FF009BD9
:100AE80021001B1A1A0028000393FFF7C5FF009086
:100AF8000191B94245D801D1B04242D8009B019C2E
:100B080001200021039AF61AA741FFF7B5FF040058
:100B18000D00039B002B2BD0019B009ADB0750088C
:100B28001843019B5908039B9C46B9422CD801D114
:100B3800B04229D832003B00121A8B410126921884
:100B48005B410027B6185F4101235B429C44634622
:100B5800002BEAD130003900039AFFF77DFB039A96
:100B6800A4197D4106000F00FFF786FF241A8D4166
:100B78000A9B002B01D01E605F602000290005B091
:100B8800F0BD00240025C4E7B6197F41DCE7002446
:100B98000025EDE730B587B000240021214802F098
:100BA8007BFB214803F0F5F9204802F037FE204D81
:100BB800204B032229002000029301942300009473
:100BC80003F0B5F82A2304931B4B042203931B4B11
:100BD800290002930823200001930094230003F0C6
:100BE800A6F8174B01220293290023002000039442
:100BF8000194009403F09BF803F0B2FE0A2200234C
:100C0800FFF774FB039000200E4B03220293290088
:100C180003000190009003F08AF80021014802F0D7
:100C28003BFBE9E7204E0000444F0010574F0010EF
:100C38003C4D0010694F0010AC4F00107B4F001066
:100C4800904F0010A24F0010F0B597B00593042301
:100C58000B921A400B9B0A92DA0807231A400132BA
:100C680007001C9D03910D92820700D0C5E1041D69
:100C7800002804D0072909D81C20404254E1039ACF
:100C88001A401300A4180822D31A0393059B0426BC
:100C9800013B0693002309930C9304930293013BB1
:100CA80007930196002F01D0059B23600D9B002B15
:100CB80000DDF1E09D4B059A9A4203D39C4B9A4282
:100CC80000D2E9E00B99E21B9308890700D50DE1F2
:100CD800049A0F2A00D9BBE0002F00D10EE1049935
:100CE8000EAA53540A00079912AB99540C9B01336E
:100CF8000C93F4E008260196069B01330693069BA5
:100D08009878002800D105E1029B002B08D12528FE
:100D1800F2D1079B01330793012302930426EAE7E4
:100D28007A284AD84B280ED8472846D829282CD8BC
:100D380025283FD041D82028DED0233843425841C7
:100D4800C3B20293D8E74C382E2836D8FFF728FAD2
:100D5800D43535353535353535353535373535359A
:100D6800353535353561353737616161D437D23539
:100D7800D435183718353579E63735353735E6003F
:100D8800002308930426029327E0012213002A383F
:100D9800C0B2834067490B42AED1E22118008905F1
:100DA80008400B4235D11900114002911342A3D0DB
:100DB800089013E0079B013B07930023C1E700223B
:100DC800069B08925B7802926C2B07D10426069B3F
:100DD80001961B786C2B01D1B6190196013CA0191C
:100DE8003100FFF7F1F970430400002F3BD0019B5D
:100DF800039ADB1B1B18934200D93DE7089B002B85
:100E080041D1019B042B20D108CD03600423043475
:100E180015E0072107358D4364188C430CCD002F4E
:100E280008D00131C91B03980919814200D923E769
:100E3800226063600023082602933300083401937C
:100E48005AE7029B089300239CE7019B082B01D0DB
:100E5800162012E7072307359D430CCD0260436037
:100E680008230834EBE7089B002B0CD1019B042BCB
:100E780001D10435CAE7019B082BE9D10735013BAD
:100E88009D430835ECE7069B023306930D9B013B17
:100E98000D9308CD059305E70B9B9B0722D50121F0
:100EA800E21B9308802080008242D1D2049A0F2A44
:100EB800CED8002F1CD00498DBB20EAA13549C463F
:100EC800079B12AA1354002900D10FE7802263461A
:100ED800524213430EAA1354099B01330993049BEE
:100EE80001330493069B0434013B07E70021D9E74B
:100EF800002903D0039B01330393F0E7039B0233DC
:100F080003930A9B002BEAD10598FFF7CDFD039BBD
:100F18001B18F1E78022E31BD200934298D2002FDE
:100F28000AD103980838C01817B0F0BD004B00105C
:100F380078540010DAFF00009B08302238603B70BC
:100F48006B469B180A9A1B78002A0BD0FB70099BEA
:100F5800BB70002B1BD100250EAE049BAB421BD1EE
:100F6800E01BE1E77B70F2E70EADED560EA9595C88
:100F7800002D07DA039E15190140B54200D97BE61A
:100F880021700134013304999942EDD1E3E701223C
:100F980000237F20D21BF6E7099B002B02D0337871
:100FA8007F2B1BD80A9B002B1BD012ABEB5C23704A
:100FB8000023013401930123019ADB1B1B199B18A1
:100FC800039A934200D957E63378019A2370013483
:100FD8002000059903F0E2FC019B1C19013501363C
:100FE800BBE733789B00FB181A6805920A9A0598A4
:100FF8001A60FFF759FD431CDCE70E203DE6C046AA
:10100800014B18607047C04600000020F7B5040087
:101018000D001E00019202F07FF9030003F062FD4B
:10102800054F32003B5001992800A04703F05AFDB4
:10103800385800F09FFCC04608000000F0B585B0A5
:1010480001903048039102F0BAFF061E0AD104004D
:1010580001272D4D2D4B9D4206D3019B002B01D01E
:10106800002C21D105B0F0BD2B7B002B11D02B68B3
:10107800DB68002B01D0280098476B689F712B68AC
:101088001B69002B08D16B6804222800196802F03C
:10109800B2FF01361035DDE7280098470028F2D066
:1010A8003B00B3401C43F4E727002000FFF7FEF89D
:1010B80001238340DA43144E05019C4373190193BD
:1010C8001B7B0292002B0CD0AB591B69002B13D150
:1010D800029B76191F40736804221968019802F070
:1010E8008AFF002CE1D1039B002B03D06420002150
:1010F80002F0D2F83C00B3E7019898470028F0D1F5
:10110800E6E7C046100200205C4D00106C4D001050
:10111800014B8000C0587047904D0010030010B577
:101128000800002B05D0044A136000F07BFA002069
:1011380010BD16204042FBE7040000200023FA21DE
:101148000B4A10B513700B4A890013600A4A0B4802
:101158001360FFF7E3FF0A4B0A4918008B4200D3DC
:1011680010BD1A1A5C681211013222711033F5E7AA
:10117800C4020020080200200C020020B73F001023
:101188005C4D00106C4D001070B50C4D297800298D
:1011980008D10120FFF752FF094C0A4B9C4202D3A9
:1011A80001232B7070BD63685B79002B03D0236823
:1011B80020009B6898471034EFE7C046C40200201F
:1011C8005C4D00106C4D001010B50400044802F08E
:1011D800F6FE002C03D00121024803F0D2FB10BD1B
:1011E800080200200C02002070B50A4B05001B689D
:1011F8009847094CA860094B9C4200D370BD6368AE
:101208005B79002B04D02368290020001B689847CD
:101218001034F0E7040000205C4D00106C4D001005
:10122800044B054A00209B1ADB08994201D2C900E9
:10123800885870475C4D00101C4D0010F0B589B0FF
:1012480004AF3E6B0400150079603B60002E1CD093
:101258007B6B1021FB60009300203300FA6AFFF7D4
:10126800F3FC802301001B0198420FD300201D4B83
:10127800022203931C4B1D49029301900300009026
:1012880002F0DDFEBD4605B0F0BD310007222300A7
:1012980015401340DB00AD011D434B021D43BC6AE2
:1012A800BB6A17341B051D43631893430333043A81
:1012B80093430733D34093406A46D31A9D4604AC00
:1012C800002E07D020007B6B10300093FA6A3300A1
:1012D800FFF7BAFC2A0020003B68796802F096FE06
:1012E800D0E7C046FF070000E84F0010244D00106B
:1012F8004068002804D0044BC01AC00800B27047E8
:1013080001204042FBE7C0461C4D00100EB417B543
:10131800054C05AB04CB01002000019300F036FC1E
:101328001EBC08BC03B018478340001010B5CB069C
:1013380004D4890603D50349FFF7E8FF10BD024925
:10134800FAE7C0462150001020500010F0B591B0C7
:10135800079317AB1B7807000C0006920593002B28
:1013680000D1B4E002251B9B1B9A1D4001231A40A3
:101378000C921B9A07331A4008921B9AF8331A40AA
:101388000992002602F035FE0200B04204D038006F
:101398009049FFF7BBFF0600002D09D044231B9A94
:1013A8001A4235D1220038008B49FFF7AFFF3618B3
:1013B8000C9B002B0AD0059A884B9200D258002A21
:1013C80000D1874A38008749FFF7A0FF099B002B07
:1013D8005AD0089B002B77D11C00069B002B05D008
:1013E8001A0038008049FFF791FF0400189B7F48D6
:1013F800A419002B00D0BEE01A9B002B74D11B9BB4
:10140800DB0700D5E0E038001B99FFF78FFFBEE04F
:101418000020774B1D688542C9D0764B200019689B
:10142800FEF7D2FEFA242900FEF70AFFA400614362
:101438000A9008002900FEF703FF0E91E1210D90A4
:1014480009010A98FEF7FCFE0B910B983C21FEF768
:10145800BBFEE1210F9009010A98FEF7B5FE0A903C
:101468000E9829006043FEF7AFFE0D9B02903C21C9
:101478000B980193FEF7E4FE380000910F9B0A9A3F
:101488005D49FFF743FF92E7089B099C002B08D0B2
:10149800059A5A4B920038005949D258FFF736FF3F
:1014A8000400069B002B05D01A0038004E49FFF7B0
:1014B8002DFF2418079B002B98D01A00380051499B
:1014C800FFF724FF241891E700230793E0E7079B21
:1014D8004D48012B00D14548189B059C002B4AD14B
:1014E8001A9B002B53D000241A9E102E00D91026C8
:1014F80038001B99FFF71AFF0025AC4252DC199BF4
:1015080038001A784149FFF701FF012507231D42DA
:1015180003D138003E49FFF7F9FEAE4248D9199B7E
:1015280038005A5D3949FFF7F1FE0135102DEDD12C
:10153800002538003749FFF7E9FE2B00199AD25CDD
:101548001300203B5E2B00D92E2238003249FFF7CA
:10155800DDFE0135102D30D007231D4203D13800A0
:101568002B49FFF7D3FE2B00AE42E7D838002849B5
:10157800FFF7CCFEEDE7189B3A00284902F0D3FCB0
:101588001A9B002BB0D1059B002B00D037E77A6857
:10159800B9680CCA386802F061FD00227B681A60DD
:1015A80011B0F0BD38001A49FFF7B0FE0135A4E7C5
:1015B80038001B49FFF7AAFEB7E7199B9B19199337
:1015C8001A9B9B1B1A93DCE73800054A0549FFF76D
:1015D8009DFE18E7285000102C500010A04D001058
:1015E8002350001051500010545000108340001038
:1015F800180200201402002035500010B44D0010CD
:10160800585000105E5000109B40001063500010AE
:101618006B5000106D5000106F500010951B00109B
:1016280069500010012310B500211C00074A9042A0
:1016380007D8074A002900D101231360054B186019
:1016480010BD210040085B00F1E7C04640420F0092
:10165800140200201802002070B50D00040046187E
:10166800B44201D1280070BD217803480134836851
:101678005B689847F4E7C046784B001010B5034AFA
:1016880003480021121A02F076FD10BDC80200209E
:10169800880000200648074A10B5121A064902F0C9
:1016A8006EFD064A06480749121A02F068FD10BD89
:1016B8000000002084000020785400100000002062
:1016C8000000002078540010F0B507000D0087B026
:1016D800002939D000248B68264E05934B680122D7
:1016E80004930B6820000393234B31000293019469
:1016F8002300009402F047FD6B69012205932B69D2
:1017080031000493EB68200003931C4B019402936F
:101718000094230002F037FDEB6901220393184B74
:1017280031002000029301942300009402F02BFD65
:10173800AB6901220393134B31000293200023006D
:101748000194009402F01FFD012F0DD1EFF30583E2
:101758000020103B03930C4B3A0002930549030009
:101768000190009002F00FFD2900380001F0C2F945
:1017780007B0F0BD444D0010AC500010DB50001015
:101788000A510010195100104751001030BFFDE7F1
:10179800F7B50A4B0A4D0600EF18CC1B2A002000AB
:1017A8000849019303F0FAF860190021019A03F03F
:1017B800FEF83800083C74660830FEBD04000000DE
:1017C800000000006C4D0010054B5A699B689A4256
:1017D80005D08023034A5B0551680B43536070476B
:1017E8009802002000ED00E0F0B53E4B91B05F6834
:1017F8000400FB05DB0D079362B6BFF36F8F3A4E0B
:10180800130EFF2B0DD1F33B1340082B4AD10020B8
:10181800364B01220293310003000190009002F040
:10182800CDFC00252C00079B032B41D10020304B19
:1018380001220293310003000190009002F0BEFCE7
:10184800A3692C4A934202D32B4A934205D32B4ACD
:10185800934241D32A4A93423ED2023B1A88294BEB
:101868009A4239D10020236831000393264B012284
:10187800029301900300009002F0A0FC2668202249
:10188800210008A803F08AF80F9B002D26D0DA055E
:1018980002D11E4A13430F93300008A9FFF714FF23
:1018A80011B0F0BD01251207BDD50C000025BAE71F
:1018B800F8235B00164A1F4200D0164A0020079BF7
:1018C8000392103B0493144B01220293310003004E
:1018D8000190009002F072FC0026D0E75B0A5B02E0
:1018E800D9E7C04600ED00E0444D001088510010D3
:1018F800B3510010A8010010F84A001000000020A1
:101908000000002002DF0000CA510010FF010000A3
:101918005A5100106F510010E65100100821024A78
:1019280053698B435361704700ED00E0EFF3088083
:10193800EFF3098101B57246FFF756FF01BDC046B6
:10194800094880F3088872B608480949401880F3A6
:101958000988EFF314800221084380F31488BFF349
:101968006F8F02F040FC0000C80F0020C802002062
:101978000008000010B50A4B9B6883420DD1EFF3B5
:101988000583002B09D08022064B520559680A436B
:101998005A605A6A04490A405A6201F0C3FC10BDF1
:1019A8009802002000ED00E0FF7FFFFF15498A68DC
:1019B80015481044EFF3098CF0C043464C46554691
:1019C8005E466746F8C072B6104F114E4A698A6083
:1019D8003E60104C141920680F4C2060906E002354
:1019E8009366002800D162B6074C10191030F8C869
:1019F8009846A146AA46B346BC462438F0C88CF39C
:101A080009887047980200203000000004ED00E0CB
:101A18000000000864000000400200200420714615
:101A2800014202D0EFF3098001D1EFF30880816908
:101A3800023909780229FFD001B5724602F0B2FBDB
:101A480001BDC04643B2000605D41F221A40012337
:101A58009340014A1360704700E100E030B5FF256C
:101A680003220B00290040B20240D20091409B01A2
:101A78002B40C943934000280ADBC0240A4A800847
:101A880080008018A40002590A401343035130BD56
:101A98000F2210400838054A800880008018C26963
:101AA80011401943C161F2E700E100E000ED00E0F8
:101AB800FF22044B9343044A9360BFF34F8FBFF355
:101AC8006F8F70470001001000ED00E010B5203A5C
:101AD8001360029B01245360039B06499360049B97
:101AE800A143D36080235B04D36100239161026525
:101AF800836610BD1510001070B50B4B150098606B
:101B0800426E0A4B0E001A602C1C86F309880020CE
:101B1800034B9847201C002100220023014C20473A
:101B28000B420010151000109802002040020020FF
:101B38001022014B1A61704700ED00E0F0B5C02497
:101B480000220326FF25A40010002F003040C0000B
:101B58008740054993089B005B1819590132B9431E
:101B680019511A2AF0D1F0BD00E100E010B5EFF3E9
:101B78000583054A103BDB00D11849689858884707
:101B8800FFF722FE10BDC046B04B0010F0B587B07D
:101B980007000E0014000021102268461D0002F004
:101BA80006FF6A4602239370054B2A002100684607
:101BB80001930497059601F051FE07B0F0BDC046A9
:101BC8002B42001010B5024B1B689847002010BD2F
:101BD80044020020034B044A1860022391780B4307
:101BE80093707047440200201000002010B504488C
:101BF80002F0CFF962B6BFF36F8F0423181C02DF1F
:101C0800F9510010072310B50449054A99430548BE
:101C1800521A02F032F9002010BDC046CF0F002042
:101C2800002004204802002049B24368102916DC2D
:101C38000A290BD00B2910D00C224A431B689B1889
:101C4800802292019B188022120103E09B68054ABA
:101C58009B182D2200201A607047DB68F7E71620D2
:101C68004042F9E70430000049B24368102916DC05
:101C78000A290BD00B2910D00C224A431B689B1849
:101C8800C02292019B188022120103E09B68054A3A
:101C98009B182D2200201A607047DB68F7E7162092
:101CA8004042F9E704200000802310B5084A5B048D
:101CB8001360084A94691C4202D01620404210BDA5
:101CC80001609269100018401A42F8D0F5E7C04642
:101CD8001830064000000640030010B508000B2924
:101CE80007D8FEF767FA090909091220282C2C2CB5
:101CF80033330120404210BD1A680C234B439B58D4
:101D0800134ADB051B0FD056F5E7124A0E2013685D
:101D1800116803220C0014401142ECD00E4A02381C
:101D2800022CEED1E7E70D4A0420136812689207E7
:101D3800E1D00B4AE5E70B4B0B4A1B68E1E70C23A4
:101D48004B430A4A9B181B68094ADAE70C20D2E77A
:101D58001852001030800040155200103C8000409E
:101D68000F520010488000400852001000800040C8
:101D780002520010F8B506000C0075682100280012
:101D8800376902F059FA002800D16DE00E2C00D90D
:101D98006AE02000FEF70EFA0808080808082A0872
:101DA800080830306A626600210028002F68FFF7B3
:101DB80093FF01003000FFF7DDFF0C236343FB189E
:101DC8005E68051C5868C0B2FEF71AFE2849FEF77F
:101DD80021FC041C300AFEF713FE011C201CFEF730
:101DE800A5FA011C281CFEF715FCF8BD06212800E1
:101DF800FFF772FF0400C0E70A2C2DD1AF6821005D
:101E08002800FFF769FF01003000FFF7B3FF061C49
:101E1800B868FEF7F5FD311CFEF7DEFC061C3F2016
:101E28003D68FC682840FEF7EBFD011C301CFEF7FE
:101E3800F1FB0725061C200C2840FEF7E1FD011CDC
:101E4800301CFEF7E7FBFF68041C380B2840FEF740
:101E5800D7FD011C201CC6E7EF68D0E73868FEF7FD
:101E6800CFFDC2E77868FAE70020BEE70148BCE783
:101E780000007F43001B374BF0B544688FB0A36860
:101E880022220393E3685F4905A80493256827691C
:101E980002F084FD5C4B5D4A1A605D4B5D4A13603D
:101EA8001E005D4A12689643FAD10C21300000F0FA
:101EB8002DFDAE6700F016FD0321584BDA6B8A43FF
:101EC800DA635A6C012AFCD103211A6B8A431A631C
:101ED8009A6B012AFCD1E269514B03985A43636A11
:101EE8000093236AA16900F097FCE26A4C4B0498BE
:101EF8005A43636B0093A16A236B00F08DFC112198
:101F080005A802F0E3F9730005AA9956C8B2092892
:101F180067D90136112EF6D1C0239B01EA18802318
:101F28001B0113603F4A3800AA1813603E4A143058
:101F3800AA1813603D4AAD182B602300AA25D83390
:101F480019682D012943FFF7AFFE002855DB230050
:101F5800DC331B68364938001943FFF7A5FE002813
:101F68004BDB2300E0331B68002B48D029001F2BD4
:101F780000D8591938001030FFF796FE00283CDBCE
:101F88002600E43631682B4D89B22943381DFFF706
:101F98008BFE002831DB380031680830090C2943F2
:101FA800FFF782FE002828DB234B1A4A13601A4BDE
:101FB8001B68DB43DB01DD09002BF8D129006069D0
:101FC80002AA02F073FA002807DB029B2A0019799B
:101FD800186802F07EFA002801DA831C0DD100206F
:101FE8000BE0090161180B6C00934B6CCA6B896B91
:101FF80002F0C1FB00288CD116380FB0F0BD0F4994
:10200800B8E7C0466C4D001000E00040BFCDFBFEB5
:10201800FE7F3C0000F0004008C000400080004007
:10202800001BB7000C3000001830000024300000FE
:1020380000B0FA0000009696FFFFFF01A10A000019
:1020480010B5084802F0E9FB002808D0064C20002B
:10205800FFF7C0FD2000FEF7D3FF002010BD1320BE
:102068004042FBE7784B00107520001070B5040063
:10207800074D0A2804D1AB680D2128005B689847F2
:10208800AB6828005B68E1B29847200070BDC04685
:10209800784B0010D0231B061B685A4253412F224D
:1020A8005B429343064A9B181A001068002804D123
:1020B8000432D11A0C29F8D970470120FCE7C04630
:1020C80050410140F7B5036907000193D0231B066F
:1020D8001C68002563425C412F2364429C43184BD3
:1020E800E418EB081A0008329200115907222A4016
:1020F8009200D1400F20014203D101351E2DF0D1AD
:10210800F7BD0F2191403C330E4A9B009950019B2B
:1021180059680029F1D00123AB400E6800930029CB
:10212800EBD08B68009A00981A40034202D038001E
:102138004B689847331E00D0336831001E00EEE725
:102148003041014000400140F8B50D00141E0669F9
:1021580010D11100280000F011FC284BAD00EB183D
:102168001A6880235340C0221340254AAD182B60BB
:102178000020F8BD01275209210928003A403940BA
:1021880000F0FCFB0521280000F0E0FB8023210083
:102198005B0219401C421AD0D023AF401B069F6235
:1021A800A303E5D501200300F268AB40A10719D5C8
:1021B8001A43F260D0223169120665070BD519431C
:1021C8003161A40C936104420AD05362D0E728001D
:1021D80000F06CFCE4E799433161E40C5361F2E7E9
:1021E8009362C5E79A43F260D0221206210301D513
:1021F8005361EAE76403E8D59361E6E704C0014068
:1022080004D0014001208840034B1B680340591E3D
:102218008B4100201370704700C0004001238B40A1
:10222800014A00201360704700E0004001238B4002
:10223800034A0449136018000A689043FBD17047A9
:1022480000F0004008C0004001238B40044A0549C3
:102258001360054A136018000A689043FBD1704761
:1022680000E0004008C0004000F0004010B543689E
:1022780000691B68007A1A6B002803D107480240DE
:10228800824208D19C69102220001040144202D1D9
:102298001B680B7010BD01204042FBE701020000E3
:1022A800436803491A68936B0B4093637047C046B1
:1022B8007FF8FFFFF0B5436889B006930369019181
:1022C8000593069B07921B6805000493059B1B7AE0
:1022D800002B00D090E0002A0BD001221021049B93
:1022E8001B6B9343049A136343681A68D36A8B433E
:1022F800D362049BDC6AEE239C43019B1B79012B70
:1023080006D0022B16D0002B04D0862040425CE079
:1023180002231C43019B5B79012B03D0032BF4D1CF
:1023280005331C43019B98790328EED8FDF742FF3B
:10233800060413150623ECE720231C43019BDB79D5
:10234800002B0CD0012BE0D16B681A68C023116BED
:102358001B020B4308E04023EFE76023EDE76B68BF
:1023680027491A68136B0B401363059B4026764276
:10237800F717D868019B810E1A68800100231201A3
:10238800FDF7B4FF03910290029A039BB6185F41D0
:1023980069680968002F2DD11A4886422AD8039BFC
:1023A800029A9806029B9B0903434B623F231A40FB
:1023B8008A62BFF35F8FCB6A0822CB62049B0199C4
:1023C8000598DC6202F0EAFA3800079B002B0FD070
:1023D800069B1B7F002B05D16B681A681023D16AF6
:1023E8000B43D3626B681A680123116B0B431363A9
:1023F80009B0F0BD162089E786204042F8E7C046BC
:10240800FF3FFFFF80FF3F00F0B545680400076904
:10241800A8682E6885B0002857D1286900285ED1A1
:102428003B7A0193002B31D11900686803AA02F0A6
:102438003DF8002851DB039B019A1979186802F0CE
:1024480048F8002849D16B6A002B01D02000984732
:10245800012163681A68136B8B43136363680F3138
:102468001A68D36A8B43D3622B6A002B48D10022A7
:1024780039002000FFF71EFF102373632A7F002A0C
:1024880004D162681268D16A0B43D3620023B36334
:10249800234B73643B7A002B0DD1B364BFF36F8F6A
:1024A8000222336B93433363C023326B9B00134385
:1024B8003363BFF36F8FAB692000984701233A7AE3
:1024C8003B74002A22D0002007E0E9688368DB68B3
:1024D800002B21D0984700289FD005B0F0BD836815
:1024E80069691B68002B00D098473A002869696918
:1024F80083680C32DB68002B00D191E798478FE79F
:102508002000F96898470028B1D0E6E762681268A9
:10251800116B0B431363D6E758204042DDE7C046F2
:10252800FF07000070B580251049114B8C681B68A7
:102538000E6810488A686D02002C08D1002A11D153
:102548001A002E4209D100681818801A70BD002A96
:102558000AD02E4201D1A242F5D90468E4180460D9
:102568000968F0E71C00F4E71A00F2E710E000E061
:102578006C020020680200200020084A136A1B022F
:102588001B0A1362064B074A1A60074B074A186072
:10259800074B5A60072298601A60704700ED00E008
:1025A8006C020020D430000068020020D330000004
:1025B80010E000E0F8B50024FFF7B4FF0F4E230049
:1025C80031680F4D0A0028686968801859412860E9
:1025D80069600C4D34600C492E686F68801BFDF7EC
:1025E800F3FD0949230041430A0092197B412A60FF
:1025F8006B6001F08BF8FFF7E7F8F8BD6802002080
:102608009000002088000020D4300000F0B53B4B3B
:102618003B4D87B000295FD0421C08D101212A68B0
:102628008A432A60FF2212061A6007B0F0BD1B68B1
:10263800039300230293012853DCEFF310830593DF
:1026480072B6FFF76FFF00221100AB6804932D4BA1
:102658001E685F6836184F413000390018605960AD
:10266800294B009601971A60284B1C68009B1B1B7E
:1026780093423DDB264F0298264A78438018C018BB
:102688003900FDF7A1FD009B7843E41A8023201848
:10269800DB00984200D218001F4B984200D918005E
:1026A800164B184918600138AB6868600020A860AC
:1026B800049AD41A9A421ED2039D621903000C6828
:1026C8004D6812196B410A604B60059B002BACD119
:1026D80062B6BFF36F8FA8E71B680393431CA8D1AA
:1026E8000E480F4B984200DD1800431E0293A4E7E2
:1026F8008020C000D4E72200E0E7C0466C0200203A
:1027080010E000E09000002068020020880000200F
:10271800D4300000D330000084C6FF003D0500001F
:102728003E05000070B5EFF3108572B6084A094BF4
:1027380014681B68E41AFFF7F5FE0019002D02D192
:1027480062B6BFF36F8F0449FDF73EFD70BDC0460A
:102758009000002088000020D4300000F7B50C2439
:10276800444301932A4B0092E4186368089A0500D1
:102778000E00934200D26260C0232F1F9B01FFB25C
:10278800E318012F1BD8012E19D103221A60A36860
:102798003342FCD0009B22685B015340E022134087
:1027A80080225201A21813600321236873400B4052
:1027B80013600123B340A2681342FCD01BE08022BF
:1027C80012011A60134BAA00D158002907D0586982
:1027D800FDF7FAFC431C032058430338FDD2009B45
:1027E80022685B015340E022134080225201A21864
:1027F8001360012FD8D9802380229B01E31812018E
:102808001A60089B019A6360024BAD00EA50F7BD5D
:102818000080004070020020F8B517000400294825
:102828000D001E00FDF7D0FC274B0100FA18274BBE
:102838009A4201D901F0F2FC3800FDF7C5FC02000C
:102848009823103A5B009A42F4D8731E062BF1D8ED
:10285800069B013B062BEDD8069B32041E0323681A
:102868001643002B0FDA3F2223681340AB420AD1EC
:10287800A3681B051B0D834205D1EE22E368D20233
:102888001340B3421CD0124B1249E21853425A412A
:1028980001230C329340104A1360104A13601F0042
:1028A8000A6897433A1EFAD10D4B2132E318256086
:1028B800A0601A602268002AFCDA0822E6601A6022
:1028C800F8BDC046001BB70080E84BD380F8A9329A
:1028D8000040FDBF08C0004000E0004000F000409C
:1028E80004300000AA22064B12011A608D22520001
:1028F800DA600449044A11605A68002AFCDA704711
:102908000040024000B0FA00006002408023024A02
:102918009B000B43D36270470080054030B5072504
:10292800C4082840800081402000074D3C308000CA
:10293800A40041511B19002A04D0802292019B183F
:10294800196030BDC022F9E70040014010B5084BBE
:102958008200D3181C6840236340C0242340054CE0
:10296800C00012191360044BC018416010BDC04666
:1029780004C0014004D0014000400140064B8000E3
:10298800C3181B68C90092000A435A400C231A4016
:10299800024BC0180260704704C0014004D00140D7
:1029A800064BC000C3181B6809075940C0239B0584
:1029B8001940034BC01801607047C04604400140ED
:1029C80004500140064BC000C3181B680904594055
:1029D800C0239B021940034BC01801607047C046D2
:1029E8000440014004500140064BC000C3181B6856
:1029F80009025940C0239B001940034BC0180160CD
:102A08007047C0460440014004500140064BC000D6
:102A1800C3181B6809035940C0239B011940034B85
:102A2800C01801607047C04604400140045001408E
:102A380002238000002903D0024A801803607047EF
:102A4800014AFAE704E0014004F00140054B800028
:102A5800C3181B68594001231940034BC018016073
:102A68007047C04604C0014004D00140054B8000B7
:102A7800C3181B680901594030231940024BC0187C
:102A88000160704704C0014004D00140D02310B554
:102A98001B061B685C4263412F245B42A343024C24
:102AA8001B19FFF73BFF10BD304101404023800058
:102AB800002903D0024A801803607047014AFAE7E8
:102AC80004E0014004F001401FB50400FEF75CFB80
:102AD8000020064B01900293009003000122044954
:102AE80001F0A8FE200001F0B4FEC04671520010AB
:102AF800444D0010F0B505000E0089B0EFF31083C7
:102B0800079372B6264A274B9768042802D8264BA3
:102B18008100CB580024254920000691127C04939B
:102B2800234B0592029301222300039501940094FC
:102B380001F080FEA6420DD0F369DB05A34209D05F
:102B48001C4B012202932000230006990194009453
:102B580001F070FE002F07D0380001F085FE002834
:102B680002D00378002B00D1134804900020134BA7
:102B7800012206990293019003000090039701F047
:102B880059FE31002800FFF79FFF079B002B02D159
:102B980062B6BFF36F8F3800FEF7ECFE09B0F0BDE8
:102BA8009802002080520010184F0010444D001069
:102BB80096520010BE5200108E520010DF520010C4
:102BC800F8B501270A4E83009D5901308400335916
:102BD800AB4200D8F8BD6868002806D0037E3B42A7
:102BE80001D101F001FE0835F1E72B689847FAE7B3
:102BF8002C4F0010012270B5234B032086B01A70A9
:102C0800FFF7DEFF00F002FE0420FFF7D9FF1F4C9C
:102C180026001F4DAC420ED300F02CFAAE4220D352
:102C280000F052FAFDF7B6FF01211A4A137B8B43D5
:102C3800137306B070BD636A0593236A0493E3694E
:102C48000393A36902936369019323690093E3687B
:102C5800A2686168206800F0BFF823685C653034BA
:102C6800D7E7B26AF36A511C01D1591C05D011008B
:102C78003068194303D100F02FFB3036CEE7064900
:102C8800183000F0B3FCF8E7C6020020804C0010B2
:102C9800804C0010080100200949001070B570260A
:102CA800012504004643010211488022091800202A
:102CB80086B004950E350395053565430D4B059093
:102CC800029001900C48F6182D180C4B3000009516
:102CD800520000F081F80422737B2C7493437373C1
:102CE8000134074BE402E418EE606C6006B070BD76
:102CF800C80A0020980000209802002063480010AD
:102D0800C8020020F0B5002087B0FFF759FF204B1C
:102D180083F308881F49204B0A6A00251A40C023FC
:102D28001B0413430B62FEF7F9FDFEF701FFFEF7E4
:102D380005FA1A4800F0A4F80120FFF741FF022025
:102D4800FFF73EFF00F00AFA154C164B80225C6133
:102D5800154B164E0593012315490493D2003300F1
:102D68002000039502950195009500F035F804229E
:102D78000700637B20009343637301F09AFD2800EA
:102D8800FFF78CFF320039002000FEF7B5FEC04681
:102D9800C80A002000ED00E0FFFF00FF78010020D6
:102DA800080100209802002041530010FD2B00105C
:102DB800C80B00207FB50BAB05930393054B002090
:102DC800029308230422019300900300FEF736FAC9
:102DD80007B000BD49530010F0B58DB00B93030048
:102DE80000250400072758338365C365169B856053
:102DF80003730420159B6073A373D31DBB43DB19B6
:102E0800BB43E573A561E561CA1808930693184B9F
:102E18000E000393174B1849029308230A9209924C
:102E2800019302002B00280004960095079605944C
:102E3800FFF7C0FF0A992000FEF7AAFC0A9BC019F9
:102E4800B8431F1A149B3A000293139B3100019355
:102E5800129B200000930B9BFEF738FE074B65651D
:102E68009B68AB4200D01B6E380023660DB0F0BDE6
:102E78009A53001049530010444D00109802002046
:102E88000223FF33838100230366014B9860704758
:102E9800980200200B21084A49429368D96698662F
:102EA800802306495B05486803434B6062B6BFF35D
:102EB8006F8F9368D86E70479802002000ED00E08D
:102EC8000D2370B5C356427B002B38DBD30636D1B1
:102ED80080235B4213431B4C4373A3691A49E2697D
:102EE8008B4207D1016042601060E06111E09A42B4
:102EF800F8D01B68002BF5D00E250E2645579E5797
:102F0800B542F4D0AE42F2DD5A6803604260106008
:102F18005860A5698D4201D0002D00D1E568A368ED
:102F28005A7BD20605D1DA897F2A02D9AA69002AF2
:102F380006D0AB4202D0280000F0BEFA656170BD31
:102F48006361FCE798020020B00200200D2270B5F2
:102F580082560500437B002A04DA7F22134043731C
:102F680001F084FC0D4E0E4AB469B368944201D056
:102F7800002C00D1F468AB4208D05A7BD20605D1A8
:102F8800DA897F2A02D9A269002A05D0A34202D091
:102F9800200000F091FA2300736170BD98020020B0
:102FA800B002002070B51B4CA168E3690A68CB1A0F
:102FB800581E834149685B420A6051601340E169C9
:102FC800A268002B05D1144B516013600A60E261BE
:102FD8000CE00E200E2510565D57A84215D08542EC
:102FE80013DD5968136051600A605A60A5690A4B7D
:102FF8009D4201D0002D00D1E568A3689D4202D012
:10300800280000F059FA656170BD9942DBD01B6851
:10301800D7E7C04698020020B002002010B500296A
:103028000AD1EFF30580002807D1064B9A685B693F
:103038009A4202D0FFF72EFF10BD62B6BFF36F8F22
:10304800FAE7C0469802002010B500280AD1EFF32D
:103058000580002807D1064B5A699B689A4202D01E
:10306800FFF718FF10BD62B6BFF36F8FFAE7C046CF
:103078009802002010B5104C86B0A3680020DA7BB7
:1030880004930E4B059203930D4B042202930823DD
:103098000C4901930090030001F0FBFBEFF3108152
:1030A80072B6A268D37B013BD373002902D162B602
:1030B800BFF36F8F06B010BD980200202154001096
:1030C800AD530010444D001070B586B0EFF3108674
:1030D80072B61D4DAB68DA7B0132DA73AC691B4AF4
:1030E800944201D0002C00D1EC685A7BD20605D15D
:1030F800DA897F2A02D9A269002A05D0A34202D020
:10310800200000F0D9F923006B61002E17D0AB68BE
:103118000020DA7B04930E4B059203930D4B042297
:10312800029308230C4901930090030001F0B1FBBE
:10313800EFF3108072B6FFF787FF06B070BD62B676
:10314800BFF36F8FE3E7C04698020020B00200206B
:1031580012540010CA530010444D0010024B034A89
:103168009A61DA617047C04698020020B0020020D8
:1031780070B5EFF3108572B61C4CA168E3690A6854
:10318800CB1A581E834149685B420A60516013405C
:10319800E169A268002B05D1154B516013600A60E4
:1031A800E2610CE00E200E2610569E57B04218D051
:1031B800864216DD5968136051600A605A60A66934
:1031C8000B4B9E4201D0002E00D1E668A3689E42B8
:1031D80002D0300000F070F928006661FFF75AFE4F
:1031E80070BD8B42D8D01B68D4E7C0469802002037
:1031F800B0020020F0B5224D87B00590AB680400FE
:103208000493204B002003931F4B0F0002930823C5
:10321800042201931D490300009001F03AFB3B0092
:10322800234304D1FFF7A4FF002007B0F0BDEFF35C
:10323800108672B6164BA8681860FFF787FEA86854
:1032480022003B001349183000F0D0F90423AA6883
:103258000400517B30000B435373FFF71BFEAB6830
:103268009A6A002AE0D18022DB6A12069342DBD1F7
:1032780001F072FB201AC343DB171840D5E7C0469C
:103288009802002005540010E9530010444D001026
:10329800B80200200949001070B504000D00FFF7BE
:1032A800A9FF01002000631C01D1013510D00A00DC
:1032B800CB1709200021801859410A220023FDF765
:1032C80015F8002903D180231B06984200D3014832
:1032D80070BDC046FFFFFF7F70B50400EFF3108597
:1032E80072B60426437B33420DD0183001F00EFB32
:1032F800637B2000B3436373FFF7E2FD29000548B1
:10330800FFF78CFE70BD002DFCD162B6BFF36F8F46
:10331800F8E7C046C7020020014B98687047C046CE
:1033280098020020F0B5037B85B004000393EFF307
:103338001083019372B6019B02930823427B1A42C1
:1033480007D0019B002B02D162B6BFF36F8F05B087
:10335800F0BD1900114348B2002857DB6173A36818
:10336800002B02D0200001F089FA20002600183036
:1033780001F0CCFA5836A56DAE4201D0002D4DD1E2
:10338800304F0025BB689C4204D1EFF305856A1EC7
:103398009541EDB2BE692C4A964201D0002E00D16B
:1033A800FE68B34202D0300000F086F820007E614B
:1033B80000F024FF002D02D02448FFF761FDBB6810
:1033C8009C4238D1EFF30583002B34D1237BDB07F4
:1033D8000FD5019B002B02D162B6BFF36F8F62B687
:1033E800BFF36F8F0423181C02DFEFF3108372B64C
:1033F80002930298FFF74EFD039BDB07A7D562B641
:10340800BFF36F8F0423181C02DFA0E77F210A4057
:1034180013432000637301F029FAA0E7280001F0A4
:103428002DFA2800183001F071FA00232800EB6605
:10343800FFF746FD9FE7019B002BDDD162B6BFF386
:103448006F8FD9E798020020B00200207801002091
:1034580010B5447B1F21220003000A4000200C42C3
:1034680010D10A4910008B420CD00949086800287D
:1034780008D0D9897F2906D80E215956054B1B68D3
:10348800994200DB10BD1000FCE7C0469800002000
:103498006C000020BC0200200121044B044AC01A21
:1034A800044BC0104343D1547047C046E801002084
:1034B800C7020020ABAAAAAA70B518250B4B1E7C20
:1034C800FFF7C6FF75430A4B0400ED18280001F00A
:1034D8001DFA0022074B9A55944205D0621E280017
:1034E8000549D31700F082F870BDC0469802002045
:1034F800E8010020C7020020A134001070B5EFF3E6
:10350800108572B6104A114B94681868A04207D10A
:10351800FFF7D2FF002D02D162B6BFF36F8F70BDE7
:1035280000211960127C0A4B9B5C8B42F2D0200070
:10353800FFF78EFF0028EDD0637BDB0601D1FFF794
:1035480031FD2000E4E7C04698020020B8020020C0
:10355800C7020020024B1868984200D1002070472B
:103568007000002070B50600FFF7F4FF002810D0A7
:10357800026943693400F517121BAB41002B08DCC4
:1035880003D1802109068A4203D2D843C0171040CC
:1035980070BD0148FCE7C046FFFFFF7F002010B563
:1035A800034B1B68834201D1FFF7BCF810BDC0462E
:1035B800C002002030B500280ED00B4B5B68984243
:1035C8000AD00168002907D00A694B69046945696E
:1035D80012196B410A614B610368426813605A60B3
:1035E80000230360436030BD70000020F0B5040084
:1035F80015001E0085B0531C02D1731C00D17CE05D
:10360800A160EFF31083039372B6002E26DBFFF759
:10361800C5FF00210090012040197141009AD3177D
:1036280012184B41364922616361086849681218CB
:103638004B411E00150001230293FFF78BFF070083
:10364800304B9C465B680193002F1DD16346236075
:10365800019B63601C6063465C6027E0284B186828
:10366800596802225242D317121A8B41521BB34196
:103678001100002B04DC01D1002A01D10121002313
:10368800636121610023D7E7386979692269636931
:10369800994202DC28D1904226D9801A99417B6848
:1036A80038617961636027601C607C60FFF752FFB6
:1036B80084420FD1144B1B68002B0BD1029B002BAB
:1036C80002D1FFF76BFF00900098FFF74BFF002136
:1036D800FEF79CFF039B002B02D162B6BFF36F8FEE
:1036E8002800310005B0F0BD121A8B4122616361D8
:1036F800019B9F42AAD03F68A6E700250026EFE776
:103708000002002070000020C0020020F0B587B041
:10371800EFF3108372B601932F4B1860FFF71AFF6F
:103728002E4F04003A687B68029203932A4B9C460A
:103738001D6800280FD042690669EB179A4202DC1F
:1037480024D1AE4222D91900226963692800121ACD
:103758008B4122616361029803992A00EB171218C2
:103768004B4100243A607B60634620001C60FFF7F1
:10377800F9FE2100FEF74AFF019BA34202D162B67F
:10378800BFF36F8FFFF7BAFE07B0F0BDF3170496CB
:103798000593049A059B02980399801859410023C0
:1037A80000220E4D22616361286069602000FFF7E6
:1037B80001FF019B002B02D162B6BFF36F8F20007F
:1037C800A3689847EFF3108372B6034A019313680E
:1037D8009B1B1360A2E7C046C00200200002002025
:1037E80010B5EFF3108472B6FFF7D8FE0200064951
:1037F800C3170868496880185941002C02D162B67D
:10380800BFF36F8F10BDC0460002002010B50248FC
:1038180000F0BFFB10BDC0462E540010F8B50E4B8B
:1038280004001D68AB789B0713D56E6827782900BC
:10383800002F05D10A20B047002806DB38000AE02F
:103848003800B04701340028F0DA0423AA7813437B
:10385800AB7001204042F8BDFC4D0010F0B5436844
:1038680093B003900893837815009B0700D4F8E081
:10387800002301930E78002E6AD0252E0DD04B1C04
:103888000993019B013301930399089BF0B2984770
:10389800002800DADFE00999ECE74E788B1C0993E1
:1038A800252EEED0002304211C00099A02930793C9
:1038B80009921F2C2ED83000203810280AD8FCF77F
:1038C80079FC1D0909270909091E0909091B092588
:1038D800090918003300303B092B29D92A2E32D187
:1038E80008CD600622D4002B29DB2020079304434F
:1038F80005E001231C4302E002231C430C43099BFF
:1039080001321E78002ED3D109922DE00823F1E769
:103918001023EFE77F2C1ED83300303B092BDDD86E
:10392800600605D50A20029E7043C3180293E6E795
:103938000A20079E7043C31807932023DAE75B42E7
:1039480007932823D6E72E2E05D140231C42D1D039
:10395800019813B0F0BD6C2E2DD027D8682E31D029
:103968006A2E32D04C2E30D0029B002B03DA402333
:103978009C4300230293202333431A00653A022A0A
:1039880001D9612B24D10722EB1D934308331D0075
:10399800AB4F0292240753D5019A029B16009C183C
:1039A800B4424FD1079B029A9E1A82E1742EA6D088
:1039B8007A2EA4D0D8E780231C429BD08020800098
:1039C800044397E780235B00F6E7A0239B0091E779
:1039D80030006338122800D9E3E0FCF7EBFB0A4615
:1039E800E2E2E2E246E2E2E2E2E2F3DDE2E211E210
:1039F800AD0004CD0CAB1A7001230CAF0293C9E7DC
:103A080080CD002F00D18F4F0299630601D4012188
:103A18004942380000F0D3FF0290BBE72020039909
:103A2800089B9847002816DB013C029BA342F5D36C
:103A3800079A019B944663441B1B01930794ABE7C9
:103A4800079CF2E7019B0399FB1A985D089B98472E
:103A580001360028A4DA039B9A7804231343039AB7
:103A6800937001235B42019372E723063FD5A305B8
:103A780037D50722073595432F000CCF04920593BD
:103A8800102325009D43059B002B3ADA0499059ADB
:103A980000244B429441049305948023DB001D438A
:103AA800ADB20CAC0A2304980599220000F092FFED
:103AB800041B6B0665D501232A009A431300029A5A
:103AC800A24200DCA4E0002E00D19CE010222900D4
:103AD80011400B91154200D09CE0029A1D000692FD
:103AE8001EE02F0008CF0493DB170593C8E72F00CB
:103AF80008CFE205F7D5A20501D55BB2F3E71BB203
:103B0800F1E7049B059A1343CBD16306C9D5029B01
:103B1800002BC6D111339C43029B25001C00069341
:103B28002A00494B1A400B921D4277D0069B01335D
:103B3800069300230B9371E010239C43063B9C469D
:103B4800802322001A4006921C4242D02100813371
:103B5800FF3319401C4239D00722EB1D93431F0045
:103B680003CB083703000B4346D1250016339D438A
:103B7800630644D5029B002B41D117339C43250093
:103B8800029C10232A001A400B921D4256D0631C37
:103B9800002E42D022003FE0102378269C461C438A
:103BA800CEE7782B04D110229B1B1A439446C7E713
:103BB80025200399089B9847002800DA4BE7019BCA
:103BC800023360E6082300269C46B9E72F0001CFA0
:103BD800C8E72F008022210008CF520018001140AA
:103BE8001442BFD0802221009200114098B21442A2
:103BF800B8D00699D8B2B5E706239C4325000CAC8B
:103C08006346220052E711239D43029B069387E7F0
:103C18001D00B6E71D00029A931C06932B072AD4B1
:103C2800EB0709D5079B069A0294934204DD9B1A79
:103C38001B190293079B0693069B10E006946FE7F7
:103C480070540010695400100604000020200399E5
:103C5800089B9847002800DAFDE60A9B01330A937F
:103C68000A9A079B9342F1DC069A019B9B1A0A9ACF
:103C78009B18019306920B9B002B25D030200399AB
:103C8800089B9847002800DAE5E6019B002E12D130
:103C980001330193019E029B019A9B189B1BA3422F
:103CA80020DC2500002D25D13D00079B069AA4198C
:103CB8009E1A019431E002330193F0B20399089BF4
:103CC80098470028E6DAC6E6174B1D42E2D02020C6
:103CD800AB0700D50B306D0500D52D20019B0133B6
:103CE8000193EBE730200399089B01369847002899
:103CF800D1DAB0E60CAB013DE85C0399089B984724
:103D08000028CFDAA7E6019B20200133019303990D
:103D1800089B9847002800DA9DE6019AA3199B1A88
:103D2800002BF0DCB7E5C0460604000070477FB5FD
:103D380000200BAB059303930A9B00900293099B09
:103D480001930300FDF77AFA07B000BD8023C9008C
:103D5800411880681B02984202D39200505870475D
:103D68005200505AFBE710B58024C90041188068FA
:103D78002402A04202D39200535010BD5200535265
:103D8800FBE710B50122FFF7E1FF400810BD10B5B1
:103D98008024C9004118806801232402A04208D366
:103DA8004868002A02D003434B6010BD984348601E
:103DB800FBE74888002A02D003434B80F5E7984385
:103DC8004880F2E710B553000122FFF7CCFF10BD81
:103DD800802210B5806804231202904200D3DB18B9
:103DE8000833DB080131C81AFCF742FA1F23181AF6
:103DF80010BDF8B50D0004008668FFF7C2FF8023E8
:103E080001001B029E4201D3012819D02000FFF7B0
:103E1800DFFF8300E3181E69002E12D101218140C3
:103E2800E26820000A43E260290002221D612B009B
:103E3800FFF799FF2B00032229002000FFF793FFCB
:103E4800F8BD022231002000FFF780FF07000300C1
:103E5800022229002000FFF786FF330003222900F1
:103E68002000FFF780FF2B00032239002000FFF716
:103E78007AFF2B0002223100DFE7F8B580230825FE
:103E8800DB029A4200D2043D07230027551BCC1DB4
:103E98004D199C439D432D1BED080460290020000B
:103EA800A560E760FFF794FF431D9B00DE1D3A0005
:103EB800F608013001DB103B1A0020000021103009
:103EC80000F075FD320020000021FFF77BFF002382
:103ED80020001A001900FFF746FFAF1B200001223F
:103EE8000021FFF754FF3A0031002000FFF76AFF76
:103EF8003300310020000022FFF735FF29002000A1
:103F08000022FFF75FFF3B00290020000022FFF797
:103F18002AFF290001222000FFF739FF3100200085
:103F2800FFF767FFF8BDF0B585B00D001C1E0290C5
:103F3800039229D000265B780193E078237840002B
:103F48009B00C018A378C0182018019B9E4210D36C
:103F58006279237912021A43A37903991B04134344
:103F6800E279029812061A4323000833A84705B0DD
:103F7800F0BD0378471C9B0038001F51FCF794FDE7
:103F8800013038180136E0E716204042EFE70020FC
:103F980070470FB407B504A901C9019100F01BF8D7
:103FA80003B008BC04B0184770470020704710B52C
:103FB80000F0D6FC0A220023FCF798F910BD10B5D2
:103FC800012100F0D1FC10BD002110B50800FDF75B
:103FD80035F8002010BD1FB50290002003910300A2
:103FE8000200010001900090FDF728F905B000BD1E
:103FF800704700207047436810B5DA7101224368A2
:10400800196043685A71FFF7F3FF10BD70B50E00D1
:10401800040015001900002802D1FDF7D5F870BD7D
:10402800002B06D013035B0D1030C018120D00F0E2
:10403800B5FC200025606660FDF7D6F8EFE77FB590
:1040480000200BAB059303930A9B02220293019075
:1040580003000090FDF7F2F807B000BDF8B50600C0
:104068000D0014001F00002C00D1F8BD210028000D
:104078003A00B047241A2D18F5E713B56B464A687D
:10408800D87107330C68180001215268A047002036
:1040980016BD70B504000D000A2802D10D20FFF7E7
:1040A800ECFF29002000FFF7E8FF002070BDF0B505
:1040B8008B6889B006930B880790DB0508000D789C
:1040C8000C005E0F1700FDF713F90023AD06010081
:1040D8006D0F984203DB2800FDF7A2F803002100CA
:1040E800226810311203520D60888C18551EAA419F
:1040F8005242114000220009049002910798069943
:104108000597039401960092FDF720F909B0F0BDD8
:10411800436800201B685B681961704743681B6827
:104128001A68526853607047F7B5012143681B68E5
:104138005A6811751D686B682F681C685B68AE68E3
:104148000193002C02D16B681C60F7BD2100300080
:10415800019AB847241A3618F3E770B543680C007B
:104168001D686B681869FCF7D3FF0F220300210054
:104178002868984770BD10B500F019FC10BD10B53F
:1041880000F00CFC10BD7FB500200BAB059303932A
:104198000A9B01220293019003000090FDF74EF85C
:1041A80007B000BD10B501000068FDF78DFA10BD1D
:1041B80010B5FDF7EBFAFDF707FB10BD7FB5002042
:1041C8000BAB059303930A9B012202930190030012
:1041D8000090FDF733F807B000BD10B500210120AD
:1041E800FDF772FA10BD10B5FDF762FCFDF746FA4F
:1041F800FDF750FAFDF7A2FCFEF784FD8620404249
:104208007047002802D162B6BFF36F8F7047BFF3C3
:104218004F8F30BF62B6BFF36F8F704710B5FDF791
:10422800E5FC10B50B6949699847002010BD10B529
:10423800FDF7C8FC002010BD030001200A1FD2B200
:1042480000B582420DD90E290AD80800FBF7B2FF43
:104258000A0A0A0A08080A0A0A0A11111D21210075
:10426800002000BD1A680C234B4398580005C00F66
:10427800F7E70A2907D19B68586829231840434261
:104288005841C0B2EDE7DB68F6E75B685868C004E0
:10429800EDE70120E5E749B2030010B5EA2010294F
:1042A80004DC5868FFF7C8FF0130C0B210BD49B23E
:1042B80010B51400102906DCFDF75CFDFCF782FB45
:1042C8002060002010BD16204042FBE70123F0B516
:1042D8000700002587B05B42039101900293039B7E
:1042E8009D4224D22E006C003C190123029AE35609
:1042F80093420FD16B00F818FB5602220493012356
:10430800C3562100059300F049FB049B0135237037
:10431800059B6370039B01360234B342E5D1019BD0
:104328001B785BB20293019B02330193D7E707B076
:10433800F0BDD0231B065B6800200B6070470A00A5
:1043480010B503691000D96888430100D020000621
:104358004161DC681969214011408162D9681B6993
:10436800114099434162002010BD0A0010B503694D
:104378001000D96888430100D02000068161DC68FC
:104388001969214011404162D9681B69114099435C
:104398008162002010BD03690800DA689043D022CA
:1043A8001206D061DB6800200B40D362704710B55D
:1043B80003695868002821D088421BD108689C6886
:1043C8005860A14200D1986000200860824206D05F
:1043D8005A680A609A685960002A00D199600020DA
:1043E80010E0814206D10868206098688142EBD1CC
:1043F8009C60E9E7040000680028F2D1002AE7D1B0
:104408001620404210BD10B543685B68002B00D0F1
:104418009847002010BD70B50E0015000F2100222E
:1044280030001C00FEF732FB80239B039D420FD017
:104438008023A101DB042340C90FED010AD58900BF
:10444800002B01D00823194301223000FEF71EFB80
:10445800002070BD002BF7D00223F4E710B500222E
:1044680003210D20FDF7FAFA0D20FDF7EBFA10BD38
:1044780030B50469D02000060369E56853400B4055
:10448800AB430D00C361036A53409D432B00E568AD
:104498001D4023692B40C362036A5A400A40E16801
:1044A800236911409943C162002030BD30B50368CB
:1044B800136005790468ED006419A34202D3022051
:1044C800404230BD5C798C4201D00833F0E70020CF
:1044D800F7E770B504008D004519AC4201D1002002
:1044E80070BD2078261D8006800E00F072F92188A4
:1044F800207849058006C90E800EFEF727FAA178B4
:1045080020788A078006C907D20FC90F800EFEF7E8
:1045180035FA6178207849068006090F800EFEF783
:10452800A5FA207861788006C909800EFEF78EFA10
:10453800A178207809078006C90F800EFEF778FA5F
:10454800A178207849078006C90F800EFEF7AEFAD9
:10455800A178207889068006890F800EFEF756FA22
:104568002078A17880068909800EFEF73DFAE17867
:10457800207889078006890F800EFEF723FAE178F4
:10458800207809078006890F800EFEF709FA3400A3
:10459800A3E70020704700207047202243681B686B
:1045A80098691042FCD11960704743681B685B68C2
:1045B8001807C00F5A0701D50822104302221342D8
:1045C80000D01043DB0701D504231843704710B50A
:1045D800036911CB11C1002010BD30B520254368F7
:1045E80000201B689C692C4202D1141A002C00DCA4
:1045F80030BD0C5C01301C60F4E730B51024436812
:1046080000201B68151A002D02DD9D69254200D087
:1046180030BD1D680D540130F4E72022F8B5436819
:1046280004691E680500B36B1343B363237C002B36
:1046380004D0002323746369002B0CD1F8BDEFF379
:10464800108772B628006369A1699847002F02D1C4
:1046580062B6BFF36F8F2022B36B1342EFD1EDE741
:104668000122202103691A7443681A68936B8B43EB
:1046780093637047436801201B689B69DB08984374
:10468800704702694368127A1B68002A06D1196BC1
:1046980001320800FF32104011420BD02022996BE2
:1046A8000020114206D0D96B0130114202D19B691A
:1046B800DB091840704743681A685023916B0B4315
:1046C80093637047502143681A68936B8B439363D5
:1046D800704702694368127A1B68002A06D1196B71
:1046E8008022080092001040114207D09A6B0020E7
:1046F800D20603D59B6901301B099843704743686C
:104708001A68F023916BDB000B439363704710B575
:104718000400FFF7DEFF03000120002B04D1200076
:10472800FFF7AFFF431E984110BD01207047036992
:1047380059619A61704710B503695A69002A0AD00D
:10474800EFF3108472B65A6999699047002C02D128
:1047580062B6BFF36F8F10BD10B50022032114207D
:10476800FDF77CF91420FDF76DF910BD10B5012295
:10477800FDF7A0FD10BDF0B585B017000A9A0290AC
:104788000391934201D2FFF749FD1D0E1E0230002E
:10479800002329000A9AFBF7A9FD00290AD02B005B
:1047A800002402983A0003990094FDF7D7FF0120EE
:1047B80005B0F0BD802304009B00984201D28024FC
:1047C80064000023220030002900FBF78FFD03005E
:1047D800E7E70123D022834010B512069362052132
:1047E8009361FEF7B3F810BD10B543690400002BC0
:1047F80007D100230122E168487802434A705842F1
:1048080010BD98470028F4D0C21783185340FF2BD7
:1048180000DDFF23E2681370ECE7002809D00123CC
:10482800C26800205178194202D0107842425041A3
:10483800184070477FB500200BAB059303930A9B84
:1048480001220293019003000090FCF7F7FC07B0E7
:1048580000BDEFF3108372B6FEE710B5EFF31083D7
:1048680072B6FFF7D4FCF9E7002070470368426886
:1048780013605A60002303604360704710B504005A
:10488800FFF7F4FF0222637B934363730023A36063
:1048980010BD7FB50BAB059303930A9B00200293D1
:1048A80008230422019300900300FCF7C7FC07B01B
:1048B80000BD10B5EFF3108472B6FEF701FB002CB3
:1048C80002D162B6BFF36F8F10BD70B50400EFF36D
:1048D800108572B62823427B1A420BD18368002BBD
:1048E80001D0FFF7CBFF0422637B2000934363735F
:1048F800FEF7E6FA002D02D162B6BFF36F8F70BDE6
:1049080010B501211838FFF7E0FF10BD70B504009D
:10491800EFF3108572B60368002B1AD0FEF71AFE63
:1049280006002000FEF746FE802300221B062261B7
:104938006361A64206D1FEF731FEFEF713FE0021A1
:10494800FDF764FE0020002D02D162B6BFF36F8F21
:1049580070BD16204042F6E710B5FEF741FF10BDC6
:1049680010B5FEF73DFF10BD0300EFF3108272B6DD
:10497800006841181960002A02D162B6BFF36F8F30
:1049880070470300EFF3108272B60068411A19608D
:10499800002A02D162B6BFF36F8F7047002310B5AB
:1049A8009A4200D110BDCC5CC4540133F8E703002F
:1049B8008218934200D1704719700133F9E7030058
:1049C80041188B4202D01A78002A01D1181A704770
:1049D8000133F6E7F0B50D003721C91A8FB0C9B217
:1049E8000D911F2104000B400C930C99E3B2082988
:1049F80055D0102900D164E0E90760080843690828
:104A080006900791A008A9070843A90808900991EA
:104A1800089E099F06980799801979410E07B446A0
:104A2800060900966646009F37430E0900970196CF
:104A3800009E019F801979410E06B4466746060A12
:104A48003E4302960E0A0396029E039F80197941FF
:104A58000E04B4466746060C3E4304960E0C0596B3
:104A6800049E059F8019794100260A910B960A9E9B
:104A78000B9F801979414E07CD080521C40834439E
:104A8800614349005B1ADBB2092B12D901200021CE
:104A98000A3B24184D41DBB21DE00200A5E70721BF
:104AA8000B4069078C466646E008E908064334006F
:104AB8000D00303313702300501C2B43EDD10FB081
:104AC800F0BD0F210B4029078C46664620092909AD
:104AD800064334000D00092BEBD90D99CB18DBB236
:104AE800E7E7000001480068704700004002002026
:084AF800C6BFFF7F01000000B2
:104B000000000000404B0010000000005C4B001053
:104B100000000000784B0010492000100000000049
:104B20008125001000000000D13F001000000000AF
:104B30000D1C00100000000000000000944B00104D
:104B400023520010004E0010B44C001078000020DA
:104B500020000020811E00100000000049520010BB
:104B600000000000A44C00107C00002000000000A9
:104B7000000000000000000063520010440000200C
:104B8000D04C00107E0000202800002011240010CE
:104B9000000000003D520010F84E0010804C001044
:104BA0007A000020540200200F4400100000000092
:104BB00000000000E341001000000000E34100108D
:104BC00000000000E341001000000000E34100107D
:104BD00000000000E341001000000000E34100106D
:104BE00000000000E341001000000000E34100105D
:104BF00000000000E341001000000000E34100104D
:104C000000000000E341001000000000E34100103C
:104C100000000000E3410010944B0010CD20001074
:104C200000000000E341001000000000E34100101C
:104C300000000000E341001000000000E34100100C
:104C400000000000E341001000000000E3410010FC
:104C5000784B00103F47001000000000E3410010B7
:104C600000000000E341001000000000E3410010DC
:104C700000000000E341001000000000E3410010CC
:104C8000512100103B4300107944001047430010AD
:104C9000734300109F4300101F440010B7430010DF
:044CA0009D20001043
:104CA4000D22001025220010352200105122001080
:104CB400311C0010711C001000000000B7420010ED
:0C4CC4009F4200100000000000000000F3
:104CD00075220010A3450010B34500107547001061
:104CE000D7450010E345001003460010234600108E
:104CF000694600108B460010BF460010CD460010DC
:104D00007D460010DB46001007470010A922001066
:0C4D100017470010334700103747001011
:104D1C00BB4F001004000000DB4F0010040000002B
:104D2C00DF4F001004000000A3500010040000002E
:104D3C00B14F0010040000004653001004000000A6
:104D4C00D74F001004000000CC4F001004000000EE
:104D5C00E04D0010080000209250001001000000EF
:104D6C00000A010A020A030A040C050A0605070BCD
:104D7C00080B090B0A0C0B0C0CFF0DFF0E0D0FFF93
:104D8C0010FF0000B7400010000000000000000001
:104D9C000000000000000000725000107A5000105B
:104DAC000000000000000000000000008250001015
:104DBC00865000108A5000108E500010D04D0010FC
:104DCC001C0200206116001034020020C5020020D5
:104DDC000100000063410010000000003141001090
:104DEC0025410010000000001941001000000000D7
:104DFC001000002000800040004002400080024073
:104E0C0000C0024000000640F04E001001000000FF
:104E1C007D00000006000000020000000100000000
:104E2C006400000005000000050000000000000008
:104E3C000000000040597307405973070000000040
:104E4C000000000040597307405973070000000030
:104E5C000000000040597307405973070000000020
:104E6C00000000004059730740597307020000000E
:104E7C0000000000001BB700001BB7000100000081
:104E8C0000000000405973074059730700000000F0
:104E9C0000000000405973074059730700000000E0
:104EAC0000000000006CDC02006CDC020000000062
:104EBC0000000000006CDC02006CDC020000000052
:104ECC00000000001BB70000006CDC020C000000AE
:104EDC00A00A00001000000000000000000000000C
:104EEC0000000000F84E001000000000FFFFFF3F24
:104EFC0065440010084F001001000000104F001016
:104F0C00020000008008000081080400F752001025
:104F1C00055300101953001028530010345300107F
:104F2C00004B0010004B0010204B0010284B0010C1
:104F3C00404B0010404B001048656C6C6F20667243
:104F4C006F6D207072696E746B0A0048656C6C6FC3
:104F5C002066726F6D207072696E74660048656CA5
:104F6C006C6F2066726F6D206C6F676765720025C1
:104F7C00733A2044656275672064657461696C3AA4
:104F8C0020256400536F6D657468696E67206261DB
:104F9C00643A20257000416C6976653A20257500CD
:104FAC006D61696E006D795F6D6F64756C65006322
:104FBC00627072696E74665F7061636B61676500C5
:104FCC007379735F6765746F707400736F63006CD3
:104FDC006F67006C6F675F6D676D74004D65737301
:104FEC006167652064726F707065642062656361CF
:104FFC0075736520697420657863656564732073C7
:10500C00697A65206C696D69746174696F6E2028AA
:10501C00257529000D0A001B5B306D0025732000DF
:10502C005B2530386C755D20005B253032753A2578
:10503C003032753A253032752E253033752C2530AB
:10504C0033755D200025730025732F003C25733EBE
:10505C00200025733A2000253032782000202020B3
:10506C00007C002563001B5B313B33316D001B5B07
:10507C00313B33336D006572720077726E00696E6E
:10508C006600646267006C6F675F6261636B656E7C
:10509C00645F75617274006C6F675F756172740028
:1050AC0072302F61313A202030782530387820202A
:1050BC0072312F61323A2020307825303878202018
:1050CC0072322F61333A20203078253038780072D4
:1050DC00332F61343A2020307825303878207231E3
:1050EC00322F69703A202030782530387820723190
:1050FC00342F6C723A2020307825303878002078A4
:10510C007073723A202030782530387800466175FB
:10511C006C74696E6720696E737472756374696FF1
:10512C006E206164647265737320287231352F7040
:10513C0063293A2030782530387800556E68616ED6
:10514C00646C6564204952516E3A202564005265A6
:10515C0073657276656420457863657074696F6EEB
:10516C0020280053707572696F757320696E7465B1
:10517C007272757074202849525120005350534557
:10518C004C20696E20746872656164206D6F646573
:10519C0020646F6573206E6F7420696E646963613F
:1051AC00746520505350002A2A2A2A2A204841523A
:1051BC0044204641554C54202A2A2A2A2A0041527E
:1051CC0043485F45584345505420776974682072B2
:1051DC006561736F6E2025780A002A2A2A2A2A20F4
:1051EC00257320256429202A2A2A2A2A0061626F25
:1051FC00727428290A000B0A0E0C0F10050A0B0EEC
:10520C000C0F100A0B0D0C0F100B0F100A0F100BBC
:10521C000E0C0507080904636C6F636B2D636F6ECE
:10522C0074726F6C6C6572403430303038303030A2
:10523C00006770696F2D706F727440300072657307
:10524C0065742D636F6E74726F6C6C657240343064
:10525C00303063303030007561727440343030332C
:10526C00343030300048616C74696E672073797328
:10527C0074656D00556E6B6E6F776E206572726F14
:10528C007200756E6B6E6F776E003E3E3E205A4517
:10529C005048595220464154414C204552524F528D
:1052AC002025643A202573206F6E2043505520250D
:1052BC0064004661756C7420647572696E67206950
:1052CC006E746572727570742068616E646C696E50
:1052DC00670A0043757272656E742074687265613A
:1052EC00643A2025702028257329004350552065E9
:1052FC007863657074696F6E00556E68616E646C6E
:10530C00656420696E746572727570740053746193
:10531C00636B206F766572666C6F77004B65726E8F
:10532C00656C206F6F7073004B65726E656C2070CE
:10533C00616E6963006D61696E006F730025733A6D
:10534C0020737461636B20257020666F7220746803
:10535C00726561642025703A206F626A5F73697AA6
:10536C00653D257A75206275665F73746172743D54
:10537C00257020206275665F73697A6520257A75C1
:10538C0020737461636B5F7074723D25700073657C
:10539C007475705F7468726561645F737461636B5C
:1053AC000025733A207363686564756C6572206CB4
:1053BC006F636B6564202825703A2564290025737A
:1053CC003A207363686564756C657220756E6C6FDA
:1053DC00636B6564202825703A2564290025733A8F
:1053EC002074687265616420257020666F722025B8
:1053FC006C75207469636B73007A5F7469636B5F9F
:10540C00736C656570006B5F73636865645F756E64
:10541C006C6F636B006B5F73636865645F6C6F6369
:10542C006B002A2A2A20426F6F74696E67205A65B6
:10543C0070687972204F53206275696C64207634E1
:10544C002E332E302D333730302D673262366532A5
:10545C0038373463343132202A2A2A0A00286E75F0
:0C546C006C6C29002A666C6F61742A00C9
:10547800973F0010B33F0010C84D00100000000017
:10548800000000003742001000000000000000008B
:10549800A02E6300A02E630000C2010000010300DB
:1054A80000000000000000000000000000000000F4
:1054B8000000000000400340004F00100000000002
:1054C80000000000404B001006000000614700107B
:1054D800000000009F4500109B450010C800000018
:0854E80070000020700000209C
:0854F0000000000000000000B4
:0454F80000000000B0
:0454FC0015E015E0C2
:040000051000194985
:00000001FF
