:020000041000EA
:1000000000B5324B212058609868022188439860DF
:10001000D860186158612E4B002199600421596104
:100020000121F02299502B49196001219960352056
:1000300000F044F80222904214D00621196600F024
:1000400034F8196E01211966002018661A6600F04E
:100050002CF8196E196E196E052000F02FF8012189
:100060000842F9D1002199601B49196000215960AB
:100070001A491B48016001219960EB211966A021F2
:10008000196600F012F800219960164914480160C1
:100090000121996001BC002800D000471248134993
:1000A000086003C880F30888084703B5996A0420EC
:1000B0000142FBD001200142F8D103BD02B5186610
:1000C0001866FFF7F2FF186E186E02BD00000240BE
:1000D000000000180000070000035F00212200005C
:1000E000F4000018222000A00001001008ED00E03C
:1000F000000000000000000000000000070B8FD58A
:1001000060250020412100108F5F00102D2100107C
:1001100000000000000000000000000000000000DF
:100120000000000000000000000000001D22001080
:100130000000000000000000AD210010393B00105D
:100140008D2300108D2300108D2300108D230010AF
:100150008D2300108D2300108D2300108D2300109F
:100160008D2300108D2300108D2300108D2300108F
:100170008D2300108D2300108D2300108D2300107F
:100180008D2300108D2300108D2300108D2300106F
:100190008D2300108D2300108D2300108D2300105F
:0801A0008D2300108D230010D7
:1001A80002B4714649084900095C49008E4402BC02
:1001B8007047C046002934D00123002210B4884279
:1001C8002CD301242407A14204D2814202D209017E
:1001D8001B01F8E7E400A14204D2814202D249009F
:1001E8005B00F8E7884201D3401A1A434C08A04242
:1001F80002D3001B5C0822438C08A04202D3001BD8
:100208009C082243CC08A04202D3001BDC082243EE
:10021800002803D01B0901D00909E3E7100010BC2E
:10022800704701B5002000F05FF802BD0029F8D042
:1002380003B5FFF7C1FF0EBC4243891A1847C046F1
:10024800002941D010B404004C40A44601230022E8
:10025800002900D54942002800D5404288422CD3C5
:1002680001242407A14204D2814202D209011B01C0
:10027800F8E7E400A14204D2814202D249005B00BF
:10028800F8E7884201D3401A1A434C08A04202D327
:10029800001B5C0822438C08A04202D3001B9C0868
:1002A8002243CC08A04202D3001BDC0822430028CA
:1002B80003D01B0901D00909E3E710006446002CAC
:1002C80000D5404210BC704701B5002000F00CF882
:1002D80002BDC0460029F7D003B5FFF7B3FF0EBC37
:1002E8004243891A1847C0467047C046D0400B00A1
:1002F800D1409C46203AD34018435242634693402B
:10030800184370471C2101231B04984201D3000C99
:1003180010391B0A984201D3000A08391B09984270
:1003280001D30009043902A2105C40187047C04686
:1003380004030202010101010000000000000000A6
:10034800002B11D1002A0FD1002900D1002802D09A
:100358000021C943080007B4024802A140180290CE
:1003680003BDC04685FFFFFF03B4684601B5029888
:1003780000F0CBFB019B9E4602B00CBC7047C04608
:100388004A02F8B543024400C50F500A84464800A3
:10039800240E000E5F0AC90F9B099209261A8D4286
:1003A80000D09EE0002E42DD8021C90400281ED125
:1003B800002A0AD0661E012C05D19B1801340B4275
:1003C80046D1013C01E0FF2C14D15A0704D00F227A
:1003D8001A40042A00D004335A0100D42EE1013413
:1003E8000026FF2C19D09D4EDB081E4015E0FF2C7F
:1003F800EBD00A431B2E01DD0133E6E72020801BEA
:1004080011008240F140501E82410A439B185A0154
:10041800DBD501340026FF2C1AD1FF23E005DB05CC
:100428007602760A18403043ED072843F8BD002EBF
:100438002ED08026011BF604002C14D1002B00D1ED
:10044800F3E04C1E01290AD19B1802243342B8D08C
:10045800012283491A405B080B401343B5E7FF2983
:1004680006D11300AEE0FF2800D1E0E00C003343D2
:100478001B2C02DD531C0400A7E719002026E140CD
:10048800341BA3405C1EA3410B4304009B18BEE72A
:10049800FE20611C01421ED1002C0DD1002B00D181
:1004A800C7E0002A00D190E79B185A0100D48CE7D6
:1004B8006C4A13400C0088E7002BD2D0FF24002A96
:1004C80000D182E78023DB039F4202D39C4500D200
:1004D8006746FB0076E00C00FF299ED09B185B085E
:1004E80073E7002E25DD00281CD1002A00D16CE717
:1004F800661E012C06D19B1A5A0100D465E79B01A0
:100508009E0975E0FF2C00D15FE701211B2E07DC57
:100518002020801B11008240F140501E824111436F
:100528005B1AE9E7FF2C00D14FE78021C9040A4391
:10053800EBE7002E25D0051B002C0DD1002B08D091
:100548006E1E012D03D10D00D31A0134D4E7FF2DFF
:1005580008D113002C0021E0FF286CD080242E0045
:10056800E404234301241B2E07DC2025AD1B1C00BB
:10057800AB40F4405D1EAB411C43131B0D0004004F
:10058800BAE7FE26601C30422DD1002C14D1002B76
:1005980006D125002600131E00D13EE70D0014E702
:1005A800002A00D111E79E1AD31A7001F6D4331E1F
:1005B80000D00AE7350030E7002B05D1002A49D0E2
:1005C80013000D00FF2400E7FF24002A00D1FCE6F9
:1005D8008023DB039F4200D27BE79C4500D378E76A
:1005E80067460D0075E79E1A700115D50D00D61ADD
:1005F8003000FFF787FE330005388340844210DC63
:100608002022001B0130121A19009340C1405A1EC3
:10061800934100240B43D8E6002EE9D1350034007D
:10062800FBE6104A241A1340CFE6130042E71300F2
:1006380021E71300C9E613000400AFE7DE08FF2C2A
:1006480000D0EAE6002E00D1E7E68023DB03FF2492
:100658001E43E2E680261500F603F6E7FFFF7F1F3C
:10066800FFFFFF7DFFFFFFFBF0B5C30F85B044021E
:1006780045000F1C640A2D0E039302930AD0FF2D28
:100688003BD08023E400DB041C4300237F3D01951D
:1006980000930EE0012301940093002C09D0200060
:1006A800FFF730FE431F9C4076235B421B1A0193E1
:1006B80000957D027E006D0A360EFF0F002E23D0B6
:1006C800FF2E2ED08023ED00DB041D4333007F3B3B
:1006D800002201980399C31A0098794080001043BA
:1006E80001380E2823D8FFF75BFD4D99739992992D
:1006F800734D4D927361616153000223019500931C
:10070800002CD6D00133C3E72B000122002DE0D006
:100718002800FFF7F7FD431F9D4076235B421B1A15
:10072800D6E733000222002DD3D00132D1E764018D
:100738006D01AC4228D31A200122641B0126270030
:1007480052006400002F01DBA54201D8641B32432C
:1007580001380028F3D1601E8441144318007F300B
:10076800002838DD620704D00F222240042A00D076
:100778000434220103D5803318002B4A1440E508BD
:10078800FE281DDD00250FE01B200022013BD5E7D8
:100798008023DB031C4203D01D4201D12C000297A9
:1007A80080250299ED032543FF2009E00399009A6B
:1007B800022AE7D0032A2FD000252800012ACDD10C
:1007C8006D026D0AC0052843C907084305B0F0BD8E
:1007D8002C003900ECE701220025121A28001B2AF8
:1007E800EEDC9E3325009C40D540631E9C4125438A
:1007F8006B0704D00F232B40042B00D00435802333
:100808002800DB0418401D420BD1ED08D8E78024EE
:100818000023E4030293C3E70291C1E700252800FF
:10082800CEE700250120CBE7FFFFFFF7F0B5C30FA8
:1008380085B04702440002917F0A240E03930AD030
:10084800FF2C71D080227F3C26000023FF00D204B9
:10085800174301930CE001233E1E019308D0380092
:10086800FFF750FD7626431F9F407642361A0194C3
:10087800029B5C025D00DB0F640A2D0E02935AD0C6
:10088800FF2D64D080232800E400DB041C437F385C
:1008980000230299039A4A40811901988C468500E1
:1008A80001311D430A2D00DD78E0022D55DC013DA4
:1008B800012D63D9250CA4B226003B0CB8B24643DF
:1008C8005C4368436B4300191F00330C1B189C42A0
:1008D80002D9802040023F181804B6B28619B40124
:1008E800601E84411B0CB60EDB1934439B011C436C
:1008F8001B0168D5012360081C40044308007F30B1
:10090800002862DD630704D00F232340042B00D0A6
:100918000434230103D5803108003E4B1C40E50810
:10092800FE2833DD00254CE0022326000193002F2A
:100938009ED001338DE720000123002CA9D0FFF7BA
:10094800E1FC431F9C4076235B42181AA0E728006D
:100958000223002C9DD001339BE70120A840A62547
:100968000600ED002E4028421DD19025AD002842FA
:1009780047D1B93DFF3D28429CD0029A022BD1D0E5
:10098800032B42D000252800012BB7D16D026D0A38
:10099800C0052843D207104305B0F0BD039A0F2DB8
:1009A80004D00B2DE9D03C00019BE7E78023DB0353
:1009B8001F4203D01C4201D12700029A8025ED0373
:1009C8003D43FF20E2E7614698E7012300251B1A13
:1009D80028001B2BDADC9E3125008C40DD40631E8D
:1009E8009C4125436B0704D00F232B40042B00D0D8
:1009F800043580232800DB0418401D4207D1ED0888
:100A0800C4E780273200FF03D8E72700D6E7002590
:100A18000120BBE7FFFFFFF741024300C20F490A6D
:100A280000201B0E7E2B03DD9D2B02DD084BD0180A
:100A38007047802000040843952B05DD963B9840BD
:100A4800002AF5D04042F3E79621CB1AD840F7E7C1
:100A5800FFFFFF7F002370B50400984209D0FFF71D
:100A680051FC9E231B1A962B08DC082829D008382D
:100A780084406402D805640A204370BD992B1BDDAD
:100A8800020021001B3291400A00511E8A410521B3
:100A9800091ACC40144322000B4D2A40610704D0A8
:100AA8000F212140042900D00432510102D59F238F
:100AB8002A401B1AD408DCE7421F0528EBD09440D3
:100AC800E9E79623D5E7C046FFFFFFFB9140030007
:100AD80090409C46203A9340194352426346D34083
:100AE8001943704710B5002903D1FFF70BFC2030DC
:100AF80002E00800FFF706FC10BDC0460023C25CF8
:100B08000133002AFBD1581E7047F0B506000F00CC
:100B180015001C0085B08B4263D801D1824260D891
:100B280021002800FFF7DEFF390000903000FFF7B2
:100B3800D9FF009B21001B1A1A0028000393FFF716
:100B4800C5FF00900191B94245D801D1B04242D8C1
:100B5800009B019C01200021039AF61AA741FFF788
:100B6800B5FF04000D00039B002B2BD0019B009ABE
:100B7800DB0750081843019B5908039B9C46B94260
:100B88002CD801D1B04229D832003B00121A8B412F
:100B9800012692185B410027B6185F4101235B428A
:100BA8009C446346002BEAD130003900039AFFF7D2
:100BB8009DFB039AA4197D4106000F00FFF786FFED
:100BC800241A8D410A9B002B01D01E605F60200013
:100BD800290005B0F0BD00240025C4E7B6197F41FF
:100BE800DCE700240025EDE7F0B585B0254C2000B2
:100BF80005F057FE00283FD02348216804F0E0FFA5
:100C0800A368022120001B689847011E02DA1F48CA
:100C180004F0D6FF02271E48216804F0D1FF1D48C2
:100C280004F0CEFF0825002301A901930F724B6041
:100C38000B7AA2683B430B72966820000122ABB284
:100C4800B04706001448310004F0BAFF002E03D163
:100C58002900124804F0B4FF32200021013504F0C5
:100C68005DF9782DDFD10E4804F0AAFFFA200021A3
:100C7800800004F053F9CEE70A4804F0A1FF05B05C
:100C8800F0BDC0462C6E0010B8710010CE71001077
:100C9800FE7100100E720010237200102D720010E9
:100CA8004E720010EE71001010B5024B1B68984789
:100CB80010BDC046B0000020014B18607047C04608
:100CC800B000002030B585B004000D0010220021CE
:100CD800684605F07AFF6A4602239370044B2A009F
:100CE80021006846019304F013FC05B030BDC046EE
:100CF800B10C0010F7B504000D001E00019204F0BD
:100D08004DF9030005F0FCFF054F32003B500199F7
:100D18002800A04705F0F4FF385801F027FAC0462C
:100D280008000000F7B5114B114C5B6A0093114B9A
:100D38000193019B9C4202D38620404212E06368E3
:100D4800009DAB420FD32569002D0CD09F78037905
:100D58009C46664643791B023343FF2633409F4235
:100D680001D1A847FEBD2434E3E7C04608070020A8
:100D7800D4030020F8030020F7B504000E00170084
:100D8800144D154B9D4202D38620404218E0134B68
:100D980069685B6A99421BD3AB69002B18D08A78C3
:100DA8000192227994466046627912020243FF203A
:100DB80002400198904204D13A003100200098473F
:100DC800FEBD4A79012A03D13A0031002000984734
:100DD8002435D6E7D4030020F803002008070020B4
:100DE800F8B505000E001700094C0A4B9C4202D3C7
:100DF800862040420AE06369002B01D12434F4E7DD
:100E08003A003100280098470028F7D1F8BDC046BD
:100E1800D4030020F803002010B5040005F076F98B
:100E28000300783301D0002807D1200004F065FFC3
:100E3800024A136883430020136010BDCC070020CA
:100E480010B508220021024805F0BFFE10BDC046BB
:100E5800C307002030B50A4B0A4CA34201D3002037
:100E680030BD1A7F196AD2005218914201D1243339
:100E7800F3E708310D1F2D788542F6D10120EFE701
:100E8800D4030020F8030020F7B56B460479DD1D74
:100E98000E002C70630609D02000FFF7DBFF002846
:100EA80011D000200C4B1B7883420CD020000B4F34
:100EB800002E09D001F03CFDFB69002B02D029006F
:100EC800082098470120FEBD05F0FCF8FB69002BBF
:100ED800F8D029000920F4E7C207002008070020FD
:100EE80010B5084C23785B069B0F0A339B001B59EF
:100EF800181E05D02000044A04499847C043C00F73
:100F080010BDC04608070020100700201807002061
:100F1800F0B585B004000191042813D0012828D128
:100F2800204B1B78002B24D000F0BEFD1E4E1F4B1B
:100F38009E421BD20025336A0293337FAB4204D80A
:100F48002436F4E7FFF77CFFEAE7029BEF00DF199E
:100F5800387905F0DBF80390387904F0CEFE144AAE
:100F6800136883431360039B002B0FDA00220D4B99
:100F78001A700D4D0D4B9D420BD30E4B1B6A002B67
:100F880002D020000199984705B0F0BD0135EDB2B7
:100F9800D3E7EB68002B03D021002800019A98477B
:100FA8002435E7E7C1070020D4030020F803002018
:100FB800CC0700200807002073B56B4686781E70A2
:100FC800437902791B0213436A4653800322C3788C
:100FD800300013406A46137104F08FFE174B05006A
:100FE8001B68174C03420CD0300000F043FD300062
:100FF800FFF712FF05F0FAFC002802D1963005F041
:1010080067FD684605F04EF80300783303D00028E2
:1010180001D0002076BD6B46187801F0B1FC0300C2
:10102800783301D00028F4D123000120B933C43427
:10103800187023682B432360ECE7C046CC070020D8
:1010480008070020F0B5A84F0600BB690C00150082
:1010580085B0002B18D13178C806C00E012800D100
:1010680083E0022800D1FEE0002823D12A687378A3
:101078007F2934D9062B0CD0082B2BD0002B19D163
:101088001370537002332CE198470028E3D10020F5
:1010980012E0F378B1781B0219431B0A1A1FDEB25B
:1010A800012A07D9072B05D8CAB201927A6A17789C
:1010B800002F03D11620404205B0F0BD5178B1424F
:1010C80004D10199814200D103E10130D219EEE740
:1010D800137806E1BA373B781370012301E1052B39
:1010E80013D0092BE6D1F378B2781B027C6A13433C
:1010F80038D1FFF7A5FE3900B378BA310B70FB6918
:10110800002BC4D003209847C1E7B07801F002FC57
:101118000028BCD0CEE76378042B0CD0052B14D064
:10112800022B0AD1F378B27865791B0213439D42EA
:1011380003D1012001E0E37801932378E4182378B0
:10114800002BE8D10028B5D0D3E7F378B2781B029A
:1011580013439D42F1D1019B002BEED12000FFF7F4
:101168002BFFEAE7FF250195E9E72B6802933B008F
:10117800BA331B78002B9DD0737932791B02134345
:10118800DAB294467A6A01921578002D00D191E777
:1011980050780390022803D11079604500D9A5E062
:1011A8005219F1E7029B1A705A70039B99E0019952
:1011B8008A180192A4E00B2A00D07BE70024FF25BF
:1011C800039402950AE0019B5B78042B14D0052B4D
:1011D8002ED0019B019A1B78D3180193019B1B7891
:1011E800002BF0D1FB69002B02D007200399984708
:1011F800002C00D04BE75DE7019BDB780293019B55
:1012080032799D7873791B0213439D42E1D1F378BB
:10121800B2781B021343029A9A42DAD1019B002446
:101228000393072DD5D87B19BB331A700134D0E747
:10123800737932791B0213439D42CAD1B378029A5B
:1012480093420BD0019B9C78200000F013FC2000F7
:10125800FFF7E2FD43425841C4B2BAE70198FFF7ED
:10126800ABFE0400B5E773787F2918D9002B00D0AE
:1012780020E736792D6873060AD03000FFF7EAFDBB
:10128800002800D116E7BA373B78002B00D111E7C8
:101298002900300004F02BFF00236B70F2E6012BCD
:1012A8000AD0032B00D005E7F378B2781B0213436A
:1012B80000D0FFE6012105E0F178B378090219436F
:1012C80000D0F7E63000FFF7DFFD002800D0DEE6AB
:1012D800F0E62A60022B00D0FAE6D37891781B0258
:1012E8000B432360D3E6C0460807002072787F29A5
:1012F80000D860E7002A00D154E70A2A00D0D9E6CE
:10130800019A1278002A00D1D4E601994978042973
:1013180000D04CE7019989788B4200D047E700223A
:10132800072B02D8FB18BB331A78029B1A70D4E635
:1013380013B5154C237D002B1ED1E26801AB80202C
:10134800A168019204F0EAFC019AA3689B18A360C3
:10135800E3689B1AE3600ED1002A0CD02069E38869
:10136800834208DD2300C8331978FEF7B3FF00294C
:1013780001D10123237513BD002180200B000A0031
:10138800217501F025FBF6E708070020002330B59A
:1013980085B00D000193984257D1994236D10B0080
:1013A8000822280002A904F0CEFE002804DA8020D2
:1013B80001F0BEFA05B030BD6B46294C029ADB89B4
:1013C8002260039A25756260264A2561A2606A46F2
:1013D800127AE56052B2002A0BDB802B04D98020F8
:1013E80001F0A6FA0020E3E7002B02D02361E360B6
:1013F800E0E7FFF775FD0028D9D02269E38893421A
:1014080000DD1300E360FFF793FFD3E7144C01AB53
:10141800E268A168002A05DC020004F094FE0028B6
:10142800C8DAC4E704F08FFE0028D8DB019AA36865
:101438009B18A360E3689B1AE360BBD1094BA360C8
:10144800FFF74EFD0028DED1B1E78028B2D1044B6A
:10145800DA68002AD7D11B7D002BD4D1AAE7C04671
:101468000807002040070020054B064A58629A6288
:10147800054A0020DA62054A1A63054A9A617047EC
:10148800080700204D1000102D0D0010E90D001068
:10149800810D0010F0B5040085B0474B009300980B
:1014A80001225242D31702F0AFFF444B444D1B7840
:1014B800002B00D07CE06B6A002B0FD041482C62D7
:1014C800E8616E6A01F020FA01F088F9041E0FDA6B
:1014D800009803F011F8200005B0F0BD00F0B4F852
:1014E800FFF7C2FF6B6A002BE8D101246442EFE7E3
:1014F80000F0FAFA041EEBDB7378012B5AD1F3796A
:10150800002B57D02A000026C832137002AA1000F8
:1015180053801671167004F0C5FD0400B042D7DB85
:10152800802702AB18001F7004F0BCFD0400B04215
:10153800CEDB254B30001900019304F089FD04002F
:10154800B042C5DB3800019904F082FD0400B042C6
:10155800BEDB1E4E1E4B9E4218D3002001F010FA2F
:10156800041EB5DB2E000127C436336880203B43B8
:10157800336001F005FA041EAADB802332685B029F
:101588001343B835002433602F70A1E70024376A6D
:10159800337FA34201D82436DCE7E300FB1818792F
:1015A800196804F055FD00289FD10134E4B2EFE733
:1015B80078249BE7162499E7CC020020C007002076
:1015C80008070020190F001095130010D4030020FD
:1015D800F8030020F0B58BB01122194905A805F0D1
:1015E800EBFA1022002101A805F0EFFA154C12229F
:1015F8000021200005F0E9FA102101A804F0FAFE04
:1016080000281ADD082800DA0820083801AB1B1862
:101618000F2021000022844614276D46985CED199E
:101628000609AE5D654628406D46ED19285C013215
:101638000E7048700231082AEED120000BB0F0BDC0
:101648005E72001049100020F0B5754B8BB01B7806
:101658000393002B02D073480BB0F0BD714C724B52
:10166800029300231D000593049301932378002B14
:1016780007D16E4B02349C42F1D10122684B1A709B
:10168800E9E76078052820D8FEF78AFD9103C8911C
:10169800223F039A08AB1A70402308AA538013000C
:1016A800039A18001A7104F0EEFC00280AD00823E7
:1016B80008AA1000538004F0E6FC002802D0039A20
:1016C80008AB5A8008AB5B88E3712378E418CDE750
:1016D800E378002BF9D1A378002B0CD0049B0133BD
:1016E800DBB20493F1E76A68944207D024359D423F
:1016F800F9D30020B0E74E4D4E4BF8E7AB68002B0E
:10170800ECD0200004999847E8E7002DF1D0002795
:101718002B7F9F42EDD22A6AFB00D3180693A2784A
:101728001B799A4201D00137F2E701260322F3B26E
:101738000793E378134008AA1371637922791B028F
:10174800134308AA5380A3787F2B22D933000122A0
:1017580010339A401300029A1A4224D18023079A20
:10176800134308AA1000137004F08DFC00281AD146
:1017780008AB1B78069AA37013715BB2002B0FDAC3
:101788000123079F1037FFB2BB40029A1A43029207
:101798009BE70123B340029A1A4204D1F3B2E0E76F
:1017A8000123B340F1E70136102EBFD1BBE7059BFB
:1017B800032B1BD1FFF70EFF061E0AD0FFF79EF979
:1017C800021E06D0A01C102A00DD1022310005F0F0
:1017D800F3F92378E2185B08E318911E121B032A19
:1017E80015D5059B0133DBB205936EE7059B002BEE
:1017F800EFD1019B002B00D17BE7019AE31A93708C
:101808009BB21B0AD3701300049A1A71E9E7039A72
:10181800013B4A705A780A700A00DEE7019454E7DF
:10182800481000200803002001000100D103002017
:10183800D4030020F8030020094A0023110010B542
:101848001478844205D15468002C02D09B01C81832
:1018580010BD01334032042BF2D10020F8E7C04616
:10186800D4070020F0B504002C3C636805002678F6
:1018780085B010330AD1E16BE2688B072FD5002AB7
:1018880018D10423194213D000236360636810330E
:101898000CD0236967690193A369009305F0A6F842
:1018A80000283FD02900254805F088F805B0F0BD8C
:1018B8000B43E3633000A16803AB04F02FFA002860
:1018C80002D016235B42E0E7039AA3689B18A36043
:1018D800E3689B1AE36023699B182361D6E730000D
:1018E800A16803AB01F0CAF80028EAD1039FA368F6
:1018F800DB19A360E368DB1BE3602369DB19236161
:10190800002FC1D0300004F031FC01003800FEF790
:101918008DFC0029B8D1E368002BB5D0300001F068
:10192800F5F8B3E760612800103802F031FE002FA7
:10193800BCD03000009A0199B847B7E7F8030020F7
:101948004B1E73B506000D00012B0FD8FFF774FF6F
:10195800041E0CD1012D09D1694601AB01223000CA
:10196800033101F08BF8019B002BF5D173BD05F015
:101978003DF821002C31002801D0012D03D10800A9
:10198800FFF770FFF2E7024805F018F8EEE7C046E7
:10199800F8030020F0B587B0060005910292039382
:1019A80004F005FA00285AD1EFF31083049372B6B5
:1019B80007002C4B019300220023019802F01AFE25
:1019C80000280AD1284BBA019C18656829001031F3
:1019D80014D1019802F0DCFD07E0019B0137403388
:1019E8000193042FE7D10C256D42049B002B02D1F3
:1019F80062B6BFF36F8F280007B0F0BDD654059BC1
:101A08002061A360029B3000E3600C9B6361039B31
:101A1800E3630D9BA36110235B42636004F0A6FBA4
:101A280000280CD0300004F0A1FB01000298FEF75A
:101A3800FDFB002903D00423E26B1343E363039BFC
:101A48009B0707D5094BB9010948C91804F0B6FF27
:101A58000025CAE7300001F059F80500C5E7102550
:101A68006D42C8E7F0070020D407002000080020D6
:101A7800F803002010B5EFF3108472B6FFF7DCFE10
:101A8800011E09D04368103306D18C235B424360A2
:101A98002C31044804F092FF002C02D162B6BFF347
:101AA8006F8F10BDF803002070B500250C4CEFF3C4
:101AB800108672B66368103307D18C2321005B420D
:101AC800084863602C3104F079FF002E02D162B619
:101AD800BFF36F8F01354034042DE8D170BDC04687
:101AE800D4070020F803002070B500250126084C13
:101AF8002000084904F04AFF200032003100103865
:101B0800013504F007FF4034042DF1D1002070BDE9
:101B1800000800206D18001010B5016901220B00A3
:101B28004B331A700B68002B08D00B0049331B7815
:101B3800002B03D00248083104F040FF10BDC04616
:101B4800F803002010B5036901211A004A32117008
:101B58001A68002A08D0190048331B780831002B6E
:101B680002D0024804F02AFF10BDC046F803002046
:101B780070B50569EFF3108672B62B0090331868BC
:101B880004F079F80400002E02D162B6BFF36F8F1B
:101B9800002C06D02900002200230348183102F047
:101BA800D3FE200070BDC046F8030020130070B5B6
:101BB80014000D001100012248331A7023680831FF
:101BC800002B07D023004A331B78002B02D00D4886
:101BD80004F0F4FE230090331B685A89DB889A428C
:101BE80006D1002D0DD121001831FA22920004E00F
:101BF800210000221831002DF7D00023014802F0FF
:101C0800A3FE70BDF803002070B506000D00017931
:101C18001248140004F0A9F800281BD03278737811
:101C28007F2A10D8202B03D0222B08D0862012E040
:101C380007222168103804F0BFFF002070BDB37878
:101C480009380370F9E7212BF0D110381A3B2060CE
:101C58002B60F2E713204042F0E7C046D808002086
:101C6800054B010010B5180004F08CF8002802D0CC
:101C780001230738037010BDD8080020030070B591
:101C88000025040048331D8007220949943004F0D8
:101C980093FF230020009C331D70013B1D7003330C
:101CA80029001D809D7040224C3004F08EFF70BDCD
:101CB8001870001010B5046900222300A4331860BE
:101CC8005A600B4A0433516800290DD153601360E0
:101CD80020000849083004F059FE20000649183051
:101CE80004F078FE002010BD0B605360F0E7C0469A
:101CF800D8080020E75D0010791D001073B56B4609
:101D08000469DD1D2300002248331A702970EFF39F
:101D1800108672B62300903301222900186803F058
:101D2800AAFF002E02D162B6BFF36F8F01280DD033
:101D380004F05CFE002804D12300A1331B78002B9B
:101D48000CD101220021084804F01BFF21000A22BF
:101D580000231831054802F0F7FD73BD00210A2061
:101D680003F0DCF8D3E7C046D4080020F8030020CD
:101D78007FB503008C331B6805005B681B6A1E7DFA
:101D8800300004F014F800282FD12B0086331B787C
:101D9800002B2AD0A86F4289C3889B1A80229BB245
:101DA800D200934200D91300010003AA0A3103F0BC
:101DB80012FF002819D02B00002230331A703F235D
:101DC80003405A425341C41A2B00183B0193074B56
:101DD80022000399009330000223FFF7DBFDA86F70
:101DE800220001000A3103F02DFF7FBDB51B001052
:101DF80073B505001400002925DD16000A0021002E
:101E08008C3630684C3103F036FF23000122493309
:101E18001A702368002B09D023004B331B78002B42
:101E280004D021001048083104F0C8FD32689388B6
:101E3800918912695B1A9BB2D31A3F2B03D80123ED
:101E4800A034237073BD23009E331B78002BF9D078
:101E58002100064B40220093280001234C310194B5
:101E6800FFF798FDEEE7C046F8030020F91D0010C3
:101E78001D4BF7B50F000100180003F06BFF041E9F
:101E880023D005000368781E5E68A43D05281CD889
:101E9800FEF786F91C1B031C2024A31F19780029B0
:101EA80013D101221A70336A2A00187B5C3CFFF7B1
:101EB8009FFF2178002908D1336A0A00187D0B4B4F
:101EC800019500930223FFF765FDF7BD2800FFF792
:101ED800D5FEFAE70123053C2370F6E7053C237895
:101EE800002BF2D00023F7E7D8080020B51B00101C
:101EF80037B5012300258022064C074920000095AC
:101F08005B42D20002F0DCFC2000044904F074FDBE
:101F180028003EBDF80300206010002079720010F0
:101F280010B5034A03480021121A04F01EF810BD28
:101F380060100020F80300200648074A10B5121A5E
:101F4800064904F016F8064A06480749121A04F02A
:101F580010F810BD00000020F8030020C074001025
:101F68000000002000000020C074001070B50500BB
:101F78000C1E13D08B684A680F48096803F020FECE
:101F88000E4863692269E16803F01AFE0C48E169AA
:101F980003F016FE0B48A16903F012FE012D05D1CE
:101FA800EFF305810848103903F00AFE28002100E4
:101FB80002F05CF870BDC04682720010B272001068
:101FC800E2720010F27200102173001030BFFDE7BA
:101FD800F7B50A4B0A4D0600EF18CC1B2A00200063
:101FE8000849019304F0E8FD60190021019A04F002
:101FF800ECFD3800083C74660830FEBD04000000A3
:102008000000000018700010054B5A699B689A423E
:1020180005D08023034A5B0551680B435360704722
:102028001410002000ED00E0F0B52D4B04005F68AF
:1020380089B0FD05ED0D62B6BFF36F8F130EFF2B50
:1020480006D1F33B1340082B33D1264803F0B8FDE3
:1020580000263400032D32D1234803F0B1FDA369D3
:10206800224A934202D3224A934205D3214A9342F9
:1020780030D3214A93422DD2023B1A881F4B9A42F1
:1020880028D11F48216803F09BFD256820222100E4
:10209800684604F091FD079B002E1DD0DA0502D199
:1020A800184A1343079369462800FFF75FFF09B0F2
:1020B800F0BD01261207CDD50C000026CAE7F8238B
:1020C8005B0011491F4200D010492A001048103AFD
:1020D80003F076FD0025D9E75B0A5B02E2E7C0461C
:1020E80000ED00E0637300108F730010A80100106A
:1020F800286D0010000000200000002002DF000012
:10210800A7730010FF010000357300104A73001018
:10211800C47300100821024A53698B435361704706
:1021280000ED00E0EFF30880EFF3098101B5724696
:10213800FFF77AFF01BDC046094880F3088872B6E8
:1021480008480949401880F30988EFF314800221F0
:10215800084380F31488BFF36F8F03F020FF00005B
:1021680060250020601800200008000010B50A4B08
:102178009B6883420DD1EFF30583002B09D08022A1
:10218800064B520559680A435A605A6A04490A407C
:102198005A6202F009FF10BD1410002000ED00E0A3
:1021A800FF7FFFFF15498A6815481044EFF3098C33
:1021B800F0C043464C4655465E466746F8C072B680
:1021C800104F114E4A698A603E60104C14192068FD
:1021D8000F4C2060906E00239366002800D162B6F1
:1021E800074C10191030F8C89846A146AA46B346BD
:1021F800BC462438F0C88CF30988704714100020B6
:102208003000000004ED00E0000000086400000059
:10221800E008002004207146014202D0EFF3098053
:1022280001D1EFF308808169023909780229FFD0CA
:1022380001B5724603F0A1FE01BDC04643B20006D7
:1022480005D41F221A4001239340014A13607047A6
:1022580000E100E043B2000609D41F221A4001231E
:102268009340034AD367BFF34F8FBFF36F8F704715
:1022780004E100E030B5FF2503220B00290040B23D
:102288000240D20091409B012B40C9439340002853
:102298000ADBC0240A4A800880008018A40002597A
:1022A8000A401343035130BD0F2210400838054A35
:1022B800800880008018C26911401943C161F2E7A3
:1022C80000E100E000ED00E0FF22044B9343044AE4
:1022D8009360BFF34F8FBFF36F8F704700010010FB
:1022E80000ED00E010B5203A1360029B0124536012
:1022F800039B06499360049BA143D36080235B043E
:10230800D361002391610265836610BDFD0C001046
:1023180070B50B4B15009860426E0A4B0E001A60A0
:102328002C1C86F309880020034B9847201C0021A9
:1023380000220023014C2047C35F0010FD0C001051
:1023480014100020E00800201022014B1A61704789
:1023580000ED00E0F0B5C02400220326FF25A4000C
:1023680010002F003040C0008740054993089B00AB
:102378005B1819590132B94319511A2AF0D1F0BD25
:1023880000E100E010B5EFF30583054A103BDB00E0
:10239800D118496898588847FFF736FE10BDC046DF
:1023A800486E001010B5024B1B689847002010BDFE
:1023B800E4080020034B044A1860022391780B4379
:1023C80093707047E4080020F400002010B504481A
:1023D80003F0F6FB62B6BFF36F8F0423181C02DF0D
:1023E800D8730010072310B50449054A99430548D6
:1023F800521A03F08DFB002010BDC046DF310020CB
:1024080000200420E80800200200802103008A43FD
:1024180000200F2A08DC5AB20448002A00DA0448CF
:102428002C228B435343C0187047C046F80800203D
:10243800B80B002070B50400FFF7E6FF036A05003B
:102448001B685B0526D566B201F026FD012816D962
:10245800114B64001C40F343DB0F1C430123A340D2
:102468000E4A0F4913664A6E1A409A42FBD1296AEE
:102478000C480A6802400A600B4A136604E02A6A9C
:10248800084913680B401360002E03DA28000C304B
:1024980002F07EF870BDC046FEFEFFFF002011501E
:1024A80000001150FFFBFFFF00301150F0B589B05C
:1024B8000E22524200240392002600278022104D4B
:1024C8000696079728000F4B0F490494029401942D
:1024D8000094D20002F09AFA0C49280004F08CFA11
:1024E8000B4883681B68A34205D007219847A04280
:1024F80004DC09B0F0BD58204042FAE72000F8E7B4
:10250800880400205D25001060140020E17300108D
:10251800A06D001010B50100024C200004F0E9F98C
:1025280010BDC046E00200201FB500246B461C7198
:10253800062302936B4600221C7301A80023FFF7B1
:10254800E9FF024B024A9C541FBDC046F408002014
:102558008B050000F0B5802501267642F71785B077
:102568006D0011483B0001A9320001F0F1FE6B46F5
:102578001979002910D01C7B2000FFF745FF02992C
:10258800002902D1094B0A4A9D524368002BE8D022
:102598002000C9B29847E4E7044B1B68002BE0D041
:1025A8000298C0B29847DCE7E0020020F408002057
:1025B80084050000F0B57D4B89B01C687C4B1C423B
:1025C80006D07C4B7C4A9B5C002B01D0FFF7ACFF0C
:1025D800E3060AD500260127784B9B6D0193019BE2
:1025E800002B02D0202E00D0A5E0E30320D58022C6
:1025F800734B92021A658020FFF71CFF6D4D6B6AC2
:102608001B685B0502D50020FFF714FF01226D4B04
:1026180002A9EA54BB239B00EA5400232C350B750E
:102628002A70069305A80A7300230022FFF772FF99
:10263800A30418D580230021614A02A85B02136510
:10264800017201705D49086D184200D0A4E00420B1
:1026580003905D480068002800D0A0E00022002315
:1026680002A8FFF757FF23050ED50121544B564A00
:1026780019651268002A07D0504A106D802252024C
:10268800084200D0514BDA64E3041BD580220025B0
:10269800B0264B4B12031A65484B4D4F1D60B600D0
:1026A80078192C3501F074FFB542F9D1002302AA3C
:1026B80013720122039202AA137002A800220023B7
:1026C800FFF728FF63040ED510223D4B05A81A65B5
:1026D800002302AA13730522069202AA1375002288
:1026E8000023FFF717FF230405D58022344B12017E
:1026F8001A65FFF719FFA30603D58022304B12068F
:102708001A65630603D580222D4B12051A65230628
:1027180003D580222A4BD2041A65E30503D580220B
:10272800274B92041A65A40503D58022244B520432
:102738001A6509B0F0BD019B3B422AD0204B7510A9
:102748009F650123EDB21E4216D1002E09D1194B07
:10275800204A995C002904D09E541F4A9B5C174A62
:10276800136080235B421D43EDB22800FFF74CFE47
:102778000C3001F00DFF0223012102AA1575117317
:1027880005A8069300220023FFF7C4FE019BBB4364
:1027980001937F00013622E7022303935EE7096D68
:1027A800C90700D55AE7D36458E7C04698001150C6
:1027B80010000100F40800208B05000000001150F3
:1027C8000030115084050000800E002000201150B8
:1027D800C40B0020860500008A050000F0B53C4DBA
:1027E80085B0286800285BD180233A4A5B041360CF
:1027F800394A3A4913601E000A689643FBD1384C9F
:102808009C223100200004F0E0F980223100354894
:10281800520104F0DAF9092363672B68002B01D110
:102828000C33A3670123236480239B05E3642E4AAA
:102838002E4B2F4E1A6000232E4D2F4F01933B1F16
:1028480077626B61019B002B3AD03B00803B33627F
:10285800043B2B61019B294ADB019A18B262284A82
:102868009B18AB6101222800110004F053F8019B6A
:102878000837013301932C362C35102BDFD1236D0B
:10288800DB0703D580221F4B5202DA6400220321A2
:102898000520FFF7EFFC0520FFF7D0FC00200DE036
:1028A800002103AA03F025FE002807DB039B002272
:1028B8001979186803F030FE002895D005B0F0BDEE
:1028C800BA210F4B0A4A890093625350CAE7C0469F
:1028D800800E002000E0004000F0004008C00040EA
:1028E8000000115000001050F0FB01009000115042
:1028F800F4080020C40B0020840010504001105040
:102908000001105000201150014B18607047C0465C
:10291800F40800200121034B034A9954034A9854B0
:1029280000207047F4080020860500008A05000092
:1029380070B50400FFF768FD051E1CD080231B013D
:10294800620613D164B20D4A002C07DB022191669E
:10295800026A136001230020EB7070BD01219166AB
:10296800026A13600020FFF765FDF3E7026A13604F
:10297800802CEFD1F6E716204042EEE700201150F8
:1029880010B50400FFF740FD00281BD00023026AA1
:102998001360020028321370C169994209D0426A53
:1029A8000A4B5340827892061343A022120613431F
:1029B8000B60002063B2834203DD4021200003F056
:1029C80053FB10BD16204042FBE7C04600001050E4
:1029D800F7B5060014001D000191FFF715FD00284A
:1029E80044D073B2002B41DA802E0DD1214B224AFC
:1029F8009B5C002B05D0002D00D02C6000263000F9
:102A0800FEBD4027BC4203D80788A74200D927004B
:102A18000C3004000022002301F0ECFD002827D12F
:102A280003F0E4FF002802D10530FFF713FC300063
:102A38003A00019903F0D6FA061E0ADB03F0D6FF26
:102A4800002802D10530FFF7F9FB002DD7D02F6001
:102A5800D5E7200001F09CFD03F0C8FF002802D153
:102A68000530FFF7EBFB05267642C8E71626FBE79D
:102A78000B26F9E7F408002084050000F7B50600E6
:102A88000F0000920193FFF7BFFC051E34D073B20C
:102A9800002B31DB002E19D1194B1A4A9B5C002BF5
:102AA80014D00824002F0BD0009C082C00D908242F
:102AB80022001549380004F07FF8AB681B19AB6099
:102AC800019B002B00D01C600020FEBD300003F0ED
:102AD80032FBAA68841A002FF2D0009B9C4200D9CE
:102AE8001C00002E04D1064B06495B5C002BDFD18D
:102AF800696A89182200DDE716204042E5E7C046EA
:102B0800F40800208505000000001050F8B5040006
:102B1800FFF77AFC061E32D063B2002B2FDB002CA5
:102B280026D1184D184B194FEA5C002A0ED0FA88A6
:102B3800002A08D0B122D200AC52EC544021200027
:102B480003F092FA01E0EA540020F8BD200003F0F7
:102B5800F2FA3B787F2BF7D8B122D200B168AB5A92
:102B6800FE885B18B342EFD28842EDD1AB52E5E75D
:102B7800200003F0E0FAB3688342E5D1DEE71620CF
:102B88004042E2E7F40800208505000000001050EC
:102B980049B24368102916DC0A290BD00B2910D03A
:102BA8000C224A431B689B18802292019B188022A2
:102BB800120103E09B68054A9B182D2200201A6029
:102BC8007047DB68F7E716204042F9E70430000059
:102BD80049B24368102916DC0A290BD00B2910D0FA
:102BE8000C224A431B689B18C02292019B18802222
:102BF800120103E09B68054A9B182D2200201A60E9
:102C08007047DB68F7E716204042F9E70420000028
:102C1800802310B5084A5B041360084A94691C4273
:102C280002D01620404210BD016092691000184081
:102C38001A42F8D0F5E7C0461830064000000640B2
:102C4800030010B508000B2907D8FDF7A9FA0909F0
:102C580009091220282C2C2C33330120404210BDA6
:102C68001A680C234B439B58134ADB051B0FD0569D
:102C7800F5E7124A0E201368116803220C0014406D
:102C88001142ECD00E4A0238022CEED1E7E70D4A89
:102C98000420136812689207E1D00B4AE5E70B4B52
:102CA8000B4A1B68E1E70C234B430A4A9B181B6835
:102CB800094ADAE70C20D2E7FF73001030800040A1
:102CC800FC7300103C800040F67300104880004000
:102CD800EF73001000800040E9730010F8B506009B
:102CE8000C00756821002800376903F049FA0028AC
:102CF80000D16DE00E2C00D96AE02000FDF750FAF3
:102D08000808080808082A08080830306A626600B7
:102D1800210028002F68FFF793FF01003000FFF71C
:102D2800DDFF0C236343FB185E68051C5868C0B2BE
:102D3800FDF790FE2849FDF797FC041C300AFDF7C3
:102D480089FE011C201CFDF71BFB011C281CFDF73C
:102D58008BFCF8BD06212800FFF772FF0400C0E7CE
:102D68000A2C2DD1AF6821002800FFF769FF010068
:102D78003000FFF7B3FF061CB868FDF76BFE311C87
:102D8800FDF754FD061C3F203D68FC682840FDF710
:102D980061FE011C301CFDF767FC0725061C200C92
:102DA8002840FDF757FE011C301CFDF75DFCFF684D
:102DB800041C380B2840FDF74DFE011C201CC6E7FB
:102DC800EF68D0E73868FDF745FEC2E77868FAE7AC
:102DD8000020BEE70148BCE700007F43001B374BDB
:102DE800F0B544688FB0A36822220393E3685F4973
:102DF80005A804932568276903F0DEFE5C4B5D4A4D
:102E08001A605D4B5D4A13601E005D4A1268964366
:102E1800FAD10C21300001F037F8AE6701F020F844
:102E28000321584BDA6B8A43DA635A6C012AFCD1C6
:102E380003211A6B8A431A639A6B012AFCD1E2694F
:102E4800514B03985A43636A0093236AA16900F0BF
:102E5800A1FFE26A4C4B04985A43636B0093A16A42
:102E6800236B00F097FF112105A803F0D3F9730035
:102E780005AA9956C8B2092867D90136112EF6D184
:102E8800C0239B01EA1880231B0113603F4A3800C6
:102E9800AA1813603E4A1430AA1813603D4AAD18A8
:102EA8002B602300AA25D83319682D012943FFF781
:102EB800AFFE002855DB2300DC331B683649380099
:102EC8001943FFF7A5FE00284BDB2300E0331B68FE
:102ED800002B48D029001F2B00D859193800103072
:102EE800FFF796FE00283CDB2600E43631682B4DC0
:102EF80089B22943381DFFF78BFE002831DB3800E3
:102F080031680830090C2943FFF782FE002828DBC6
:102F1800234B1A4A13601A4B1B68DB43DB01DD099C
:102F2800002BF8D12900606902AA03F0E2FA002810
:102F380007DB029B2A001979186803F0EDFA0028CC
:102F480001DA831C0DD100200BE0090161180B6C1C
:102F580000934B6CCA6B896B03F030FC00288CD152
:102F680016380FB0F0BD0F49B8E7C0461F70001003
:102F780000E00040BFCDFBFEFE7F3C0000F00040BB
:102F880008C0004000800040001BB7000C30000063
:102F9800183000002430000000B0FA0000009696B7
:102FA800FFFFFF01A10A000010B5084803F079FCF3
:102FB800002808D0064C2000FFF7FCF92000FDF798
:102FC8007BFE002010BD13204042FBE7D86D0010A7
:102FD800DD2F001070B50400074D0A2804D1AB6836
:102FE8000D2128005B689847AB6828005B68E1B250
:102FF8009847200070BDC046D86D0010D0231B062E
:103008001B685A4253412F225B429343064A9B183E
:103018001A001068002804D10432D11A0C29F8D9F2
:1030280070470120FCE7C04650410140F7B50369ED
:1030380007000193D0231B061C68002563425C41EE
:103048002F2364429C43184BE418EB081A000832FB
:103058009200115907222A409200D1400F200142C4
:1030680003D101351E2DF0D1F7BD0F2191403C331E
:103078000E4A9B009950019B59680029F1D0012301
:10308800AB400E6800930029EBD08B68009A00983B
:103098001A40034202D038004B689847331E00D0CC
:1030A800336831001E00EEE7304101400040014026
:1030B800F8B50D00141E066910D11100280000F0A3
:1030C8002FFF284BAD00EB181A6880235340C0220D
:1030D8001340254AAD182B600020F8BD012752097E
:1030E800210928003A40394000F01AFF052128003C
:1030F80000F0FEFE802321005B0219401C421AD01A
:10310800D023AF401B069F62A303E5D5012003002F
:10311800F268AB40A10719D51A43F260D022316991
:10312800120665070BD519433161A40C936104425B
:103138000AD05362D0E7280000F08AFFE4E79943F9
:103148003161E40C5361F2E79362C5E79A43F26098
:10315800D0221206210301D55361EAE76403E8D5BA
:103168009361E6E704C0014004D0014070B54368AC
:1031780002690807400F01381C68116203284DD8FE
:10318800FDF70EF8022131411025585F254D4019F1
:103198002500A0352E680736864201D328680830F6
:1031A800508612201B5EF533FF332868053098429D
:1031B80001D32B68063300209BB21386236C10239F
:1031C8000B43136270BD1025585F25006D30A03584
:1031D8002E680736864201D32868083050861220A8
:1031E8001B5E5D33E1E71025585F2500A0352E688A
:1031F8001F300736864201D32868083050861220CF
:103208001B5E1F33D1E710003D300078002805D041
:103218001025585F25006D30A435D9E716204042A7
:10322800CCE7C04671020000F7B54768060005699B
:10323800B869002808D10021786901AA03F059F972
:10324800041E0ADA2000FEBDF9698368DB68002BDA
:103258005AD09847041EEED0F4E7019B0022197952
:10326800186803F059F9041EECD1012201005242FA
:10327800280003F04FFB012228001100103003F052
:1032880049FB012173681B68DA6E8A43DA66DA6ED5
:1032980003318A43DA661A00FC3211681B4A9142EC
:1032A80002D005246442CDE706221B683000134093
:1032B800063B5A4253412A003D3213707B689847B7
:1032C800BA68134906238A4209D013D81149043B26
:1032D8008A4204D0104BD3185A4253419B00102104
:1032E800194330002962FFF741FF041ED9D1343554
:1032F8002870A7E7094908238A42F0D00849023311
:103308008A42ECD02300EAE75824CBE7400157442F
:1033180040420F00A086010080E5F9FF40E133003C
:10332800404B4C00F0B5436885B01B68060001931C
:10333800DB6A04690393019B1B68DB071ED5814A7E
:103348000399042311421BD03434237003F06AF824
:103358000022736830691B681A631B6C73681B7BD7
:103368005BB2934208DB1F3213401E3A9A401300A7
:10337800C022754952008B5001F00AF905B0F0BD22
:103388006A46157B039A08271A420DD110210D426F
:103398002CD1039B9B05F1D5019B1B6ED8E7300010
:1033A80003F040F80028F1D1019B1B6F3B4213D07A
:1033B800A36A002B10D0019B626A1B69DBB21370F1
:1033C800636A01336362A36A013BA362E36A013B58
:1033D800E362A36A002BE2D1A36A002BD6D12200B4
:1033E8000221343213788B431370CFE722007368BD
:1033F8003C321F68012310789C46356918424AD12F
:10340800AB6A002B13D13B6B34358B4361463B636E
:103418002B788B432B70A36A002BBAD113789B07A8
:10342800B7D495E7300002F0FDFF002831D1022221
:103438003B6F134205D1A36A002BAAD13C342378F1
:10344800EDE7AB6A002BF6D0290004206B6A3C310B
:103458001B780A78DBB2024205D08020C000034303
:10346800042082430A70AA6A012A08D12A0002218C
:103478003C3212780A4202D08022920013433B6108
:10348800AB6A013BAB626B6A01336B62FB6A5B063A
:10349800C8D5A36A5CE7AB6B0293002B03D13B6BE7
:1034A8008B433B63B7E73A00F4321268BB6F1104F1
:1034B8009446EA6A090E01319A188A1A07D5A36A4E
:1034C800002B00D065E7800700D562E740E7029B44
:1034D800786F8B4200D90B0061460902090E013151
:1034E800091A914200DD11000291994200DD029310
:1034F800029B002B9FDD2A0004213C3213780B42EB
:103508001CD08B431370A023DB00022112780A42DF
:1035180005D0AA6B012A02D1802292001343300001
:103528003B6102F07FFF002885D1EB6A0133EB6233
:10353800AB6B013BAB63029B013BD8E780235B008D
:10354800E3E7C0464B40000000E100E0F0B500258D
:1035580085B00600009101920393AA4200D106E1CA
:10356800436804691F682300103302930122524202
:10357800D317029801F03EF8051E00D0F7E02500A9
:103588002F2234352B78934306D0306902F081FF1F
:10359800002800D0EEE02870300002F09CFF1025D3
:1035A800002812D122000823343211780B431370FB
:1035B8000122736831691B68DD6E9543DD66186307
:1035C8000D6A186CE80602D416256D42C7E09026ED
:1035D800612036013043154201D0182210430722DA
:1035E8006D082A406E0778D40626354200D083E05D
:1035F800012AE9D14D8E9D610D8E5D61062552002F
:10360800A8431043002218609A63DA635A6818685E
:10361800C00777D50398920A8005800D920202436D
:10362800096AC80604D5C9076FD5802149010A432C
:103638005A600122FB6E1343FB66009A009B526896
:103648001B68002A04D1002B02D00121009A516086
:10365800220000203C3211786362009B5B68A36201
:10366800009B1B7A13705940E0620130014202D07E
:1036780004210B43137026000321343633788B431F
:10368800337001231278023913400A4240D132784C
:103698000A4332700122A3633B6813423ED0364B83
:1036A8003B63FA2200232000920000F0A3FF051ECE
:1036B80037D03B68DB0708D50223FA6E1343FB6655
:1036C8000A220023200000F095FF00233B633B6C97
:1036D800200000F0B5FF742577E7042A00D073E7CF
:1036E8000A003D321278002A00D16DE74A8E9A62AC
:1036F8000A8E5A62032281E74A8E1A620A8EDA61BA
:1037080002227BE7039898608AE71C490A408FE702
:103718000223327813433370A36ABBE798239B00D4
:10372800BEE70422337813420DD1A36A002B0AD1D5
:1037380033781732934308D033783F2B1AD8242391
:1037480032781A420BD005253FE7009B0C330093D3
:10375800019B013BDBB20193002B00D06DE72F22C8
:103768003434237893432370029800F011FF280023
:1037780005B0F0BD3E2528E75F020000FFEFFFFF20
:1037880001208840034B1B680340591E8B410020D1
:103798001370704700C0004001238B40014A00208D
:1037A8001360704700E0004001238B40034A04493E
:1037B800136018000A689043FBD1704700F000407E
:1037C80008C0004001238B40044A05491360054A9C
:1037D800136018000A689043FBD1704700E000406E
:1037E80008C0004000F0004010B5436800691B683D
:1037F800007A1A6B002803D107480240824208D198
:103808009C69102220001040144202D11B680B70E2
:1038180010BD01204042FBE7010200004368034954
:103828001A68936B0B4093637047C0467FF8FFFF9D
:10383800F0B5436889B00693036901910593069B27
:1038480007921B6805000493059B1B7A002B00D088
:1038580090E0002A0BD001221021049B1B6B93439C
:10386800049A136343681A68D36A8B43D362049B30
:10387800DC6AEE239C43019B1B79012B06D0022BAB
:1038880016D0002B04D0862040425CE002231C4363
:10389800019B5B79012B03D0032BF4D105331C4327
:1038A800019B98790328EED8FCF77AFC06041315D7
:1038B8000623ECE720231C43019BDB79002B0CD06B
:1038C800012BE0D16B681A68C023116B1B020B43F4
:1038D80008E04023EFE76023EDE76B6827491A68A3
:1038E800136B0B401363059B40267642F717D86885
:1038F800019B810E1A68800100231201FCF720FD4C
:1039080003910290029A039BB6185F41696809689F
:10391800002F2DD11A4886422AD8039B029A98066E
:10392800029B9B0903434B623F231A408A62BFF301
:103938005F8FCB6A0822CB62049B01990598DC62F1
:1039480003F03AF93800079B002B0FD0069B1B7F2A
:10395800002B05D16B681A681023D16A0B43D36218
:103968006B681A680123116B0B43136309B0F0BD30
:10397800162089E786204042F8E7C046FF3FFFFF50
:1039880080FF3F00F0B5456804000769A8682E6805
:1039980085B0002857D1286900285ED13B7A019369
:1039A800002B31D11900686803AA02F0A2FD002893
:1039B80051DB039B019A1979186802F0ADFD0028C4
:1039C80049D16B6A002B01D0200098470121636818
:1039D8001A68136B8B43136363680F311A68D36AD1
:1039E8008B43D3622B6A002B48D100223900200078
:1039F800FFF71EFF102373632A7F002A04D1626831
:103A08001268D16A0B43D3620023B363234B7364F8
:103A18003B7A002B0DD1B364BFF36F8F0222336B57
:103A280093433363C023326B9B0013433363BFF369
:103A38006F8FAB692000984701233A7A3B74002ABC
:103A480022D0002007E0E9688368DB68002B21D0DA
:103A5800984700289FD005B0F0BD836869691B6846
:103A6800002B00D098473A002869696983680C32AE
:103A7800DB68002B00D191E798478FE72000F968B1
:103A880098470028B1D0E6E762681268116B0B43CB
:103A98001363D6E758204042DDE7C046FF07000021
:103AA80070B580251049114B8C681B680E6810484A
:103AB8008A686D02002C08D1002A11D11A002E4202
:103AC80009D100681818801A70BD002A0AD02E4241
:103AD80001D1A242F5D90468E41804600968F0E746
:103AE8001C00F4E71A00F2E710E000E0E80E0020FE
:103AF800E40E00200020084A136A1B021B0A136206
:103B0800064B074A1A60074B074A1860074B5A606A
:103B1800072298601A60704700ED00E0E80E002068
:103B2800D4300000E40E0020D330000010E000E0A4
:103B3800F8B50024FFF7B4FF0F4E230031680F4D8E
:103B48000A002868696880185941286069600C4D26
:103B580034600C492E686F68801BFCF72BFB094901
:103B6800230041430A0092197B412A606B6001F0EF
:103B780021FCFEF749FAF8BDE40E002000050020FC
:103B8800F8040020D4300000F0B53B4B3B4D87B023
:103B980000295FD0421C08D101212A688A432A6083
:103BA800FF2212061A6007B0F0BD1B6803930023BA
:103BB8000293012853DCEFF31083059372B6FFF7E5
:103BC8006FFF00221100AB6804932D4B1E685F68DD
:103BD80036184F413000390018605960294B00965B
:103BE80001971A60284B1C68009B1B1B93423DDB06
:103BF800264F0298264A78438018C0183900FCF7E7
:103C0800D9FA009B7843E41A80232018DB009842F5
:103C180000D218001F4B984200D91800164B1849BB
:103C280018600138AB6868600020A860049AD41A4C
:103C38009A421ED2039D621903000C684D6812193E
:103C48006B410A604B60059B002BACD162B6BFF399
:103C58006F8FA8E71B680393431CA8D10E480F4B2E
:103C6800984200DD1800431E0293A4E78020C0009C
:103C7800D4E72200E0E7C046E80E002010E000E0AC
:103C880000050020E40E0020F8040020D4300000D5
:103C9800D330000084C6FF003D0500003E0500004B
:103CA80070B5EFF3108572B6084A094B14681B68A3
:103CB800E41AFFF7F5FE0019002D02D162B6BFF332
:103CC8006F8F0449FCF776FA70BDC04600050020E6
:103CD800F8040020D4300000F7B50C2444430193C5
:103CE8002A4B0092E4186368089A05000E00934274
:103CF80000D26260C0232F1F9B01FFB2E318012F7F
:103D08001BD8012E19D103221A60A3683342FCD0B4
:103D1800009B22685B015340E0221340802252013D
:103D2800A21813600321236873400B40136001231A
:103D3800B340A2681342FCD01BE0802212011A6033
:103D4800134BAA00D158002907D05869FCF732FA5A
:103D5800431C032058430338FDD2009B22685B01B3
:103D68005340E022134080225201A2181360012F11
:103D7800D8D9802380229B01E31812011A60089B7E
:103D8800019A6360024BAD00EA50F7BD0080004025
:103D9800EC0E0020F8B51700040029480D001E009D
:103DA800FCF708FA274B0100FA18274B9A4201D969
:103DB80002F010F93800FCF7FDF902009823103AD8
:103DC8005B009A42F4D8731E062BF1D8069B013B80
:103DD800062BEDD8069B32041E0323681643002BDE
:103DE8000FDA3F2223681340AB420AD1A3681B05B0
:103DF8001B0D834205D1EE22E368D2021340B34281
:103E08001CD0124B1249E21853425A4101230C327A
:103E18009340104A1360104A13601F000A689743C2
:103E28003A1EFAD10D4B2132E3182560A0601A60C2
:103E38002268002AFCDA0822E6601A60F8BDC0464B
:103E4800001BB70080E84BD380F8A9320040FDBFC3
:103E580008C0004000E0004000F0004004300000CE
:103E6800AA22064B12011A608D225200DA60044918
:103E7800044A11605A68002AFCDA70470040024080
:103E880000B0FA00006002408023024A9B000B4306
:103E9800D362704700800540802310B5DB051868A1
:103EA8000649030B02059BB2120D8A4201D002F0AB
:103EB80091F8022BFBD1000F10BDC0462709000066
:103EC80030B50725C4082840800081402000074DF0
:103ED8003C308000A40041511B19002A04D08022E4
:103EE80092019B18196030BDC022F9E700400140DB
:103EF80010B5084B8200D3181C6840236340C024C7
:103F08002340054CC00012191360044BC0184160CF
:103F180010BDC04604C0014004D00140004001402B
:103F2800064B8000C3181B68C90092000A435A4018
:103F38000C231A40024BC0180260704704C00140AD
:103F480004D00140064BC000C3181B68090759403C
:103F5800C0239B051940034BC01801607047C04639
:103F68000440014004500140064BC000C3181B68C0
:103F780009045940C0239B021940034BC018016033
:103F88007047C0460440014004500140064BC00041
:103F9800C3181B6809025940C0239B001940034BF2
:103FA800C01801607047C0460440014004500140F9
:103FB800064BC000C3181B6809035940C0239B0166
:103FC8001940034BC01801607047C04604400140C7
:103FD8000450014002238000002903D0024A8018BF
:103FE80003607047014AFAE704E0014004F0014029
:103FF800054B8000C3181B68594001231940034B27
:10400800C01801607047C04604C0014004D0014098
:10401800054B8000C3181B6809015940302319401B
:10402800024BC0180160704704C0014004D0014031
:10403800D02310B51B061B685C4263412F245B42EA
:10404800A343024C1B19FFF73BFF10BD3041014051
:1040580040238000002903D0024A8018036070477B
:10406800014AFAE704E0014004F0014070B5EFF3BB
:10407800108572B6064B9C6802F024FC002D02D114
:1040880062B6BFF36F8F2000FEF770F870BDC046B0
:1040980014100020F8B501270A4E83009D590130FD
:1040A80084003359AB4200D8F8BD6868002806D0B0
:1040B800037E3B4201D102F0DBFB0835F1E72B68B8
:1040C8009847FAE794710010012270B5234B03203A
:1040D80086B01A70FFF7DEFF01F0ECF90420FFF755
:1040E800D9FF1F4C26001F4DAC420ED300F050FEE6
:1040F800AE4220D300F05CFEFCF776FD01211A4A9F
:10410800137B8B43137306B070BD636A0593236AF0
:104118000493E3690393A369029363690193236991
:104128000093E368A2686168206800F035FC2368A2
:104138005C653034D7E7B26AF36A511C01D1591C67
:1041480005D011003068194303D100F007FF30365D
:10415800CEE70649183001F09DF8F8E75C1000201A
:10416800186F0010186F001078050020CD6A001035
:1041780070B57026012504004643010211488022CB
:104188000918002086B004950E350395053565435A
:104198000D4B0590029001900C48F6182D180C4B09
:1041A80030000095520000F0F7FB0422737B2C745A
:1041B800934373730134074BE402E418EE606C60B8
:1041C80006B070BD602000200805002014100020F3
:1041D800D368001060180020F0B5002087B0FFF702
:1041E80059FF1F4B83F308881E491F4B0A6A002595
:1041F8001A40C0231B0413430B62FDF78BFFFEF725
:10420800A3F81A4800F02EFC0120FFF743FF022014
:10421800FFF740FF00F0FCFD154C164B80225C6157
:10422800154B164E0593012315490493D20033000C
:104238002000039502950195009500F0ADFB04223E
:104248000700637B20009343637302F014FC28008B
:10425800FFF78EFF320039002000FEF759F8C046FC
:104268006020002000ED00E0FFFF00FFE8050020CF
:10427800780500201410002065740010D14000104B
:1042880060210020F0B585B004000F0008300AA9AD
:1042980009780390EFF3108672B6256AE0688542C4
:1042A80043D22568AC4219D0002D17D0280002F05F
:1042B80013FB2800183002F03AFCA26800243900E9
:1042C800286902F079FC2800EC6602F0D4FB039818
:1042D800310000F031FD200005B0F0BDA2680029D2
:1042E80016D03900E06902F067FCE369A2689B1800
:1042F8006269E361934201D12369E3610020236A83
:1043080001332362002EE7D162B6BFF36F8FE3E774
:10431800A1692369994201D16369A361A069390040
:10432800801AA06102F048FCE8E7110019430AD09E
:104338000649039889680F610092310022000193B1
:1043480000F06AFCC8E723204042DBE71410002095
:10435800F7B50400270008000837EFF3108672B697
:10436800216A002938D0A268A16902F025FCA36956
:10437800A2689B186269A361934201D12369A36172
:10438800236A2568013B00202362AC4234D0854271
:1043980032D0280002F0A0FA2800183002F0C7FB3B
:1043A800A268E069296902F007FCE369A2689B1822
:1043B8006269E361934201D12369E361236A2800BA
:1043C800013323620024EC6602F055FB380031000B
:1043D80000F0B2FC2000FEBD110019430AD00949C3
:1043E800896808610092310022003800019300F0CA
:1043F80013FCF0E723204042002EECD162B6BFF355
:104408006F8FE8E714100020F0B585B004001F0096
:104418000392EFF3108672B6C368354A002B0ED0AC
:1044280080689168884217D0039B3B431AD1002EBD
:1044380002D162B6BFF36F8F102040420AE0916844
:10444800897B49B20133E36093682161A360002E40
:1044580004D0002005B0F0BD2169F3E762B6BFF3D0
:104468006F8FF6E70E23897BC35649B2994200DD68
:1044780019000A007F3201DA7F21494200258B4268
:1044880002DD02F03CFA05001A4B22000293039B5E
:10449800310002980093019700F0BEFB0028D8D0A5
:1044A800EFF3108672B6A068002819D02368216936
:1044B8009C420BD0002B09D09B7B5BB2994200DD5C
:1044C80019000B007F3301DA7F21494202F017FA05
:1044D800002805D03100029800F02EFC0B20ACE734
:1044E800002DF7D1002EF9D162B6BFF36F8FF5E733
:1044F800141000205D100020F8B583680500002B1B
:104508003CD0214A926893423BD1C368012B03D91E
:10451800013BC3600020F8BDEFF3108772B6016954
:10452800806802F0ECF92C68A54208D10023AB6042
:10453800EB609F42EED162B6BFF36F8FEAE7002CC3
:10454800F4D062682368002613605A6002222000B3
:10455800637B2660934363736660A660183002F03D
:10456800E6FA0E23AC60E35620002B61E66602F003
:1045780082FA3900054800F0DFFBCBE716204042FD
:10458800C9E70120FBE7C046141000205D10002099
:1045980070B5EFF3108572B60468A0421AD0002CEB
:1045A80018D062682368002613605A60022220002F
:1045B800637B2660934363736660A660183002F0DD
:1045C800B6FA2000E66602F056FA2900084800F01C
:1045D800B3FB70BD8268C3689B1A591E8B419B1838
:1045E8008360002DF5D162B6BFF36F8FF1E7C04647
:1045F8005D10002013B50400EFF3108172B68068D7
:10460800002808D00138A060002902D162B6BFF3A3
:104618006F8F002016BD1000184307D1002902D162
:1046280062B6BFF36F8F10204042F3E70092019308
:104638002200024800F0F0FAECE7C0465D100020C6
:10464800F8B50500EFF3108672B6002302272C6830
:10465800A54218D0002C16D0626823682000136089
:104668005A600023627B2360BA4363606273A3606D
:10467800183002F05CFA0B235B42E366200002F07C
:10468800FAF90123E3E70022AA60934204D031003B
:10469800044800F051FBF8BD002EFCD162B6BFF310
:1046A8006F8FF8E75D100020F0B5050087B0EFF3D5
:1046B800108772B62E006C6F8C36002C1CD102212C
:1046C800300002F034F9002866D02C00843400222F
:1046D8000121200002F00DFA0028F8D100230293EE
:1046E80001225242D317009201932A0039007C32EA
:1046F8003C4800F0EFFCDAE72368AA6F6B67944246
:1047080000D1AB6702223368134333600423E268A5
:104718009A43033B1343E3606368002F47D02000AC
:104728009847EFF31083059372B6E36801211A00E6
:104738008A43100908423ED1E260E3689A071AD515
:1047480002229343E360284B1868002813D0002105
:10475800026800280FD04768BC423AD10268002995
:1047680031D159681A60814200D15A600023036030
:104778000830FFF70DFF022233689343059A336030
:10478800DB05DB0F002A02D162B6BFF36F8F002B67
:104798008DD100F047FB8AE73368DB069ED5306091
:1047A800002F02D162B6BFF36F8F07B0F0BD62B6BB
:1047B800BFF36F8FB3E711229343E36020001030FB
:1047C800FFF7E6FEB9E70A605A688242CED159601F
:1047D800CCE79446002A01D011688C4601001000ED
:1047E8006246B6E75D10002034100020F7B5C368B4
:1047F8000D00590801220F000400174011424CD146
:104808009B0813421ED12B68002B01D183682B60B3
:104818000127E3683B4202D0A368FF192B602E688A
:10482800002E48D03100254B8C319A68336F0191A6
:104838009A4222D00A68012193080B400A4204D107
:1048480013277F4200232B6015E0002B25D1D308C6
:104858000B40002B21D100232360B36F002B27D1FD
:10486800B4677467300002F06EF80423E2681343FB
:10487800E3602B68A3603800FEBD02F0B7F8019B27
:1048880001221B6800280AD1D90811401342D7D049
:104898000029E0D09B081342DDD11027D1E7990801
:1048A80011401342CCD00029F7D1DB081340D0E7E0
:1048B8001C60B467D6E71627C3E7C046141000206B
:1048C800F0B5040000206067A067200089B07C3044
:1048D800261D0E9DE067F0670830006040600120EB
:1048E800002D07D0287946427041FF264042B04348
:1048F8000230FF3026008C36306001267642F717EA
:104908000696079700260F4803930496030002961D
:1049180020000196009400F079F8B5420CD029687F
:10492800B14202D0200002F067F86B79002B03D067
:104938000123227B13432373200000F00FFB24671D
:1049480009B0F0BDB146001073B50C000190EFF34B
:10495800108572B6CE681E2100200E4207D11900BC
:104968001143814209D1200001A9FFF73FFF002D23
:1049780002D162B6BFF36F8F76BD082120003143A4
:10498800E16001991030A162024900F083FC012026
:10499800EDE7C04661690010F0B587B005930300E4
:1049A80058338365C365109B0727037304230025C9
:1049B8000732BA434373D2190F9BBA4383738B18D8
:1049C8000E0085601900C5738561C56104000493F4
:1049D800FDF7FEFA049BC019B8431F1A0E9B3A0054
:1049E80002930D9B310001930C9B20000093059BC3
:1049F800FDF778FC044B65659B68AB4200D01B6EE5
:104A08003800236607B0F0BD1410002070B504000C
:104A1800002086B005900E98119D04900D98109E68
:104A280003900C9802900B9801900A98009020002F
:104A3800FFF7B2FF2B00721C01D1013305D02B0008
:104A4800334305D1200000F089FA200006B070BD7C
:104A5800200032002B000249183000F01BFCF4E75C
:104A6800CD6A00100223FF33838100230366014BC4
:104A780098607047141000200B21084A4942936837
:104A8800D9669866802306495B05486803434B60EE
:104A980062B6BFF36F8F9368D86E7047141000200A
:104AA80000ED00E00D2370B5C356427B002B38DBC8
:104AB800D30636D180235B4213431B4C4373A3694F
:104AC8001A49E2698B4207D1016042601060E061D7
:104AD80011E09A42F8D01B68002BF5D00E250E265F
:104AE80045579E57B542F4D0AE42F2DD5A6803608E
:104AF800426010605860A5698D4201D0002D00D138
:104B0800E568A3685A7BD20605D1DA897F2A02D9DB
:104B1800AA69002A06D0AB4202D0280000F020FB88
:104B2800656170BD6361FCE7141000202C10002043
:104B38000D2270B582560500437B002A04DA7F22D5
:104B48001340437301F05BFF0D4E0E4AB469B3681E
:104B5800944201D0002C00D1F468AB4208D05A7BB3
:104B6800D20605D1DA897F2A02D9A269002A05D09E
:104B7800A34202D0200000F0F3FA2300736170BD55
:104B8800141000202C10002010B5511C01D1591C04
:104B980003D00249183000F07DFB10BDCD6A00102B
:104BA80070B51B4CA168E3690A68CB1A581E83418B
:104BB80049685B420A6051601340E169A268002BB2
:104BC80005D1144B516013600A60E2610CE00E20BD
:104BD8000E2510565D57A84215D0854213DD596839
:104BE800136051600A605A60A5690A4B9D4201D062
:104BF800002D00D1E568A3689D4202D0280000F08E
:104C0800AFFA656170BD9942DBD01B68D7E7C04633
:104C1800141000202C10002070B50C0011000A4A56
:104C28000A4B90681860EFF3108372B695682800F5
:104C380001F0F8FE049A059B2800FFF7A5FF200065
:104C4800FFF71AFF70BDC046141000203C1000206A
:104C5800F7B50400EFF3108772B61F22437B1A40A2
:104C680050425041C0B201904DB2002A3CD17F322F
:104C780013406373200001F0C2FE8023627B5B4215
:104C880013432B4EA5736373B3692A498B4229D109
:104C9800F269216062601460F4610FE09A42F8D012
:104CA8001B68002BF5D00E2018568542F6D0A84276
:104CB800F4DD5A682360626014605C60B4698C42F9
:104CC80001D0002C00D1F468B3689C4202D02000C7
:104CD80000F046FA7461002F02D162B6BFF36F8FFD
:104CE8000198FEBDF269DCE79B071FD5A668200086
:104CF80001F085FEA57333689E4209D1736826606A
:104D080063601C607460E6E772689342F6D01B68C3
:104D1800002BF3D00E229A569542F5D0AA42F3DD25
:104D28005A682360626014605C60D4E7A573D2E7B8
:104D3800141000202C10002010B500290AD1EFF320
:104D48000580002807D1064B9A685B699A4202D011
:104D5800FFF792FE10BD62B6BFF36F8FFAE7C04649
:104D68001410002010B500280AD1EFF305800028A0
:104D780007D1064B5A699B689A4202D0FFF77CFE1E
:104D880010BD62B6BFF36F8FFAE7C046141000205B
:104D9800EFF3108172B6054B9A68D37B013BD3734E
:104DA800002902D162B6BFF36F8F7047141000203C
:104DB80070B5EFF3108672B6134DAB68DA7B01322B
:104DC800DA73AC69114A944201D0002C00D1EC6826
:104DD8005A7BD20605D1DA897F2A02D9A269002A2C
:104DE80005D0A34202D0200000F0BAF923006B617D
:104DF800002E02D162B6BFF36F8FEFF3108072B648
:104E0800FFF7B0FF70BDC046141000202C10002022
:104E1800024B034A9A61DA617047C04614100020B9
:104E28002C10002070B5EFF3108572B61C4CA168E9
:104E3800E3690A68CB1A581E834149685B420A60D5
:104E480051601340E169A268002B05D1154B5160F0
:104E580013600A60E2610CE00E200E2610569E5781
:104E6800B04218D0864216DD5968136051600A6056
:104E78005A60A6690B4B9E4201D0002E00D1E6680D
:104E8800A3689E4202D0300000F06AF928006661EB
:104E9800FFF7F2FD70BD8B42D8D01B68D4E7C0463F
:104EA800141000202C100020F8B5030007000C0097
:104EB8000B4303D1FFF7B6FF0020F8BDEFF31086D0
:104EC80072B6134D134BA8681860FFF731FEA86837
:104ED80023003A001049183000F0DCF90423AA68CE
:104EE8000400517B30000B435373FFF7C5FDAB68DB
:104EF8009A6A002AE0D18022DB6A12069342DBD14B
:104F080001F03BFE201AC343DB171840D5E7C04623
:104F1800141000203C100020CD6A001070B5040069
:104F28000D00FFF7C1FF01002000631C01D101350E
:104F380010D00A00CB1709200021801859410A22F5
:104F48000023FBF7FDF9002903D180231B069842B3
:104F580000D3014870BDC046FFFFFF7F70B5040055
:104F6800EFF3108572B60426437B33420DD0183018
:104F780001F0DDFD637B2000B3436373FFF792FD0F
:104F880029000548FFF7D8FE70BD002DFCD162B698
:104F9800BFF36F8FF8E7C0465D100020014B98689B
:104FA8007047C04614100020F0B5037B85B004009C
:104FB8000393EFF31083019372B6019B02930823C6
:104FC800427B1A4207D0019B002B02D162B6BFF385
:104FD8006F8F05B0F0BD1900114348B2002857DBA8
:104FE8006173A368002B02D0200001F010FD20009F
:104FF8002600183001F09BFD5836A56DAE4201D051
:10500800002D4DD1304F0025BB689C4204D1EFF3F1
:1050180005856A1E9541EDB2BE692C4A964201D0BB
:10502800002E00D1FE68B34202D0300000F098F89C
:1050380020007E6100F0BEFF002D02D02448FFF75B
:1050480011FDBB689C4238D1EFF30583002B34D1A6
:10505800237BDB070FD5019B002B02D162B6BFF380
:105068006F8F62B6BFF36F8F0423181C02DFEFF354
:10507800108372B602930298FFF7FEFC039BDB07CE
:10508800A7D562B6BFF36F8F0423181C02DFA0E711
:105098007F210A4013432000637301F0B0FCA0E7AE
:1050A800280001F0B4FC2800183001F040FD00236E
:1050B8002800EB66FFF7F6FC9FE7019B002BDDD18C
:1050C80062B6BFF36F8FD9E7141000202C100020B0
:1050D800E805002073B5069D079E089C009501967B
:1050E800FFF79AFD002C03D0024B9B681B692360D5
:1050F80076BDC0461410002010B5447B1F21220045
:1051080003000A4000200C4210D10A4910008B42CB
:105118000CD009490868002808D0D9897F2906D801
:105128000E215956054B1B68994200DB10BD100033
:10513800FCE7C04608050020500100204010002070
:105148000121044B044AC01A044BC0104343D154F4
:105158007047C046580600205D100020ABAAAAAAD6
:1051680070B518250B4B1E7CFFF7C6FF75430A4B1D
:105178000400ED18280001F0DAFC0022074B9A55CC
:10518800944205D0621E28000549D31700F082F822
:1051980070BDC04614100020580600205D10002085
:1051A8004951001070B5EFF3108572B6104A114BD3
:1051B80094681868A04207D1FFF7D2FF002D02D1EA
:1051C80062B6BFF36F8F70BD00211960127C0A4B65
:1051D8009B5C8B42F2D02000FFF78EFF0028EDD0B9
:1051E800637BDB0601D1FFF7DBFC2000E4E7C04668
:1051F800141000203C1000205D100020024B18689D
:10520800984200D1002070475401002070B5060074
:10521800FFF7F4FF002810D0026943693400F5173E
:10522800121BAB41002B08DC03D1802109068A42FE
:1052380003D2D843C017104070BD0148FCE7C046F0
:10524800FFFFFF7F002010B5034B1B68834201D18D
:10525800FEF726FD10BDC0464410002030B50028DA
:105268000ED00B4B5B6898420AD00168002907D022
:105278000A694B690469456912196B410A614B61F6
:105288000368426813605A6000230360436030BDBE
:1052980054010020F0B5040015001E0085B0531C11
:1052A80002D1731C00D17CE0A160EFF3108303935B
:1052B80072B6002E26DBFFF7C5FF00210090012003
:1052C80040197141009AD31712184B41364922618F
:1052D80063610868496812184B411E0015000123D4
:1052E8000293FFF78BFF0700304B9C465B680193E6
:1052F800002F1DD163462360019B63601C606346D9
:105308005C6027E0284B1868596802225242D3177C
:10531800121A8B41521BB3411100002B04DC01D13E
:10532800002A01D101210023636121610023D7E70D
:105338003869796922696369994202DC28D1904207
:1053480026D9801A99417B68386179616360276042
:105358001C607C60FFF752FF84420FD1144B1B681E
:10536800002B0BD1029B002B02D1FFF76BFF0090A3
:105378000098FFF74BFF0021FEF706FC039B002B6C
:1053880002D162B6BFF36F8F2800310005B0F0BDBF
:10539800121A8B4122616361019B9F42AAD03F6828
:1053A800A6E700250026EFE770060020540100203C
:1053B80044100020F0B587B0EFF3108372B6019364
:1053C8002F4B1860FFF71AFF2E4F04003A687B68CE
:1053D800029203932A4B9C461D6800280FD042690D
:1053E8000669EB179A4202DC24D1AE4222D9190091
:1053F800226963692800121A8B412261636102984D
:1054080003992A00EB1712184B4100243A607B607D
:10541800634620001C60FFF7F9FE2100FEF7B4FB8D
:10542800019BA34202D162B6BFF36F8FFFF7BAFEAA
:1054380007B0F0BDF31704960593049A059B0298EC
:10544800039980185941002300220E4D226163619F
:10545800286069602000FFF701FF019B002B02D143
:1054680062B6BFF36F8F2000A3689847EFF31083ED
:1054780072B6034A019313689B1B1360A2E7C046E8
:10548800441000207006002010B5EFF3108472B6A7
:10549800FFF7D8FE02000649C31708684968801854
:1054A8005941002C02D162B6BFF36F8F10BDC046C0
:1054B8007006002010B5024800F082FB10BDC046FF
:1054C8006A74001010B5064C064B9C4201D30020AC
:1054D80010BD2000A268616801F066FB1434F3E790
:1054E800CC020020CC0200200123802213B5054CF9
:1054F8000549064800945B42D200FFF7E1F9002015
:1055080016BDC046AC71001060250020780600204A
:10551800F0B5436893B003900893837815009B0710
:1055280000D4F8E0002301930E78002E6AD0252ECF
:105538000DD04B1C0993019B013301930399089BE0
:10554800F0B29847002800DADFE00999ECE74E78D6
:105558008B1C0993252EEED0002304211C00099AE8
:105568000293079309921F2C2ED830002038102858
:105578000AD8FAF715FE1D0909270909091E09099C
:10558800091B0925090918003300303B092B29D9C3
:105598002A2E32D108CD600622D4002B29DB202008
:1055A8000793044305E001231C4302E002231C4344
:1055B8000C43099B01321E78002ED3D109922DE0AD
:1055C8000823F1E71023EFE77F2C1ED83300303B88
:1055D800092BDDD8600605D50A20029E7043C31842
:1055E8000293E6E70A20079E7043C3180793202317
:1055F800DAE75B4207932823D6E72E2E05D140230E
:105608001C42D1D0019813B0F0BD6C2E2DD027D8F4
:10561800682E31D06A2E32D04C2E30D0029B002B0F
:1056280003DA40239C4300230293202333431A00C8
:10563800653A022A01D9612B24D10722EB1D934335
:1056480008331D00AB4F0292240753D5019A029BE1
:1056580016009C18B4424FD1079B029A9E1A82E109
:10566800742EA6D07A2EA4D0D8E780231C429BD0D3
:1056780080208000044397E780235B00F6E7A0239F
:105688009B0091E730006338122800D9E3E0FAF76D
:1056980087FD0A46E2E2E2E246E2E2E2E2E2F3DD26
:1056A800E2E211E2AD0004CD0CAB1A7001230CAF9D
:1056B8000293C9E780CD002F00D18F4F029963066E
:1056C80001D401214942380001F087FA0290BBE772
:1056D80020200399089B9847002816DB013C029B71
:1056E800A342F5D3079A019B944663441B1B01937D
:1056F8000794ABE7079CF2E7019B0399FB1A985DB7
:10570800089B984701360028A4DA039B9A7804235B
:105718001343039A937001235B42019372E72306B4
:105728003FD5A30537D50722073595432F000CCF62
:1057380004920593102325009D43059B002B3ADA1C
:105748000499059A00244B429441049305948023BC
:10575800DB001D43ADB20CAC0A2304980599220066
:1057680001F046FA041B6B0665D501232A009A430B
:105778001300029AA24200DCA4E0002E00D19CE0B3
:105788001022290011400B91154200D09CE0029A8A
:105798001D0006921EE02F0008CF0493DB17059327
:1057A800C8E72F0008CFE205F7D5A20501D55BB2FF
:1057B800F3E71BB2F1E7049B059A1343CBD16306C9
:1057C800C9D5029B002BC6D111339C43029B2500EF
:1057D8001C0006932A00494B1A400B921D4277D0B1
:1057E800069B0133069300230B9371E010239C431F
:1057F800063B9C46802322001A4006921C4242D057
:1058080021008133FF3319401C4239D00722EB1D98
:1058180093431F0003CB083703000B4346D12500F1
:1058280016339D43630644D5029B002B41D11733A1
:105838009C432500029C10232A001A400B921D420B
:1058480056D0631C002E42D022003FE01023782659
:105858009C461C43CEE7782B04D110229B1B1A438D
:105868009446C7E725200399089B9847002800DA43
:105878004BE7019B023360E6082300269C46B9E704
:105888002F0001CFC8E72F008022210008CF520047
:10589800180011401442BFD080222100920011400C
:1058A80098B21442B8D00699D8B2B5E706239C43FB
:1058B80025000CAC6346220052E711239D43029B4E
:1058C800069387E71D00B6E71D00029A931C06930E
:1058D8002B072AD4EB0709D5079B069A0294934213
:1058E80004DD9B1A1B190293079B0693069B10E085
:1058F80006946FE7B5740010AE740010060400003B
:1059080020200399089B9847002800DAFDE60A9BA7
:1059180001330A930A9A079B9342F1DC069A019B8A
:105928009B1A0A9A9B18019306920B9B002B25D071
:1059380030200399089B9847002800DAE5E6019B88
:10594800002E12D101330193019E029B019A9B18EC
:105958009B1BA34220DC2500002D25D13D00079B81
:10596800069AA4199E1A019431E002330193F0B209
:105978000399089B98470028E6DAC6E6174B1D42AC
:10598800E2D02020AB0700D50B306D0500D52D20C7
:10599800019B01330193EBE730200399089B013603
:1059A80098470028D1DAB0E60CAB013DE85C0399D2
:1059B800089B98470028CFDAA7E6019B20200133EF
:1059C80001930399089B9847002800DA9DE6019AFD
:1059D800A3199B1A002BF0DCB7E5C04606040000AB
:1059E80070478023C900411880681B02984202D37F
:1059F8009200505870475200505AFBE710B5802467
:105A0800C900411880682402A04202D39200535072
:105A180010BD52005352FBE710B50122FFF7E1FF1A
:105A2800400810BD10B58024C900411880680123C2
:105A38002402A04208D34868002A02D003434B60DE
:105A480010BD98434860FBE74888002A02D003430A
:105A58004B80F5E798434880F2E710B553000122E0
:105A6800FFF7CCFF10BD802210B580680423120216
:105A7800904200D3DB180833DB080131C81AFAF763
:105A880041FC1F23181A10BDF8B50D0004008668E4
:105A9800FFF7C2FF802301001B029E4201D30128A9
:105AA80019D02000FFF7DFFF8300E3181E69002EDE
:105AB80012D101218140E26820000A43E2602900F6
:105AC80002221D612B00FFF799FF2B0003222900FA
