:020000041000EA
:1000000000B5324B212058609868022188439860DF
:10001000D860186158612E4B002199600421596104
:100020000121F02299502B49196001219960352056
:1000300000F044F80222904214D00621196600F024
:1000400034F8196E01211966002018661A6600F04E
:100050002CF8196E196E196E052000F02FF8012189
:100060000842F9D1002199601B49196000215960AB
:100070001A491B48016001219960EB211966A021F2
:10008000196600F012F800219960164914480160C1
:100090000121996001BC002800D000471248134993
:1000A000086003C880F30888084703B5996A0420EC
:1000B0000142FBD001200142F8D103BD02B5186610
:1000C0001866FFF7F2FF186E186E02BD00000240BE
:1000D000000000180000070000035F00212200005C
:1000E000F4000018222000A00001001008ED00E03C
:1000F000000000000000000000000000070B8FD58A
:10010000800F0020B50E001079320010A10E0010F3
:1001100000000000000000000000000000000000DF
:10012000000000000000000000000000910F00101F
:100130000000000000000000210F0010F11A001064
:10014000E1100010E1100010E1100010E1100010AB
:10015000E1100010E1100010E1100010E11000109B
:10016000E1100010E1100010E1100010E11000108B
:10017000E1100010E1100010E1100010E11000107B
:10018000E1100010E1100010E1100010E11000106B
:10019000E1100010E1100010E1100010E11000105B
:0801A000E1100010E110001055
:1001A80002B4714649084900095C49008E4402BC02
:1001B8007047C046002934D00123002210B4884279
:1001C8002CD301242407A14204D2814202D209017E
:1001D8001B01F8E7E400A14204D2814202D249009F
:1001E8005B00F8E7884201D3401A1A434C08A04242
:1001F80002D3001B5C0822438C08A04202D3001BD8
:100208009C082243CC08A04202D3001BDC082243EE
:10021800002803D01B0901D00909E3E7100010BC2E
:10022800704701B5002000F00BF802BD0029F8D096
:1002380003B5FFF7C1FF0EBC4243891A1847C046F1
:100248007047C046D0400B00D1409C46203AD3406E
:100258001843524263469340184370471C210123B8
:100268001B04984201D3000C10391B0A984201D391
:10027800000A08391B09984201D30009043902A26F
:10028800105C40187047C0460403020201010101D6
:100298000000000000000000002B11D1002A0FD13F
:1002A800002900D1002802D00021C943080007B462
:1002B800024802A14018029003BDC04685FFFFFF17
:1002C80003B4684601B5029800F0C4FB019B9E4642
:1002D80002B00CBC7047C0464A02F8B5430244005D
:1002E800C50F500A84464800240E000E5F0AC90F45
:1002F8009B099209261A8D4200D09EE0002E42DD0D
:100308008021C90400281ED1002A0AD0661E012CAB
:1003180005D19B1801340B4246D1013C01E0FF2C6A
:1003280014D15A0704D00F221A40042A00D00433EB
:100338005A0100D42EE101340026FF2C19D09D4E1D
:10034800DB081E4015E0FF2CEBD00A431B2E01DD15
:100358000133E6E72020801B11008240F140501E47
:1003680082410A439B185A01DBD501340026FF2C31
:100378001AD1FF23E005DB057602760A18403043E0
:10038800ED072843F8BD002E2ED08026011BF60469
:10039800002C14D1002B00D1F3E04C1E01290AD106
:1003A8009B1802243342B8D0012283491A405B08C3
:1003B8000B401343B5E7FF2906D11300AEE0FF2831
:1003C80000D1E0E00C0033431B2C02DD531C040079
:1003D800A7E719002026E140341BA3405C1EA34177
:1003E8000B4304009B18BEE7FE20611C01421ED18E
:1003F800002C0DD1002B00D1C7E0002A00D190E7D6
:100408009B185A0100D48CE76C4A13400C0088E70B
:10041800002BD2D0FF24002A00D182E78023DB03FF
:100428009F4202D39C4500D26746FB0076E00C0051
:10043800FF299ED09B185B0873E7002E25DD002856
:100448001CD1002A00D16CE7661E012C06D19B1A2C
:100458005A0100D465E79B019E0975E0FF2C00D185
:100468005FE701211B2E07DC2020801B1100824042
:10047800F140501E824111435B1AE9E7FF2C00D17D
:100488004FE78021C9040A43EBE7002E25D0051B5E
:10049800002C0DD1002B08D06E1E012D03D10D00AC
:1004A800D31A0134D4E7FF2D08D113002C0021E022
:1004B800FF286CD080242E00E404234301241B2E43
:1004C80007DC2025AD1B1C00AB40F4405D1EAB4192
:1004D8001C43131B0D000400BAE7FE26601C3042C3
:1004E8002DD1002C14D1002B06D125002600131E77
:1004F80000D13EE70D0014E7002A00D111E79E1A4B
:10050800D31A7001F6D4331E00D00AE7350030E75D
:10051800002B05D1002A49D013000D00FF2400E765
:10052800FF24002A00D1FCE68023DB039F4200D28F
:100538007BE79C4500D378E767460D0075E79E1A70
:10054800700115D50D00D61A3000FFF787FE33006D
:1005580005388340844210DC2022001B0130121A27
:1005680019009340C1405A1E934100240B43D8E61A
:10057800002EE9D135003400FBE6104A241A134056
:10058800CFE6130042E7130021E71300C9E6130082
:100598000400AFE7DE08FF2C00D0EAE6002E00D109
:1005A800E7E68023DB03FF241E43E2E680261500EE
:1005B800F603F6E7FFFF7F1FFFFFFF7DFFFFFFFB4F
:1005C800F0B5C30F85B0440245000F1C640A2D0E18
:1005D800039302930AD0FF2D3BD08023E400DB0471
:1005E8001C4300237F3D019500930EE001230194F5
:1005F8000093002C09D02000FFF730FE431F9C40D9
:1006080076235B421B1A019300957D027E006D0ADA
:10061800360EFF0F002E23D0FF2E2ED08023ED00A4
:10062800DB041D4333007F3B002201980399C31A62
:10063800009879408000104301380E2823D8FFF72E
:10064800AFFD4D9973999299734D4D9273616161A4
:100658005300022301950093002CD6D00133C3E741
:100668002B000122002DE0D02800FFF7F7FD431FE3
:100678009D4076235B421B1AD6E733000222002DE9
:10068800D3D00132D1E764016D01AC4228D31A20DE
:100698000122641B0126270052006400002F01DBA1
:1006A800A54201D8641B324301380028F3D1601EEB
:1006B8008441144318007F30002838DD620704D0D5
:1006C8000F222240042A00D00434220103D58033AB
:1006D80018002B4A1440E508FE281DDD00250FE010
:1006E8001B200022013BD5E78023DB031C4203D0FB
:1006F8001D4201D12C00029780250299ED03254364
:10070800FF2009E00399009A022AE7D0032A2FD094
:1007180000252800012ACDD16D026D0AC0052843A5
:10072800C907084305B0F0BD2C003900ECE70122E9
:100738000025121A28001B2AEEDC9E3325009C4057
:10074800D540631E9C4125436B0704D00F232B40E3
:10075800042B00D0043580232800DB0418401D42F8
:100768000BD1ED08D8E780240023E4030293C3E704
:100778000291C1E700252800CEE700250120CBE73C
:10078800FFFFFFF7F0B5C30F85B0470244000291A1
:100798007F0A240E03930AD0FF2C71D080227F3C5D
:1007A80026000023FF00D204174301930CE0012325
:1007B8003E1E019308D03800FFF750FD7626431FF0
:1007C8009F407642361A0194029B5C025D00DB0F63
:1007D800640A2D0E02935AD0FF2D64D0802328007E
:1007E800E400DB041C437F3800230299039A4A4043
:1007F800811901988C46850001311D430A2D00DDC1
:1008080078E0022D55DC013D012D63D9250CA4B2F9
:1008180026003B0CB8B246435C4368436B4300195F
:100828001F00330C1B189C4202D9802040023F183D
:100838001804B6B28619B401601E84411B0CB60EAA
:10084800DB1934439B011C431B0168D50123600855
:100858001C40044308007F30002862DD630704D091
:100868000F232340042B00D00434230103D5803107
:1008780008003E4B1C40E508FE2833DD00254CE00F
:10088800022326000193002F9ED001338DE720001C
:100898000123002CA9D0FFF7E1FC431F9C407623DD
:1008A8005B42181AA0E728000223002C9DD00133D0
:1008B8009BE70120A840A6250600ED002E4028420F
:1008C8001DD19025AD00284247D1B93DFF3D2842B2
:1008D8009CD0029A022BD1D0032B42D000252800AD
:1008E800012BB7D16D026D0AC0052843D20710430A
:1008F80005B0F0BD039A0F2D04D00B2DE9D03C00B4
:10090800019BE7E78023DB031F4203D01C4201D190
:100918002700029A8025ED033D43FF20E2E7614668
:1009280098E7012300251B1A28001B2BDADC9E31CF
:1009380025008C40DD40631E9C4125436B0704D095
:100948000F232B40042B00D0043580232800DB0420
:1009580018401D4207D1ED08C4E780273200FF0385
:10096800D8E72700D6E700250120BBE7FFFFFFF700
:1009780041024300C20F490A00201B0E7E2B03DDF3
:100988009D2B02DD084BD0187047802000040843D7
:10099800952B05DD963B9840002AF5D04042F3E7B9
:1009A8009621CB1AD840F7E7FFFFFF7F002370B5E9
:1009B8000400984209D0FFF751FC9E231B1A962B7E
:1009C80008DC082829D0083884406402D805640A5D
:1009D800204370BD992B1BDD020021001B32914082
:1009E8000A00511E8A410521091ACC4014432200ED
:1009F8000B4D2A40610704D00F212140042900D063
:100A08000432510102D59F232A401B1AD408DCE77F
:100A1800421F0528EBD09440E9E79623D5E7C04666
:100A2800FFFFFFFB9140030090409C46203A934013
:100A3800194352426346D3401943704710B5002901
:100A480003D1FFF70BFC203002E00800FFF706FC9B
:100A580010BDC046F0B506000F0015001C0085B09B
:100A68008B4263D801D1824260D821002800FFF769
:100A7800E5FF390000903000FFF7E0FF009B210000
:100A88001B1A1A0028000393FFF7CCFF009001916E
:100A9800B94245D801D1B04242D8009B019C0120FF
:100AA8000021039AF61AA741FFF7BCFF04000D00C6
:100AB800039B002B2BD0019B009ADB07500818439F
:100AC800019B5908039B9C46B9422CD801D1B042DE
:100AD80029D832003B00121A8B41012692185B413B
:100AE8000027B6185F4101235B429C446346002BF4
:100AF800EAD130003900039AFFF7A4FB039AA4193E
:100B08007D4106000F00FFF78DFF241A8D410A9BD7
:100B1800002B01D01E605F602000290005B0F0BDE9
:100B280000240025C4E7B6197F41DCE7002400252E
:100B3800EDE700000300F7B50A001979DB880068C3
:100B48001343826894460269DC0206D5C024240354
:100B5800234202D0DD0700D5634001273D00084C41
:100B680016681C408D4001943400AC433B4201D0D0
:100B780034002C43634614601B68019A9847FEBDF5
:100B8800FFFFEFFFF7B5214C200002F091FE00288F
:100B980039D0200002F08CFE002834D0D0211C4827
:100BA8004903FFF7C7FF00282DD1802119484902C2
:100BB800FFF7C0FF002826D180258026AD04F60166
:100BC8002769A36820005B6801A9984700280CD012
:100BD8003B682B4211D1A368DB68290020009847A5
:100BE8000021642001F010FDEAE7019B3A685340B8
:100BF80033402A4204D1002BEDD1A3681B69ECE7EE
:100C0800002BE8D0F9E70020FEBDC046A83B001045
:100C18005C3D0010543D001010B5024B1B6898470E
:100C280010BDC04600000020014B18607047C04648
:100C38000000002030B585B004000D00102200210E
:100C4800684602F0C3FE6A4602239370044B2A00EA
:100C580021006846019301F099FF05B030BDC046F8
:100C6800210C0010F7B504000D001E00019201F0E0
:100C78000BFD030002F044FF054F32003B50019981
:100C88002800A04702F03CFF385800F029F9C04678
:100C98000800000010B5034A03480021121A02F0A8
:100CA800D9FA10BD80020020780000200648074AC3
:100CB80010B5121A064902F0D1FA064A0648074941
:100CC800121A02F0CBFA10BD0000002074000020B8
:100CD800B44000100000002000000020B4400010C4
:100CE80070B505000C1E13D08B684A680F48096858
:100CF80002F0A4FA0E4863692269E16802F09EFADC
:100D08000C48E16902F09AFA0B48A16902F096FAD8
:100D1800012D05D1EFF305810848103902F08EFA4C
:100D28002800210001F06AF970BDC046943E001009
:100D3800C43E0010F43E0010043F0010333F001082
:100D480030BFFDE7F7B50A4B0A4D0600EF18CC1B7C
:100D58002A0020000849019302F02FFE60190021A3
:100D6800019A02F033FE3800083C74660830FEBD74
:100D78000400000000000000303D0010054B5A69D7
:100D88009B689A4205D08023034A5B0551680B4350
:100D9800536070475002002000ED00E0F0B52D4B85
:100DA80004005F6889B0FD05ED0D62B6BFF36F8F73
:100DB800130EFF2B06D1F33B1340082B33D12648E3
:100DC80002F03CFA00263400032D32D1234802F009
:100DD80035FAA369224A934202D3224A934205D3A1
:100DE800214A934230D3214A93422DD2023B1A889A
:100DF8001F4B9A4228D11F48216802F01FFA256824
:100E080020222100684602F0D8FD079B002E1DD045
:100E1800DA0502D1184A1343079369462800FFF7F9
:100E28005FFF09B0F0BD01261207CDD50C000026E2
:100E3800CAE7F8235B0011491F4200D010492A0075
:100E48001048103A02F0FAF90025D9E75B0A5B026C
:100E5800E2E7C04600ED00E0753F0010A13F00103A
:100E6800A8010010143B0010000000200000002022
:100E780002DF0000B93F0010FF010000473F0010EB
:100E88005C3F0010D63F00100821024A53698B438B
:100E98005361704700ED00E0EFF30880EFF309813C
:100EA80001B57246FFF77AFF01BDC046094880F3D5
:100EB800088872B608480949401880F30988EFF392
:100EC80014800221084380F31488BFF36F8F02F067
:100ED800DBF90000800F00208002002000080000DD
:100EE80010B50A4B9B6883420DD1EFF30583002BA5
:100EF80009D08022064B520559680A435A605A6A3B
:100F080004490A405A6201F0C5FB10BD5002002096
:100F180000ED00E0FF7FFFFF15498A68154810447F
:100F2800EFF3098CF0C043464C4655465E4667468B
:100F3800F8C072B6104F114E4A698A603E60104C74
:100F4800141920680F4C2060906E002393660028C7
:100F580000D162B6074C10191030F8C89846A1465F
:100F6800AA46B346BC462438F0C88CF309887047B3
:100F7800500200203000000004ED00E000000008EE
:100F880064000000F801002004207146014202D0EC
:100F9800EFF3098001D1EFF30880816902390978FC
:100FA8000229FFD001B5724602F05CF901BDC046C6
:100FB80043B2000605D41F221A4001239340014A78
:100FC8001360704700E100E030B5FF2503220B00F5
:100FD800290040B20240D20091409B012B40C943F6
:100FE800934000280ADBC0240A4A80088000801841
:100FF800A40002590A401343035130BD0F22104088
:101008000838054A800880008018C26911401943D1
:10101800C161F2E700E100E000ED00E0FF22044BCF
:101028009343044A9360BFF34F8FBFF36F8F7047AA
:101038000001001000ED00E010B5203A1360029B9B
:1010480001245360039B06499360049BA143D3602A
:1010580080235B04D361002391610265836610BD20
:101068006D0C001070B50B4B15009860426E0A4B62
:101078000E001A602C1C86F309880020034B984741
:10108800201C002100220023014C2047AD32001013
:101098006D0C001050020020F80100201022014BB6
:1010A8001A61704700ED00E0F0B5C0240022032665
:1010B800FF25A40010002F003040C00087400549DC
:1010C80093089B005B1819590132B94319511A2A20
:1010D800F0D1F0BD00E100E010B5EFF30583054A5B
:1010E800103BDB00D118496898588847FFF746FE3F
:1010F80010BDC046C43B001010B5024B1B68984792
:10110800002010BDFC010020034B044A1860022394
:1011180091780B4393707047FC0100200400002075
:1011280010B5044802F08AF862B6BFF36F8F042343
:10113800181C02DFEA3F0010072310B50449054ACE
:1011480099430548521A02F021F8002010BDC04604
:10115800870F0020002004200002002049B24368C5
:10116800102916DC0A290BD00B2910D00C224A436F
:101178001B689B18802292019B188022120103E0B1
:101188009B68054A9B182D2200201A607047DB686F
:10119800F7E716204042F9E70430000049B24368F7
:1011A800102916DC0A290BD00B2910D00C224A432F
:1011B8001B689B18C02292019B188022120103E031
:1011C8009B68054A9B182D2200201A607047DB682F
:1011D800F7E716204042F9E704200000802310B505
:1011E800084A5B041360084A94691C4202D016201E
:1011F800404210BD01609269100018401A42F8D0B0
:10120800F5E7C0461830064000000640030010B558
:1012180008000B2907D8FEF7C3FF0909090912209E
:10122800282C2C2C33330120404210BD1A680C2383
:101238004B439B58134ADB051B0FD056F5E7124A60
:101248000E201368116803220C0014401142ECD0E0
:101258000E4A0238022CEED1E7E70D4A0420136843
:1012680012689207E1D00B4AE5E70B4B0B4A1B6863
:10127800E1E70C234B430A4A9B181B68094ADAE743
:101288000C20D2E7094000103080004006400010D2
:101298003C8000400040001048800040F93F0010AA
:1012A80000800040F33F0010F8B506000C00756898
:1012B80021002800376902F00AF8002800D16DE003
:1012C8000E2C00D96AE02000FEF76AFF080808081B
:1012D80008082A08080830306A62660021002800D9
:1012E8002F68FFF793FF01003000FFF7DDFF0C23A5
:1012F8006343FB185E68051C5868C0B2FFF756FBCD
:101308002849FFF75DF9041C300AFFF74FFB011C61
:10131800201CFEF7E1FF011C281CFFF751F9F8BD5E
:1013280006212800FFF772FF0400C0E70A2C2DD120
:10133800AF6821002800FFF769FF01003000FFF7C0
:10134800B3FF061CB868FFF731FB311CFFF71AFA28
:10135800061C3F203D68FC682840FFF727FB011C5E
:10136800301CFFF72DF90725061C200C2840FFF735
:101378001DFB011C301CFFF723F9FF68041C380B08
:101388002840FFF713FB011C201CC6E7EF68D0E7D5
:101398003868FFF70BFBC2E77868FAE70020BEE77A
:1013A8000148BCE700007F43001B374BF0B5446899
:1013B8008FB0A36822220393E3685F4905A80493CA
:1013C8002568276902F0F9FA5C4B5D4A1A605D4BA3
:1013D8005D4A13601E005D4A12689643FAD10C21DB
:1013E800300000F02DFDAE6700F016FD0321584BCC
:1013F800DA6B8A43DA635A6C012AFCD103211A6B2F
:101408008A431A639A6B012AFCD1E269514B03980B
:101418005A43636A0093236AA16900F097FCE26A61
:101428004C4B04985A43636B0093A16A236B00F0FA
:101438008DFC112105A801F094FF730005AA9956A7
:10144800C8B2092867D90136112EF6D1C0239B01ED
:10145800EA1880231B0113603F4A3800AA1813605A
:101468003E4A1430AA1813603D4AAD182B60230079
:10147800AA25D83319682D012943FFF7AFFE0028A4
:1014880055DB2300DC331B68364938001943FFF766
:10149800A5FE00284BDB2300E0331B68002B48D057
:1014A80029001F2B00D8591938001030FFF796FE75
:1014B80000283CDB2600E43631682B4D89B22943ED
:1014C800381DFFF78BFE002831DB38003168083003
:1014D800090C2943FFF782FE002828DB234B1A4A10
:1014E80013601A4B1B68DB43DB01DD09002BF8D1C5
:1014F8002900606902AA02F024F8002807DB029B91
:101508002A001979186802F02FF8002801DA831CDC
:101518000DD100200BE0090161180B6C00934B6C96
:10152800CA6B896B02F072F900288CD116380FB09B
:10153800F0BD0F49B8E7C046303D001000E000405C
:10154800BFCDFBFEFE7F3C0000F0004008C000401D
:1015580000800040001BB7000C300000183000006D
:101568002430000000B0FA0000009696FFFFFF014B
:10157800A10A000010B5084802F09AF9002808D01E
:10158800064C2000FFF7C0FD2000FFF74DFB0020B0
:1015980010BD13204042FBE78C3B0010A91500103A
:1015A80070B50400074D0A2804D1AB680D21280046
:1015B8005B689847AB6828005B68E1B298472000F1
:1015C80070BDC0468C3B0010D0231B061B685A42D6
:1015D80053412F225B429343064A9B181A00106816
:1015E800002804D10432D11A0C29F8D970470120F7
:1015F800FCE7C04650410140F7B503690700019375
:10160800D0231B061C68002563425C412F236442DB
:101618009C43184BE418EB081A0008329200115941
:1016280007222A409200D1400F20014203D1013500
:101638001E2DF0D1F7BD0F2191403C330E4A9B007F
:101648009950019B59680029F1D00123AB400E68DD
:1016580000930029EBD08B68009A00981A40034247
:1016680002D038004B689847331E00D033683100E9
:101678001E00EEE73041014000400140F8B50D0082
:10168800141E066910D11100280000F011FC284B27
:10169800AD00EB181A6880235340C0221340254A36
:1016A800AD182B600020F8BD012752092109280038
:1016B8003A40394000F0FCFB0521280000F0E0FB2F
:1016C800802321005B0219401C421AD0D023AF406E
:1016D8001B069F62A303E5D501200300F268AB4017
:1016E800A10719D51A43F260D0223169120665079D
:1016F8000BD519433161A40C936104420AD053629B
:10170800D0E7280000F06CFCE4E799433161E40C71
:101718005361F2E79362C5E79A43F260D02212065A
:10172800210301D55361EAE76403E8D59361E6E74D
:1017380004C0014004D0014001208840034B1B68CD
:101748000340591E8B4100201370704700C00040B1
:1017580001238B40014A00201360704700E00040DD
:1017680001238B40034A0449136018000A68904318
:10177800FBD1704700F0004008C0004001238B40B7
:10178800044A05491360054A136018000A68904323
:10179800FBD1704700E0004008C0004000F0004066
:1017A80010B5436800691B68007A1A6B002803D1DA
:1017B80007480240824208D19C691022200010404C
:1017C800144202D11B680B7010BD01204042FBE798
:1017D80001020000436803491A68936B0B40936346
:1017E8007047C0467FF8FFFFF0B5436889B006939D
:1017F800036901910593069B07921B6805000493F2
:10180800059B1B7A002B00D090E0002A0BD0012208
:101818001021049B1B6B9343049A136343681A6853
:10182800D36A8B43D362049BDC6AEE239C43019BFF
:101838001B79012B06D0022B16D0002B04D0862052
:1018480040425CE002231C43019B5B79012B03D0DF
:10185800032BF4D105331C43019B98790328EED858
:10186800FEF79EFC060413150623ECE720231C4311
:10187800019BDB79002B0CD0012BE0D16B681A6837
:10188800C023116B1B020B4308E04023EFE76023E2
:10189800EDE76B6827491A68136B0B401363059BC8
:1018A80040267642F717D868019B810E1A68800196
:1018B80000231201FEF7F0FC03910290029A039BA9
:1018C800B6185F4169680968002F2DD11A48864209
:1018D8002AD8039B029A9806029B9B0903434B62F2
:1018E8003F231A408A62BFF35F8FCB6A0822CB621C
:1018F800049B01990598DC6202F05FF83800079BA9
:10190800002B0FD0069B1B7F002B05D16B681A6834
:101918001023D16A0B43D3626B681A680123116BD9
:101928000B43136309B0F0BD162089E786204042B7
:10193800F8E7C046FF3FFFFF80FF3F00F0B545686E
:1019480004000769A8682E6885B0002857D128695F
:1019580000285ED13B7A0193002B31D119006868C9
:1019680003AA01F0EEFD002851DB039B019A1979C7
:10197800186801F0F9FD002849D16B6A002B01D0E5
:1019880020009847012163681A68136B8B4313631F
:1019980063680F311A68D36A8B43D3622B6A002BB2
:1019A80048D1002239002000FFF71EFF102373637F
:1019B8002A7F002A04D162681268D16A0B43D36275
:1019C8000023B363234B73643B7A002B0DD1B364BC
:1019D800BFF36F8F0222336B93433363C023326BA1
:1019E8009B0013433363BFF36F8FAB6920009847A5
:1019F80001233A7A3B74002A22D0002007E0E968E4
:101A08008368DB68002B21D0984700289FD005B059
:101A1800F0BD836869691B68002B00D098473A00BD
:101A28002869696983680C32DB68002B00D191E76B
:101A380098478FE72000F96898470028B1D0E6E773
:101A480062681268116B0B431363D6E75820404253
:101A5800DDE7C046FF07000070B580251049114B2F
:101A68008C681B680E6810488A686D02002C08D1C3
:101A7800002A11D11A002E4209D100681818801ABC
:101A880070BD002A0AD02E4201D1A242F5D90468BD
:101A9800E41804600968F0E71C00F4E71A00F2E7AC
:101AA80010E000E024020020200200200020084A64
:101AB800136A1B021B0A1362064B074A1A60074B7C
:101AC800074A1860074B5A60072298601A607047E7
:101AD80000ED00E024020020D430000020020020A5
:101AE800D330000010E000E0F8B50024FFF7B4FFA1
:101AF8000F4E230031680F4D0A0028686968801866
:101B08005941286069600C4D34600C492E686F6833
:101B1800801BFEF74FFB0949230041430A00921935
:101B28007B412A606B6000F0A9FFFFF727F9F8BD39
:101B3800200200208000002078000020D43000001F
:101B4800F0B53B4B3B4D87B000295FD0421C08D114
:101B580001212A688A432A60FF2212061A6007B008
:101B6800F0BD1B68039300230293012853DCEFF3B5
:101B78001083059372B6FFF76FFF00221100AB6860
:101B880004932D4B1E685F6836184F4130003900AA
:101B980018605960294B009601971A60284B1C68F9
:101BA800009B1B1B93423DDB264F0298264A784335
:101BB8008018C0183900FEF7FDFA009B7843E41A34
:101BC80080232018DB00984200D218001F4B98424F
:101BD80000D91800164B184918600138AB686860BE
:101BE8000020A860049AD41A9A421ED2039D621952
:101BF80003000C684D6812196B410A604B60059B25
:101C0800002BACD162B6BFF36F8FA8E71B680393B4
:101C1800431CA8D10E480F4B984200DD1800431E04
:101C28000293A4E78020C000D4E72200E0E7C04682
:101C38002402002010E000E08000002020020020A4
:101C480078000020D4300000D330000084C6FF00A4
:101C58003D0500003E05000070B5EFF3108572B633
:101C6800084A094B14681B68E41AFFF7F5FE0019C7
:101C7800002D02D162B6BFF36F8F0449FEF79AFABE
:101C880070BDC0468000002078000020D4300000DD
:101C9800F7B50C24444301932A4B0092E418636877
:101CA800089A05000E00934200D26260C0232F1FDD
:101CB8009B01FFB2E318012F1BD8012E19D1032273
:101CC8001A60A3683342FCD0009B22685B01534032
:101CD800E022134080225201A218136003212368D6
:101CE80073400B4013600123B340A2681342FCD039
:101CF8001BE0802212011A60134BAA00D158002958
:101D080007D05869FEF756FA431C03205843033896
:101D1800FDD2009B22685B015340E02213408022E1
:101D28005201A2181360012FD8D9802380229B0169
:101D3800E31812011A60089B019A6360024BAD0018
:101D4800EA50F7BD0080004028020020F8B51700CF
:101D5800040029480D001E00FEF72CFA274B01004D
:101D6800FA18274B9A4201D901F0A9FA3800FEF770
:101D780021FA02009823103A5B009A42F4D8731EA5
:101D8800062BF1D8069B013B062BEDD8069B3204A7
:101D98001E0323681643002B0FDA3F2223681340E3
:101DA800AB420AD1A3681B051B0D834205D1EE2265
:101DB800E368D2021340B3421CD0124B1249E21816
:101DC80053425A4101230C329340104A1360104A7F
:101DD80013601F000A6897433A1EFAD10D4B21324F
:101DE800E3182560A0601A602268002AFCDA08223D
:101DF800E6601A60F8BDC046001BB70080E84BD308
:101E080080F8A9320040FDBF08C0004000E0004053
:101E180000F0004004300000AA22064B12011A60AC
:101E28008D225200DA600449044A11605A68002A77
:101E3800FCDA70470040024000B0FA00006002403F
:101E48008023024A9B000B43D36270470080054001
:101E580030B50725C4082840800081402000074D80
:101E68003C308000A40041511B19002A04D0802274
:101E780092019B18196030BDC022F9E7004001406B
:101E880010B5084B8200D3181C6840236340C02457
:101E98002340054CC00012191360044BC018416060
:101EA80010BDC04604C0014004D0014000400140BC
:101EB800064B8000C3181B68C90092000A435A40A9
:101EC8000C231A40024BC0180260704704C001403E
:101ED80004D00140064BC000C3181B6809075940CD
:101EE800C0239B051940034BC01801607047C046CA
:101EF8000440014004500140064BC000C3181B6851
:101F080009045940C0239B021940034BC0180160C3
:101F18007047C0460440014004500140064BC000D1
:101F2800C3181B6809025940C0239B001940034B82
:101F3800C01801607047C046044001400450014089
:101F4800064BC000C3181B6809035940C0239B01F6
:101F58001940034BC01801607047C0460440014057
:101F68000450014002238000002903D0024A80184F
:101F780003607047014AFAE704E0014004F00140B9
:101F8800054B8000C3181B68594001231940034BB7
:101F9800C01801607047C04604C0014004D0014029
:101FA800054B8000C3181B680901594030231940AC
:101FB800024BC0180160704704C0014004D00140C2
:101FC800D02310B51B061B685C4263412F245B427B
:101FD800A343024C1B19FFF73BFF10BD30410140E2
:101FE80040238000002903D0024A8018036070470C
:101FF800014AFAE704E0014004F0014070B5EFF34C
:10200800108572B6064B9C6801F063FC002D02D166
:1020180062B6BFF36F8F2000FEF762FF70BDC04647
:1020280050020020F8B501270A4E83009D5901305F
:1020380084003359AB4200D8F8BD6868002806D040
:10204800037E3B4201D101F01AFC0835F1E72B6809
:102058009847FAE77C3E0010012270B5234B032015
:1020680086B01A70FFF7DEFF00F088FD0420FFF746
:10207800D9FF1F4C26001F4DAC420ED300F0FEF9CD
:10208800AE4220D300F00AFAFEF77CFD01211A4A7D
:10209800137B8B43137306B070BD636A0593236A81
:1020A8000493E3690393A369029363690193236922
:1020B8000093E368A2686168206800F0ABF82368C1
:1020C8005C653034D7E7B26AF36A511C01D1591CF8
:1020D80005D011003068194303D100F0B5FA303645
:1020E800CEE70649183000F039FCF8E77C020020FA
:1020F800943C0010943C0010F80000206339001054
:1021080070B570260125040046430102114880225B
:102118000918002086B004950E35039505356543EA
:102128000D4B0590029001900C48F6182D180C4B99
:1021380030000095520000F06DF80422737B2C7477
:10214800934373730134074BE402E418EE606C6048
:1021580006B070BD800A00208800002050020020D0
:10216800E138001080020020F0B5002087B0FFF7AA
:1021780059FF1F4B83F308881E491F4B0A6A002525
:102188001A40C0231B0413430B62FEF77DFEFEF7C3
:1021980085FF1A4800F078F80120FFF743FF022076
:1021A800FFF740FF00F0AAF9154C164B80225C613E
:1021B800154B164E0593012315490493D20033009D
:1021C8002000039502950195009500F023F804225C
:1021D8000700637B20009343637301F097FB28009B
:1021E800FFF78EFF320039002000FEF73BFFC046A4
:1021F800800A002000ED00E0FFFF00FF68010020DA
:10220800F8000020500200206240001061200010F9
:10221800800B0020F0B587B0059303005833836521
:10222800C365109B07270373042300250732BA43AD
:102238004373D2190F9BBA4383738B180E008560C2
:102248001900C5738561C56104000493FEF77AFD22
:10225800049BC019B8431F1A0E9B3A0002930D9BAA
:10226800310001930C9B20000093059BFEF7E4FED0
:10227800044B65659B68AB4200D01B6E3800236633
:1022880007B0F0BD500200200223FF3383810023F2
:102298000366014B98607047500200200B21084AE2
:1022A80049429368D9669866802306495B05486861
:1022B80003434B6062B6BFF36F8F9368D86E704765
:1022C8005002002000ED00E00D2370B5C356427B9C
:1022D800002B38DBD30636D180235B4213431B4CDB
:1022E8004373A3691A49E2698B4207D101604260CE
:1022F8001060E06111E09A42F8D01B68002BF5D01D
:102308000E250E2645579E57B542F4D0AE42F2DD53
:102318005A680360426010605860A5698D4201D018
:10232800002D00D1E568A3685A7BD20605D1DA8969
:102338007F2A02D9AA69002A06D0AB4202D0280017
:1023480000F072FA656170BD6361FCE7500200201D
:10235800680200200D2270B582560500437B002AD2
:1023680004DA7F221340437301F0BDFA0D4E0E4A82
:10237800B469B368944201D0002C00D1F468AB4230
:1023880008D05A7BD20605D1DA897F2A02D9A269F8
:10239800002A05D0A34202D0200000F045FA23000D
:1023A800736170BD500200206802002070B51B4C9C
:1023B800A168E3690A68CB1A581E834149685B42E1
:1023C8000A6051601340E169A268002B05D1144BE3
:1023D800516013600A60E2610CE00E200E25105671
:1023E8005D57A84215D0854213DD596813605160C6
:1023F8000A605A60A5690A4B9D4201D0002D00D1A0
:10240800E568A3689D4202D0280000F00DFA6561D6
:1024180070BD9942DBD01B68D7E7C0465002002048
:102428006802002010B500290AD1EFF305800028C2
:1024380007D1064B9A685B699A4202D0FFF72EFFD4
:1024480010BD62B6BFF36F8FFAE7C0465002002096
:1024580010B500280AD1EFF30580002807D1064BF4
:102468005A699B689A4202D0FFF718FF10BD62B6FE
:10247800BFF36F8FFAE7C04650020020EFF31081D8
:1024880072B6054B9A68D37B013BD373002902D1FE
:1024980062B6BFF36F8F70475002002070B5EFF33C
:1024A800108672B6134DAB68DA7B0132DA73AC6909
:1024B800114A944201D0002C00D1EC685A7BD20614
:1024C80005D1DA897F2A02D9A269002A05D0A34258
:1024D80002D0200000F0A8F923006B61002E02D181
:1024E80062B6BFF36F8FEFF3108072B6FFF7B0FFDD
:1024F80070BDC0465002002068020020024B034A0B
:102508009A61DA617047C0465002002068020020D4
:1025180070B5EFF3108572B61C4CA168E3690A68C0
:10252800CB1A581E834149685B420A6051601340C8
:10253800E169A268002B05D1154B516013600A6050
:10254800E2610CE00E200E2610569E57B04218D0BD
:10255800864216DD5968136051600A605A60A669A0
:102568000B4B9E4201D0002E00D1E668A3689E4224
:1025780002D0300000F058F928006661FFF78EFE9F
:1025880070BD8B42D8D01B68D4E7C04650020020EB
:1025980068020020F8B5030007000C000B4303D1C4
:1025A800FFF7B6FF0020F8BDEFF3108672B6134DA3
:1025B800134BA8681860FFF7CDFEA86823003A00FF
:1025C8001049183000F0CAF90423AA680400517BA6
:1025D80030000B435373FFF761FEAB689A6A002A19
:1025E800E0D18022DB6A12069342DBD101F0E1F9E7
:1025F800201AC343DB171840D5E7C0465002002015
:10260800700200206339001070B504000D00FFF758
:10261800C1FF01002000631C01D1013510D00A0060
:10262800CB1709200021801859410A220023FDF701
:1026380033FE002903D180231B06984200D30148AA
:1026480070BDC046FFFFFF7F70B50400EFF3108533
:1026580072B60426437B33420DD0183001F083F95B
:10266800637B2000B3436373FFF72EFE2900054800
:10267800FFF7D8FE70BD002DFCD162B6BFF36F8F97
:10268800F8E7C0467D020020014B98687047C046B5
:1026980050020020F0B5037B85B004000393EFF3EC
:1026A8001083019372B6019B02930823427B1A425E
:1026B80007D0019B002B02D162B6BFF36F8F05B024
:1026C800F0BD1900114348B2002857DB6173A368B5
:1026D800002B02D0200001F00EF92000260018304F
:1026E80001F041F95836A56DAE4201D0002D4DD10B
:1026F800304F0025BB689C4204D1EFF305856A1E64
:102708009541EDB2BE692C4A964201D0002E00D107
:10271800FE68B34202D0300000F086F820007E61E7
:1027280000F0BDFD002D02D02448FFF7ADFDBB68C9
:102738009C4238D1EFF30583002B34D1237BDB0790
:102748000FD5019B002B02D162B6BFF36F8F62B623
:10275800BFF36F8F0423181C02DFEFF3108372B6E8
:1027680002930298FFF79AFD039BDB07A7D562B691
:10277800BFF36F8F0423181C02DFA0E77F210A40F4
:1027880013432000637301F0AEF8A0E7280001F0BE
:10279800B2F82800183001F0E6F800232800EB66AC
:1027A800FFF792FD9FE7019B002BDDD162B6BFF3D7
:1027B8006F8FD9E7500200206802002068010020CE
:1027C80010B5447B1F21220003000A4000200C4260
:1027D80010D10A4910008B420CD00949086800281A
:1027E80008D0D9897F2906D80E215956054B1B6870
:1027F800994200DB10BD1000FCE7C04688000020AD
:1028080060000020740200200121044B044AC01A11
:10281800044BC0104343D1547047C046D801002030
:102828007D020020ABAAAAAA70B518250B4B1E7C06
:10283800FFF7C6FF75430A4B0400ED18280001F0A6
:1028480092F80022074B9A55944205D0621E280040
:102858000549D31700F082F870BDC0465002002029
:10286800D80100207D0200201128001070B5EFF378
:10287800108572B6104A114B94681868A04207D1A7
:10288800FFF7D2FF002D02D162B6BFF36F8F70BD84
:1028980000211960127C0A4B9B5C8B42F2D020000D
:1028A800FFF78EFF0028EDD0637BDB0601D1FFF731
:1028B8007DFD2000E4E7C0465002002070020020A1
:1028C8007D020020024B1868984200D10020704712
:1028D8006400002070B50600FFF7F4FF002810D050
:1028E800026943693400F517121BAB41002B08DC61
:1028F80003D1802109068A4203D2D843C017104069
:1029080070BD0148FCE7C046FFFFFF7F002010B5FF
:10291800034B1B68834201D1FFF79EF910BDC046E7
:102928007802002030B500280ED00B4B5B68984227
:102938000AD00168002907D00A694B69046945690A
:1029480012196B410A614B610368426813605A604F
:1029580000230360436030BD64000020F0B504002C
:1029680015001E0085B0531C02D1731C00D17CE0F9
:10297800A160EFF31083039372B6002E26DBFFF7F6
:10298800C5FF00210090012040197141009AD3171A
:1029980012184B4136492261636108684968121868
:1029A8004B411E00150001230293FFF78BFF070020
:1029B800304B9C465B680193002F1DD16346236012
:1029C800019B63601C6063465C6027E0284B1868C5
:1029D800596802225242D317121A8B41521BB34133
:1029E8001100002B04DC01D1002A01D101210023B0
:1029F800636121610023D7E73869796922696369CE
:102A0800994202DC28D1904226D9801A99417B68E4
:102A180038617961636027601C607C60FFF752FF52
:102A280084420FD1144B1B68002B0BD1029B002B47
:102A380002D1FFF76BFF00900098FFF74BFF0021D2
:102A4800FFF77EF8039B002B02D162B6BFF36F8FAE
:102A58002800310005B0F0BD121A8B412261636174
:102A6800019B9F42AAD03F68A6E700250026EFE712
:102A7800F00100206400002078020020F0B587B043
:102A8800EFF3108372B601932F4B1860FFF71AFF0C
:102A98002E4F04003A687B68029203932A4B9C46A7
:102AA8001D6800280FD042690669EB179A4202DCBC
:102AB80024D1AE4222D91900226963692800121A6A
:102AC8008B4122616361029803992A00EB1712185F
:102AD8004B4100243A607B60634620001C60FFF78E
:102AE800F9FE2100FFF72CF8019BA34202D162B640
:102AF800BFF36F8FFFF7BAFE07B0F0BDF317049668
:102B08000593049A059B029803998018594100235C
:102B180000220E4D22616361286069602000FFF782
:102B280001FF019B002B02D162B6BFF36F8F20001B
:102B3800A3689847EFF3108372B6034A01931368AA
:102B48009B1B1360A2E7C04678020020F00100201A
:102B580010B5EFF3108472B6FFF7D8FE02000649ED
:102B6800C3170868496880185941002C02D162B619
:102B7800BFF36F8F10BDC046F001002010B50248AA
:102B880000F05CFB10BDC04667400010F0B543681C
:102B980093B003900893837815009B0700D4F8E05E
:102BA800002301930E78002E6AD0252E0DD04B1CE1
:102BB8000993019B013301930399089BF0B298474D
:102BC800002800DADFE00999ECE74E788B1C0993BE
:102BD800252EEED0002304211C00099A02930793A6
:102BE80009921F2C2ED83000203810280AD8FDF75B
:102BF800D7FA1D0909270909091E0909091B092509
:102C0800090918003300303B092B29D92A2E32D163
:102C180008CD600622D4002B29DB2020079304432B
:102C280005E001231C4302E002231C430C43099BDB
:102C380001321E78002ED3D109922DE00823F1E746
:102C48001023EFE77F2C1ED83300303B092BDDD84B
:102C5800600605D50A20029E7043C3180293E6E772
:102C68000A20079E7043C31807932023DAE75B42C4
:102C780007932823D6E72E2E05D140231C42D1D016
:102C8800019813B0F0BD6C2E2DD027D8682E31D006
:102C98006A2E32D04C2E30D0029B002B03DA402310
:102CA8009C4300230293202333431A00653A022AE7
:102CB80001D9612B24D10722EB1D934308331D0052
:102CC800AB4F0292240753D5019A029B16009C1819
:102CD800B4424FD1079B029A9E1A82E1742EA6D065
:102CE8007A2EA4D0D8E780231C429BD08020800075
:102CF800044397E780235B00F6E7A0239B0091E756
:102D080030006338122800D9E3E0FDF749FA0A4693
:102D1800E2E2E2E246E2E2E2E2E2F3DDE2E211E2EC
:102D2800AD0004CD0CAB1A7001230CAF0293C9E7B8
:102D380080CD002F00D18F4F0299630601D4012165
:102D48004942380000F04AFE0290BBE72020039970
:102D5800089B9847002816DB013C029BA342F5D349
:102D6800079A019B944663441B1B01930794ABE7A6
:102D7800079CF2E7019B0399FB1A985D089B98470B
:102D880001360028A4DA039B9A7804231343039A94
:102D9800937001235B42019372E723063FD5A30595
:102DA80037D50722073595432F000CCF049205939A
:102DB800102325009D43059B002B3ADA0499059AB8
:102DC80000244B429441049305948023DB001D4367
:102DD800ADB20CAC0A2304980599220000F009FE54
:102DE800041B6B0665D501232A009A431300029A37
:102DF800A24200DCA4E0002E00D19CE010222900B1
:102E080011400B91154200D09CE0029A1D000692D9
:102E18001EE02F0008CF0493DB170593C8E72F00A7
:102E280008CFE205F7D5A20501D55BB2F3E71BB2DF
:102E3800F1E7049B059A1343CBD16306C9D5029BDE
:102E4800002BC6D111339C43029B25001C0006931E
:102E58002A00494B1A400B921D4277D0069B01333A
:102E6800069300230B9371E010239C43063B9C467A
:102E7800802322001A4006921C4242D0210081334E
:102E8800FF3319401C4239D00722EB1D93431F0022
:102E980003CB083703000B4346D1250016339D4367
:102EA800630644D5029B002B41D117339C43250070
:102EB800029C10232A001A400B921D4256D0631C14
:102EC800002E42D022003FE0102378269C461C4367
:102ED800CEE7782B04D110229B1B1A439446C7E7F0
:102EE80025200399089B9847002800DA4BE7019BA7
:102EF800023360E6082300269C46B9E72F0001CF7D
:102F0800C8E72F008022210008CF52001800114086
:102F18001442BFD0802221009200114098B214427E
:102F2800B8D00699D8B2B5E706239C4325000CAC67
:102F38006346220052E711239D43029B069387E7CD
:102F48001D00B6E71D00029A931C06932B072AD48E
:102F5800EB0709D5079B069A0294934204DD9B1A56
:102F68001B190293079B0693069B10E006946FE7D4
:102F7800A9400010A2400010060400002020039978
:102F8800089B9847002800DAFDE60A9B01330A935C
:102F98000A9A079B9342F1DC069A019B9B1A0A9AAC
:102FA8009B18019306920B9B002B25D03020039988
:102FB800089B9847002800DAE5E6019B002E12D10D
:102FC80001330193019E029B019A9B189B1BA3420C
:102FD80020DC2500002D25D13D00079B069AA41969
:102FE8009E1A019431E002330193F0B20399089BD1
:102FF80098470028E6DAC6E6174B1D42E2D02020A3
:10300800AB0700D50B306D0500D52D20019B013392
:103018000193EBE730200399089B01369847002875
:10302800D1DAB0E60CAB013DE85C0399089B984700
:103038000028CFDAA7E6019B2020013301930399EA
:10304800089B9847002800DA9DE6019AA3199B1A65
:10305800002BF0DCB7E5C04606040000704780236B
:10306800C900411880681B02984202D39200505848
:1030780070475200505AFBE710B58024C900411828
:1030880080682402A04202D39200535010BD52001F
:103098005352FBE710B50122FFF7E1FF400810BDCE
:1030A80010B58024C9004118806801232402A04279
:1030B80008D34868002A02D003434B6010BD9843E8
:1030C8004860FBE74888002A02D003434B80F5E7B5
:1030D80098434880F2E710B553000122FFF7CCFF70
:1030E80010BD802210B5806804231202904200D3DC
:1030F800DB180833DB080131C81AFDF7AFF81F23C6
:10310800181A10BDF8B50D0004008668FFF7C2FF55
:10311800802301001B029E4201D3012819D0200000
:10312800FFF7DFFF8300E3181E69002E12D101218B
:103138008140E26820000A43E260290002221D6102
:103148002B00FFF799FF2B00032229002000FFF72F
:1031580093FFF8BD022231002000FFF780FF07002F
:103168000300022229002000FFF786FF3300032214
:1031780029002000FFF780FF2B00032239002000E0
:10318800FFF77AFF2B0002223100DFE7F8B5802332
:103198000825DB029A4200D2043D07230027551B6D
:1031A800CC1D4D199C439D432D1BED08046029003F
:1031B8002000A560E760FFF794FF431D9B00DE1D1C
:1031C8003A00F608013001DB103B1A00200000210C
:1031D800103000F0FBFB320020000021FFF77BFFDE
:1031E800002320001A001900FFF746FFAF1B20003C
:1031F80001220021FFF754FF3A0031002000FFF7B9
:103208006AFF3300310020000022FFF735FF290054
:1032180020000022FFF75FFF3B002900200000226A
:10322800FFF72AFF290001222000FFF739FF3100AC
:103238002000FFF767FFF8BD002070470FB407B5FF
:1032480004A901C90191FDF7F5FC03B008BC04B05D
:103258001847704710B500F0B9FB10BD10B500F065
:10326800ACFB10BD10B501000068FDF739FD10BDBD
:1032780010B5FDF765FDFDF781FD10BD10B5002106
:103288000120FDF72DFD10BD10B5FDF7C7FEFDF7B8
:1032980001FDFDF70BFDFDF707FFFEF765FF862033
:1032A80040427047002802D162B6BFF36F8F704763
:1032B800BFF34F8F30BF62B6BFF36F8F704710B543
:1032C800FDF72EFF10B5FDF717FF002010BD030016
:1032D80001200A1FD2B200B582420DD90E290AD8A0
:1032E8000800FCF75DFF0A0A0A0A08080A0A0A0A1F
:1032F80011111D212100002000BD1A680C234B4329
:1033080098580005C00FF7E70A2907D19B68586845
:103318002923184043425841C0B2EDE7DB68F6E77D
:103328005B685868C004EDE70120E5E749B203008F
:1033380010B5EA20102904DC5868FFF7C8FF0130EF
:10334800C0B210BD49B210B51400102906DCFDF753
:10335800ABFFFDF70DFB2060002010BD162040429A
:10336800FBE70123F0B50700002587B05B42039116
:1033780001900293039B9D4224D22E006C003C19BD
:103388000123029AE35693420FD16B00F818FB56BB
:10339800022204930123C3562100059300F00DFB7C
:1033A800049B01352370059B6370039B013602342F
:1033B800B342E5D1019B1B785BB20293019B0233B8
:1033C8000193D7E707B0F0BDD0231B065B68002048
:1033D8000B6070470A0010B503691000D96888436C
:1033E8000100D02000064161DC68196921401140C4
:1033F8008162D9681B69114099434162002010BD60
:103408000A0010B503691000D96888430100D0206C
:1034180000068161DC681969214011404162D96860
:103428001B69114099438162002010BD036908009F
:10343800DA689043D0221206D061DB6800200B4086
:10344800D362704710B503695868002821D08842B4
:103458001BD108689C685860A14200D19860002080
:103468000860824206D05A680A609A685960002A41
:1034780000D19960002010E0814206D108682060E0
:1034880098688142EBD19C60E9E704000068002855
:10349800F2D1002AE7D11620404210BD10B543688A
:1034A8005B68002B00D09847002010BD70B50E0057
:1034B80015000F21002230001C00FEF781FD80233B
:1034C8009B039D420FD08023A101DB042340C90F39
:1034D800ED010AD58900002B01D0082319430122E8
:1034E8003000FEF76DFD002070BD002BF7D00223E1
:1034F800F4E710B5002203210D20FDF765FD0D202E
:10350800FDF756FD10BD30B50469D02000060369EB
:10351800E56853400B40AB430D00C361036A534059
:103528009D432B00E5681D4023692B40C362036A55
:103538005A400A40E168236911409943C16200205A
:1035480030BD30B50368136005790468ED0064196F
:10355800A34202D30220404230BD5C798C4201D0A4
:103568000833F0E70020F7E770B504008D0045192F
:10357800AC4201D1002070BD2078261D8006800E47
:1035880000F072F92188207849058006C90E800E5E
:10359800FEF776FCA17820788A078006C907D20F43
:1035A800C90F800EFEF784FC6178207849068006F2
:1035B800090F800EFEF7F4FC207861788006C909AF
:1035C800800EFEF7DDFCA178207809078006C90F78
:1035D800800EFEF7C7FCA178207849078006C90F3E
:1035E800800EFEF7FDFCA178207889068006890FF9
:1035F800800EFEF7A5FC2078A17880068909800E48
:10360800FEF78CFCE178207889078006890F800E08
:10361800FEF772FCE178207809078006890F800E92
:10362800FEF758FC3400A3E70020704700207047DD
:10363800202243681B6898691042FCD119607047C2
:1036480043681B685B681807C00F5A0701D5082232
:1036580010430222134200D01043DB0701D5042394
:103668001843704710B5036911CB11C1002010BD74
:1036780030B52025436800201B689C692C4202D184
:10368800141A002C00DC30BD0C5C01301C60F4E71F
:1036980030B51024436800201B68151A002D02DD80
:1036A8009D69254200D030BD1D680D540130F4E7F6
:1036B8002022F8B5436804691E680500B36B1343FC
:1036C800B363237C002B04D0002323746369002B8D
:1036D8000CD1F8BDEFF3108772B628006369A169B1
:1036E8009847002F02D162B6BFF36F8F2022B36BC9
:1036F8001342EFD1EDE70122202103691A744368D0
:103708001A68936B8B4393637047436801201B6867
:103718009B69DB089843704702694368127A1B6803
:10372800002A06D1196B01320800FF3210401142FD
:103738000BD02022996B0020114206D0D96B0130A2
:10374800114202D19B69DB091840704743681A6827
:103758005023916B0B4393637047502143681A6859
:10376800936B8B439363704702694368127A1B68B3
:10377800002A06D1196B80220800920010401142DD
:1037880007D09A6B0020D20603D59B6901301B092C
:103798009843704743681A68F023916BDB000B432A
:1037A8009363704710B50400FFF7DEFF03000120A4
:1037B800002B04D12000FFF7AFFF431E984110BD36
:1037C80001207047036959619A61704710B5036910
:1037D8005A69002A0AD0EFF3108472B65A699969B7
:1037E8009047002C02D162B6BFF36F8F10BD10B5A1
:1037F800002203211420FDF7E7FB1420FDF7D8FB76
:1038080010BD10B50122FDF7EFFF10BDF0B585B072
:1038180017000A9A02900391934201D2FFF74FFDD5
:103828001D0E1E023000002329000A9AFCF734FD01
:1038380000290AD02B00002402983A00039900942A
:10384800FEF726FA012005B0F0BD802304009B0096
:10385800984201D28024640000232200300029000D
:10386800FCF71AFD0300E7E70123D022834010B5D7
:103878001206936205219361FEF702FB10BD10B595
:1038880043690400002B07D100230122E16848782E
:1038980002434A70584210BD98470028F4D0C21716
:1038A80083185340FF2B00DDFF23E2681370ECE719
:1038B800002809D00123C26800205178194202D09B
:1038C80010784242504118407047EFF3108372B6A7
:1038D800FEE710B5FFF7F9FF10B5EFF3108372B6E6
:1038E800FFF7E6FCF9E70368426813605A600023B3
:1038F80003604360704710B50400FFF7F4FF02222D
:10390800637B934363730023A36010BD10B5EFF38B
:10391800108472B6FEF7D8FC002C02D162B6BFF351
:103928006F8F10BD70B50400EFF3108572B62823B1
:10393800427B1A420BD18368002B01D0FFF7DBFFD3
:103948000422637B200093436373FEF7BDFC002DC4
:1039580002D162B6BFF36F8F70BD10B50121183860
:10396800FFF7E0FF10BD70B50400EFF3108572B6E5
:103978000368002B1AD0FEF7A5FF06002000FEF70B
:10398800D1FF802300221B0622616361A64206D173
:10399800FEF7BCFFFEF79EFF0021FEF7D1F80020DE
:1039A800002D02D162B6BFF36F8F70BD1620404262
:1039B800F6E710B5FFF7CCF810BD002310B59A4212
:1039C80000D110BDCC5CC4540133F8E70300821861
:1039D800934200D1704719700133F9E70300411889
:1039E8008B4202D01A78002A01D1181A7047013385
:1039F800F6E7F0B50D003721C91A8FB0C9B20D919D
:103A08001F2104000B400C930C99E3B2082955D0F0
:103A1800102900D164E0E9076008084369080690A6
:103A28000791A008A9070843A90808900991089ECA
:103A3800099F06980799801979410E07B446060927
:103A480000966646009F37430E0900970196009E30
:103A5800019F801979410E06B4466746060A3E431F
:103A680002960E0A0396029E039F801979410E045E
:103A7800B4466746060C3E4304960E0C0596049E13
:103A8800059F8019794100260A910B960A9E0B9F83
:103A9800801979414E07CD080521C4083443614394
:103AA80049005B1ADBB2092B12D9012000210A3B1D
:103AB80024184D41DBB21DE00200A5E707210B40A9
:103AC80069078C466646E008E908064334000D009D
:103AD800303313702300501C2B43EDD10FB0F0BDD1
:103AE8000F210B4029078C46664620092909064301
:103AF80034000D00092BEBD90D99CB18DBB2E7E7A1
:0C3B08000148006870470000F801002030
:083B140048CFFF7F0100000013
:103B1C0000000000543B001000000000703B00103F
:103B2C00000000008C3B00107D1500100000000010
:103B3C00B51A001000000000411100100000000038
:083B4C0000000000A83B00107E
:103B540014400010643D0010C83C00106C000020AC
:103B640014000020B5130010000000003A400010BB
:103B740000000000B83C00107000002000000000AD
:103B84000000000000000000544000103800002035
:103B9400E43C0010720000201C00002045190010B5
:103BA400000000002E4000105C3E0010943C001009
:103BB4006E0000200C020020A5340010000000005C
:103BC4000000000085320010000000008532001063
:103BD4000000000085320010000000008532001053
:103BE4000000000085320010000000008532001043
:103BF4000000000085320010000000008532001033
:103C04000000000085320010000000008532001022
:103C14000000000085320010000000008532001012
:103C24000000000085320010A83B001001160010AF
:103C340000000000853200100000000085320010F2
:103C440000000000853200100000000085320010E2
:103C540000000000853200100000000085320010D2
:103C64008C3B0010D5370010000000008532001096
:103C740000000000853200100000000085320010B2
:103C840000000000853200100000000085320010A2
:103C940085160010D13300100F350010DD330010ED
:103CA4000934001035340010B53400104D340010C0
:043CB400D115001016
:103CB80041170010591700106917001085170010D8
:103CC80065110010A5110010000000004D33001010
:0C3CD80035330010000000000000000068
:103CE400A917001039360010493600100B3800109F
:103CF4006D3600107936001099360010B936001070
:103D0400FF360010213700105537001063370010BC
:103D140013370010713700109D370010DD170010A5
:0C3D2400AD370010C9370010CD3700107B
:103D3000000A010A020A030A040C050A0605070B19
:103D4000080B090B0A0C0B0C0CFF0DFF0E0D0FFFDF
:103D500010FF0000A83B00100E001100A83B00104F
:103D60001900000000800040004002400080024036
:103D700000C0024000000640543E00100100000058
:103D80007D000000060000000200000001000000AD
:103D900064000000050000000500000000000000B5
:103DA00000000000405973074059730700000000ED
:103DB00000000000405973074059730700000000DD
:103DC00000000000405973074059730700000000CD
:103DD00000000000405973074059730702000000BB
:103DE00000000000001BB700001BB700010000002E
:103DF000000000004059730740597307000000009D
:103E0000000000004059730740597307000000008C
:103E100000000000006CDC02006CDC02000000000E
:103E200000000000006CDC02006CDC0200000000FE
:103E3000000000001BB70000006CDC020C0000005A
:103E4000A00A0000100000000000000000000000B8
:103E5000000000005C3E001000000000FFFFFF3F7C
:103E6000FB3400106C3E001001000000743E001096
:103E70000200000080080000810804001C3B0010C4
:103E80001C3B00103C3B0010443B0010543B001016
:103E9000543B001072302F61313A202030782530A9
:103EA0003878202072312F61323A20203078253046
:103EB0003878202072322F61333A20203078253034
:103EC00038780A0072332F61343A20203078253058
:103ED0003878207231322F69703A202030782530BE
:103EE0003878207231342F6C723A202030782530A7
:103EF00038780A0020787073723A202030782530A4
:103F000038780A004661756C74696E6720696E7353
:103F10007472756374696F6E206164647265737323
:103F200020287231352F7063293A203078253038B7
:103F3000780A00556E68616E646C65642049525160
:103F40006E3A2025640A00526573657276656420B6
:103F5000457863657074696F6E20280053707572C0
:103F6000696F757320696E7465727275707420283C
:103F70004952512000535053454C20696E207468BB
:103F800072656164206D6F646520646F6573206E77
:103F90006F7420696E646963617465205053500AC0
:103FA000002A2A2A2A2A2048415244204641554CB8
:103FB00054202A2A2A2A2A0A00415243485F455897
:103FC00043455054207769746820726561736F6E41
:103FD0002025780A0A002A2A2A2A2A202573202541
:103FE0006429202A2A2A2A2A0A0061626F72742808
:103FF000290A000B0A0E0C0F10050A0B0E0C0F10ED
:104000000A0B0D0C0F100B0F100A0F100B0E0C05E6
:1040100007080904636C6F636B2D636F6E74726FB6
:104020006C6C65724034303030383030300067703E
:10403000696F2D706F727440300072657365742DF6
:10404000636F6E74726F6C6C6572403430303063C5
:104050003030300075617274403430303334303079
:1040600030006D61696E002A2A2A20426F6F7469E0
:104070006E67205A6570687972204F5320627569A7
:104080006C642076342E332E302D333730302D674C
:10409000326236653238373463343132202A2A2A84
:1040A0000A00286E756C6C29002A666C6F61742A90
:0440B000000000000C
:1040B4004132001000000000CD320010000000006A
:1040C40000000000A02E6300A02E630000C20100C7
:1040D40000010300000000000000000000000000D8
:1040E400000000000000000000400340643E001097
:1040F4000000000000000000543B00100600000017
:10410400F73700100000000035360010313600107B
:0C411400C80000006400002064000020CF
:08412000000000000000000097
:0441280015E015E0A9
:0400000510000EB524
:00000001FF
